{
	"DocumentRegistry.sol": {
		"DocumentRegistry": {
			"abi": [
				{
					"anonymous": false,
					"inputs": [
						{
							"indexed": true,
							"internalType": "bytes32",
							"name": "docHash",
							"type": "bytes32"
						},
						{
							"indexed": true,
							"internalType": "address",
							"name": "owner",
							"type": "address"
						},
						{
							"indexed": false,
							"internalType": "uint256",
							"name": "timestamp",
							"type": "uint256"
						}
					],
					"name": "DocumentRegistered",
					"type": "event"
				},
				{
					"anonymous": false,
					"inputs": [
						{
							"indexed": true,
							"internalType": "bytes32",
							"name": "docHash",
							"type": "bytes32"
						},
						{
							"indexed": false,
							"internalType": "bool",
							"name": "isValid",
							"type": "bool"
						}
					],
					"name": "DocumentVerified",
					"type": "event"
				},
				{
					"inputs": [
						{
							"internalType": "string",
							"name": "_content",
							"type": "string"
						}
					],
					"name": "calculateHash",
					"outputs": [
						{
							"internalType": "bytes32",
							"name": "",
							"type": "bytes32"
						}
					],
					"stateMutability": "pure",
					"type": "function"
				},
				{
					"inputs": [],
					"name": "getUserDocuments",
					"outputs": [
						{
							"internalType": "bytes32[]",
							"name": "",
							"type": "bytes32[]"
						}
					],
					"stateMutability": "view",
					"type": "function"
				},
				{
					"inputs": [
						{
							"internalType": "bytes32",
							"name": "_docHash",
							"type": "bytes32"
						},
						{
							"internalType": "string",
							"name": "_documentType",
							"type": "string"
						}
					],
					"name": "registerDocument",
					"outputs": [],
					"stateMutability": "nonpayable",
					"type": "function"
				},
				{
					"inputs": [
						{
							"internalType": "bytes32",
							"name": "_docHash",
							"type": "bytes32"
						}
					],
					"name": "verifyDocument",
					"outputs": [
						{
							"internalType": "bool",
							"name": "exists",
							"type": "bool"
						},
						{
							"internalType": "uint256",
							"name": "timestamp",
							"type": "uint256"
						},
						{
							"internalType": "address",
							"name": "owner",
							"type": "address"
						},
						{
							"internalType": "string",
							"name": "docType",
							"type": "string"
						}
					],
					"stateMutability": "view",
					"type": "function"
				}
			],
			"devdoc": {
				"kind": "dev",
				"methods": {},
				"version": 1
			},
			"evm": {
				"assembly": "    /* \"DocumentRegistry.sol\":60:1781  contract DocumentRegistry {... */\n  mstore(0x40, 0x80)\n  callvalue\n  dup1\n  iszero\n  tag_1\n  jumpi\n  0x00\n  dup1\n  revert\ntag_1:\n  pop\n  dataSize(sub_0)\n  dup1\n  dataOffset(sub_0)\n  0x00\n  codecopy\n  0x00\n  return\nstop\n\nsub_0: assembly {\n        /* \"DocumentRegistry.sol\":60:1781  contract DocumentRegistry {... */\n      mstore(0x40, 0x80)\n      callvalue\n      dup1\n      iszero\n      tag_1\n      jumpi\n      0x00\n      dup1\n      revert\n    tag_1:\n      pop\n      jumpi(tag_2, lt(calldatasize, 0x04))\n      shr(0xe0, calldataload(0x00))\n      dup1\n      0xa8cbcecd\n      eq\n      tag_3\n      jumpi\n      dup1\n      0xb4638516\n      eq\n      tag_4\n      jumpi\n      dup1\n      0xfa17185a\n      eq\n      tag_5\n      jumpi\n      dup1\n      0xfe35089f\n      eq\n      tag_6\n      jumpi\n    tag_2:\n      0x00\n      dup1\n      revert\n        /* \"DocumentRegistry.sol\":1638:1778  function calculateHash(string memory _content) public pure returns (bytes32) {... */\n    tag_3:\n      tag_7\n      0x04\n      dup1\n      calldatasize\n      sub\n      dup2\n      add\n      swap1\n      tag_8\n      swap2\n      swap1\n      tag_9\n      jump\t// in\n    tag_8:\n      tag_10\n      jump\t// in\n    tag_7:\n      mload(0x40)\n      tag_11\n      swap2\n      swap1\n      tag_12\n      jump\t// in\n    tag_11:\n      mload(0x40)\n      dup1\n      swap2\n      sub\n      swap1\n      return\n        /* \"DocumentRegistry.sol\":1432:1552  function getUserDocuments() external view returns (bytes32[] memory) {... */\n    tag_4:\n      tag_13\n      tag_14\n      jump\t// in\n    tag_13:\n      mload(0x40)\n      tag_15\n      swap2\n      swap1\n      tag_16\n      jump\t// in\n    tag_15:\n      mload(0x40)\n      dup1\n      swap2\n      sub\n      swap1\n      return\n        /* \"DocumentRegistry.sol\":523:1040  function registerDocument(bytes32 _docHash, string memory _documentType) external {... */\n    tag_5:\n      tag_17\n      0x04\n      dup1\n      calldatasize\n      sub\n      dup2\n      add\n      swap1\n      tag_18\n      swap2\n      swap1\n      tag_19\n      jump\t// in\n    tag_18:\n      tag_20\n      jump\t// in\n    tag_17:\n      stop\n        /* \"DocumentRegistry.sol\":1084:1420  function verifyDocument(bytes32 _docHash) external view returns (... */\n    tag_6:\n      tag_21\n      0x04\n      dup1\n      calldatasize\n      sub\n      dup2\n      add\n      swap1\n      tag_22\n      swap2\n      swap1\n      tag_23\n      jump\t// in\n    tag_22:\n      tag_24\n      jump\t// in\n    tag_21:\n      mload(0x40)\n      tag_25\n      swap5\n      swap4\n      swap3\n      swap2\n      swap1\n      tag_26\n      jump\t// in\n    tag_25:\n      mload(0x40)\n      dup1\n      swap2\n      sub\n      swap1\n      return\n        /* \"DocumentRegistry.sol\":1638:1778  function calculateHash(string memory _content) public pure returns (bytes32) {... */\n    tag_10:\n        /* \"DocumentRegistry.sol\":1706:1713  bytes32 */\n      0x00\n        /* \"DocumentRegistry.sol\":1760:1768  _content */\n      dup2\n        /* \"DocumentRegistry.sol\":1743:1769  abi.encodePacked(_content) */\n      add(0x20, mload(0x40))\n      tag_28\n      swap2\n      swap1\n      tag_29\n      jump\t// in\n    tag_28:\n      mload(0x40)\n      0x20\n      dup2\n      dup4\n      sub\n      sub\n      dup2\n      mstore\n      swap1\n      0x40\n      mstore\n        /* \"DocumentRegistry.sol\":1733:1770  keccak256(abi.encodePacked(_content)) */\n      dup1\n      mload\n      swap1\n      0x20\n      add\n      keccak256\n        /* \"DocumentRegistry.sol\":1726:1770  return keccak256(abi.encodePacked(_content)) */\n      swap1\n      pop\n        /* \"DocumentRegistry.sol\":1638:1778  function calculateHash(string memory _content) public pure returns (bytes32) {... */\n      swap2\n      swap1\n      pop\n      jump\t// out\n        /* \"DocumentRegistry.sol\":1432:1552  function getUserDocuments() external view returns (bytes32[] memory) {... */\n    tag_14:\n        /* \"DocumentRegistry.sol\":1483:1499  bytes32[] memory */\n      0x60\n        /* \"DocumentRegistry.sol\":1519:1532  userDocuments */\n      0x01\n        /* \"DocumentRegistry.sol\":1519:1544  userDocuments[msg.sender] */\n      0x00\n        /* \"DocumentRegistry.sol\":1533:1543  msg.sender */\n      caller\n        /* \"DocumentRegistry.sol\":1519:1544  userDocuments[msg.sender] */\n      0xffffffffffffffffffffffffffffffffffffffff\n      and\n      0xffffffffffffffffffffffffffffffffffffffff\n      and\n      dup2\n      mstore\n      0x20\n      add\n      swap1\n      dup2\n      mstore\n      0x20\n      add\n      0x00\n      keccak256\n        /* \"DocumentRegistry.sol\":1512:1544  return userDocuments[msg.sender] */\n      dup1\n      sload\n      dup1\n      0x20\n      mul\n      0x20\n      add\n      mload(0x40)\n      swap1\n      dup2\n      add\n      0x40\n      mstore\n      dup1\n      swap3\n      swap2\n      swap1\n      dup2\n      dup2\n      mstore\n      0x20\n      add\n      dup3\n      dup1\n      sload\n      dup1\n      iszero\n      tag_31\n      jumpi\n      0x20\n      mul\n      dup3\n      add\n      swap2\n      swap1\n      0x00\n      mstore\n      keccak256(0x00, 0x20)\n      swap1\n    tag_32:\n      dup2\n      sload\n      dup2\n      mstore\n      0x20\n      add\n      swap1\n      0x01\n      add\n      swap1\n      dup1\n      dup4\n      gt\n      tag_32\n      jumpi\n    tag_31:\n      pop\n      pop\n      pop\n      pop\n      pop\n      swap1\n      pop\n        /* \"DocumentRegistry.sol\":1432:1552  function getUserDocuments() external view returns (bytes32[] memory) {... */\n      swap1\n      jump\t// out\n        /* \"DocumentRegistry.sol\":523:1040  function registerDocument(bytes32 _docHash, string memory _documentType) external {... */\n    tag_20:\n        /* \"DocumentRegistry.sol\":657:658  0 */\n      0x00\n        /* \"DocumentRegistry.sol\":624:633  documents */\n      dup1\n        /* \"DocumentRegistry.sol\":624:643  documents[_docHash] */\n      0x00\n        /* \"DocumentRegistry.sol\":634:642  _docHash */\n      dup5\n        /* \"DocumentRegistry.sol\":624:643  documents[_docHash] */\n      dup2\n      mstore\n      0x20\n      add\n      swap1\n      dup2\n      mstore\n      0x20\n      add\n      0x00\n      keccak256\n        /* \"DocumentRegistry.sol\":624:653  documents[_docHash].timestamp */\n      0x01\n      add\n      sload\n        /* \"DocumentRegistry.sol\":624:658  documents[_docHash].timestamp == 0 */\n      eq\n        /* \"DocumentRegistry.sol\":616:690  require(documents[_docHash].timestamp == 0, \"Document already registered\") */\n      tag_34\n      jumpi\n      mload(0x40)\n      0x08c379a000000000000000000000000000000000000000000000000000000000\n      dup2\n      mstore\n      0x04\n      add\n      tag_35\n      swap1\n      tag_36\n      jump\t// in\n    tag_35:\n      mload(0x40)\n      dup1\n      swap2\n      sub\n      swap1\n      revert\n    tag_34:\n        /* \"DocumentRegistry.sol\":733:898  Document({... */\n      mload(0x40)\n      dup1\n      0x80\n      add\n      0x40\n      mstore\n      dup1\n        /* \"DocumentRegistry.sol\":763:771  _docHash */\n      dup4\n        /* \"DocumentRegistry.sol\":733:898  Document({... */\n      dup2\n      mstore\n      0x20\n      add\n        /* \"DocumentRegistry.sol\":797:812  block.timestamp */\n      timestamp\n        /* \"DocumentRegistry.sol\":733:898  Document({... */\n      dup2\n      mstore\n      0x20\n      add\n        /* \"DocumentRegistry.sol\":834:844  msg.sender */\n      caller\n        /* \"DocumentRegistry.sol\":733:898  Document({... */\n      0xffffffffffffffffffffffffffffffffffffffff\n      and\n      dup2\n      mstore\n      0x20\n      add\n        /* \"DocumentRegistry.sol\":873:886  _documentType */\n      dup3\n        /* \"DocumentRegistry.sol\":733:898  Document({... */\n      dup2\n      mstore\n      pop\n        /* \"DocumentRegistry.sol\":711:720  documents */\n      0x00\n        /* \"DocumentRegistry.sol\":711:730  documents[_docHash] */\n      dup1\n        /* \"DocumentRegistry.sol\":721:729  _docHash */\n      dup5\n        /* \"DocumentRegistry.sol\":711:730  documents[_docHash] */\n      dup2\n      mstore\n      0x20\n      add\n      swap1\n      dup2\n      mstore\n      0x20\n      add\n      0x00\n      keccak256\n        /* \"DocumentRegistry.sol\":711:898  documents[_docHash] = Document({... */\n      0x00\n      dup3\n      add\n      mload\n      dup2\n      0x00\n      add\n      sstore\n      0x20\n      dup3\n      add\n      mload\n      dup2\n      0x01\n      add\n      sstore\n      0x40\n      dup3\n      add\n      mload\n      dup2\n      0x02\n      add\n      exp(0x0100, 0x00)\n      dup2\n      sload\n      dup2\n      0xffffffffffffffffffffffffffffffffffffffff\n      mul\n      not\n      and\n      swap1\n      dup4\n      0xffffffffffffffffffffffffffffffffffffffff\n      and\n      mul\n      or\n      swap1\n      sstore\n      pop\n      0x60\n      dup3\n      add\n      mload\n      dup2\n      0x03\n      add\n      swap1\n      dup2\n      tag_37\n      swap2\n      swap1\n      tag_38\n      jump\t// in\n    tag_37:\n      pop\n      swap1\n      pop\n      pop\n        /* \"DocumentRegistry.sol\":919:932  userDocuments */\n      0x01\n        /* \"DocumentRegistry.sol\":919:944  userDocuments[msg.sender] */\n      0x00\n        /* \"DocumentRegistry.sol\":933:943  msg.sender */\n      caller\n        /* \"DocumentRegistry.sol\":919:944  userDocuments[msg.sender] */\n      0xffffffffffffffffffffffffffffffffffffffff\n      and\n      0xffffffffffffffffffffffffffffffffffffffff\n      and\n      dup2\n      mstore\n      0x20\n      add\n      swap1\n      dup2\n      mstore\n      0x20\n      add\n      0x00\n      keccak256\n        /* \"DocumentRegistry.sol\":950:958  _docHash */\n      dup3\n        /* \"DocumentRegistry.sol\":919:959  userDocuments[msg.sender].push(_docHash) */\n      swap1\n      dup1\n      0x01\n      dup2\n      sload\n      add\n      dup1\n      dup3\n      sstore\n      dup1\n      swap2\n      pop\n      pop\n      0x01\n      swap1\n      sub\n      swap1\n      0x00\n      mstore\n      keccak256(0x00, 0x20)\n      add\n      0x00\n      swap1\n      swap2\n      swap1\n      swap2\n      swap1\n      swap2\n      pop\n      sstore\n        /* \"DocumentRegistry.sol\":1004:1014  msg.sender */\n      caller\n        /* \"DocumentRegistry.sol\":975:1032  DocumentRegistered(_docHash, msg.sender, block.timestamp) */\n      0xffffffffffffffffffffffffffffffffffffffff\n      and\n        /* \"DocumentRegistry.sol\":994:1002  _docHash */\n      dup3\n        /* \"DocumentRegistry.sol\":975:1032  DocumentRegistered(_docHash, msg.sender, block.timestamp) */\n      0x6569e54c43a697fc61e67763858d5abef16899d2b13215c7c07090aa878b24a8\n        /* \"DocumentRegistry.sol\":1016:1031  block.timestamp */\n      timestamp\n        /* \"DocumentRegistry.sol\":975:1032  DocumentRegistered(_docHash, msg.sender, block.timestamp) */\n      mload(0x40)\n      tag_40\n      swap2\n      swap1\n      tag_41\n      jump\t// in\n    tag_40:\n      mload(0x40)\n      dup1\n      swap2\n      sub\n      swap1\n      log3\n        /* \"DocumentRegistry.sol\":523:1040  function registerDocument(bytes32 _docHash, string memory _documentType) external {... */\n      pop\n      pop\n      jump\t// out\n        /* \"DocumentRegistry.sol\":1084:1420  function verifyDocument(bytes32 _docHash) external view returns (... */\n    tag_24:\n        /* \"DocumentRegistry.sol\":1155:1166  bool exists */\n      0x00\n        /* \"DocumentRegistry.sol\":1174:1191  uint256 timestamp */\n      dup1\n        /* \"DocumentRegistry.sol\":1199:1212  address owner */\n      0x00\n        /* \"DocumentRegistry.sol\":1220:1241  string memory docType */\n      0x60\n        /* \"DocumentRegistry.sol\":1252:1271  Document memory doc */\n      0x00\n        /* \"DocumentRegistry.sol\":1274:1283  documents */\n      dup1\n        /* \"DocumentRegistry.sol\":1274:1293  documents[_docHash] */\n      0x00\n        /* \"DocumentRegistry.sol\":1284:1292  _docHash */\n      dup8\n        /* \"DocumentRegistry.sol\":1274:1293  documents[_docHash] */\n      dup2\n      mstore\n      0x20\n      add\n      swap1\n      dup2\n      mstore\n      0x20\n      add\n      0x00\n      keccak256\n        /* \"DocumentRegistry.sol\":1252:1293  Document memory doc = documents[_docHash] */\n      mload(0x40)\n      dup1\n      0x80\n      add\n      0x40\n      mstore\n      swap1\n      dup2\n      0x00\n      dup3\n      add\n      sload\n      dup2\n      mstore\n      0x20\n      add\n      0x01\n      dup3\n      add\n      sload\n      dup2\n      mstore\n      0x20\n      add\n      0x02\n      dup3\n      add\n      0x00\n      swap1\n      sload\n      swap1\n      0x0100\n      exp\n      swap1\n      div\n      0xffffffffffffffffffffffffffffffffffffffff\n      and\n      0xffffffffffffffffffffffffffffffffffffffff\n      and\n      0xffffffffffffffffffffffffffffffffffffffff\n      and\n      dup2\n      mstore\n      0x20\n      add\n      0x03\n      dup3\n      add\n      dup1\n      sload\n      tag_43\n      swap1\n      tag_44\n      jump\t// in\n    tag_43:\n      dup1\n      0x1f\n      add\n      0x20\n      dup1\n      swap2\n      div\n      mul\n      0x20\n      add\n      mload(0x40)\n      swap1\n      dup2\n      add\n      0x40\n      mstore\n      dup1\n      swap3\n      swap2\n      swap1\n      dup2\n      dup2\n      mstore\n      0x20\n      add\n      dup3\n      dup1\n      sload\n      tag_45\n      swap1\n      tag_44\n      jump\t// in\n    tag_45:\n      dup1\n      iszero\n      tag_46\n      jumpi\n      dup1\n      0x1f\n      lt\n      tag_47\n      jumpi\n      0x0100\n      dup1\n      dup4\n      sload\n      div\n      mul\n      dup4\n      mstore\n      swap2\n      0x20\n      add\n      swap2\n      jump(tag_46)\n    tag_47:\n      dup3\n      add\n      swap2\n      swap1\n      0x00\n      mstore\n      keccak256(0x00, 0x20)\n      swap1\n    tag_48:\n      dup2\n      sload\n      dup2\n      mstore\n      swap1\n      0x01\n      add\n      swap1\n      0x20\n      add\n      dup1\n      dup4\n      gt\n      tag_48\n      jumpi\n      dup3\n      swap1\n      sub\n      0x1f\n      and\n      dup3\n      add\n      swap2\n    tag_46:\n      pop\n      pop\n      pop\n      pop\n      pop\n      dup2\n      mstore\n      pop\n      pop\n      swap1\n      pop\n        /* \"DocumentRegistry.sol\":1326:1327  0 */\n      0x00\n        /* \"DocumentRegistry.sol\":1309:1312  doc */\n      dup2\n        /* \"DocumentRegistry.sol\":1309:1322  doc.timestamp */\n      0x20\n      add\n      mload\n        /* \"DocumentRegistry.sol\":1309:1327  doc.timestamp != 0 */\n      eq\n      iszero\n        /* \"DocumentRegistry.sol\":1300:1327  exists = doc.timestamp != 0 */\n      swap5\n      pop\n        /* \"DocumentRegistry.sol\":1346:1349  doc */\n      dup1\n        /* \"DocumentRegistry.sol\":1346:1359  doc.timestamp */\n      0x20\n      add\n      mload\n        /* \"DocumentRegistry.sol\":1334:1359  timestamp = doc.timestamp */\n      swap4\n      pop\n        /* \"DocumentRegistry.sol\":1374:1377  doc */\n      dup1\n        /* \"DocumentRegistry.sol\":1374:1383  doc.owner */\n      0x40\n      add\n      mload\n        /* \"DocumentRegistry.sol\":1366:1383  owner = doc.owner */\n      swap3\n      pop\n        /* \"DocumentRegistry.sol\":1400:1403  doc */\n      dup1\n        /* \"DocumentRegistry.sol\":1400:1416  doc.documentType */\n      0x60\n      add\n      mload\n        /* \"DocumentRegistry.sol\":1390:1416  docType = doc.documentType */\n      swap2\n      pop\n        /* \"DocumentRegistry.sol\":1245:1420  {... */\n      pop\n        /* \"DocumentRegistry.sol\":1084:1420  function verifyDocument(bytes32 _docHash) external view returns (... */\n      swap2\n      swap4\n      pop\n      swap2\n      swap4\n      jump\t// out\n        /* \"#utility.yul\":7:82   */\n    tag_49:\n        /* \"#utility.yul\":40:46   */\n      0x00\n        /* \"#utility.yul\":73:75   */\n      0x40\n        /* \"#utility.yul\":67:76   */\n      mload\n        /* \"#utility.yul\":57:76   */\n      swap1\n      pop\n        /* \"#utility.yul\":7:82   */\n      swap1\n      jump\t// out\n        /* \"#utility.yul\":88:205   */\n    tag_50:\n        /* \"#utility.yul\":197:198   */\n      0x00\n        /* \"#utility.yul\":194:195   */\n      dup1\n        /* \"#utility.yul\":187:199   */\n      revert\n        /* \"#utility.yul\":211:328   */\n    tag_51:\n        /* \"#utility.yul\":320:321   */\n      0x00\n        /* \"#utility.yul\":317:318   */\n      dup1\n        /* \"#utility.yul\":310:322   */\n      revert\n        /* \"#utility.yul\":334:451   */\n    tag_52:\n        /* \"#utility.yul\":443:444   */\n      0x00\n        /* \"#utility.yul\":440:441   */\n      dup1\n        /* \"#utility.yul\":433:445   */\n      revert\n        /* \"#utility.yul\":457:574   */\n    tag_53:\n        /* \"#utility.yul\":566:567   */\n      0x00\n        /* \"#utility.yul\":563:564   */\n      dup1\n        /* \"#utility.yul\":556:568   */\n      revert\n        /* \"#utility.yul\":580:682   */\n    tag_54:\n        /* \"#utility.yul\":621:627   */\n      0x00\n        /* \"#utility.yul\":672:674   */\n      0x1f\n        /* \"#utility.yul\":668:675   */\n      not\n        /* \"#utility.yul\":663:665   */\n      0x1f\n        /* \"#utility.yul\":656:661   */\n      dup4\n        /* \"#utility.yul\":652:666   */\n      add\n        /* \"#utility.yul\":648:676   */\n      and\n        /* \"#utility.yul\":638:676   */\n      swap1\n      pop\n        /* \"#utility.yul\":580:682   */\n      swap2\n      swap1\n      pop\n      jump\t// out\n        /* \"#utility.yul\":688:868   */\n    tag_55:\n        /* \"#utility.yul\":736:813   */\n      0x4e487b7100000000000000000000000000000000000000000000000000000000\n        /* \"#utility.yul\":733:734   */\n      0x00\n        /* \"#utility.yul\":726:814   */\n      mstore\n        /* \"#utility.yul\":833:837   */\n      0x41\n        /* \"#utility.yul\":830:831   */\n      0x04\n        /* \"#utility.yul\":823:838   */\n      mstore\n        /* \"#utility.yul\":857:861   */\n      0x24\n        /* \"#utility.yul\":854:855   */\n      0x00\n        /* \"#utility.yul\":847:862   */\n      revert\n        /* \"#utility.yul\":874:1155   */\n    tag_56:\n        /* \"#utility.yul\":957:984   */\n      tag_113\n        /* \"#utility.yul\":979:983   */\n      dup3\n        /* \"#utility.yul\":957:984   */\n      tag_54\n      jump\t// in\n    tag_113:\n        /* \"#utility.yul\":949:955   */\n      dup2\n        /* \"#utility.yul\":945:985   */\n      add\n        /* \"#utility.yul\":1087:1093   */\n      dup2\n        /* \"#utility.yul\":1075:1085   */\n      dup2\n        /* \"#utility.yul\":1072:1094   */\n      lt\n        /* \"#utility.yul\":1051:1069   */\n      0xffffffffffffffff\n        /* \"#utility.yul\":1039:1049   */\n      dup3\n        /* \"#utility.yul\":1036:1070   */\n      gt\n        /* \"#utility.yul\":1033:1095   */\n      or\n        /* \"#utility.yul\":1030:1118   */\n      iszero\n      tag_114\n      jumpi\n        /* \"#utility.yul\":1098:1116   */\n      tag_115\n      tag_55\n      jump\t// in\n    tag_115:\n        /* \"#utility.yul\":1030:1118   */\n    tag_114:\n        /* \"#utility.yul\":1138:1148   */\n      dup1\n        /* \"#utility.yul\":1134:1136   */\n      0x40\n        /* \"#utility.yul\":1127:1149   */\n      mstore\n        /* \"#utility.yul\":917:1155   */\n      pop\n        /* \"#utility.yul\":874:1155   */\n      pop\n      pop\n      jump\t// out\n        /* \"#utility.yul\":1161:1290   */\n    tag_57:\n        /* \"#utility.yul\":1195:1201   */\n      0x00\n        /* \"#utility.yul\":1222:1242   */\n      tag_117\n      tag_49\n      jump\t// in\n    tag_117:\n        /* \"#utility.yul\":1212:1242   */\n      swap1\n      pop\n        /* \"#utility.yul\":1251:1284   */\n      tag_118\n        /* \"#utility.yul\":1279:1283   */\n      dup3\n        /* \"#utility.yul\":1271:1277   */\n      dup3\n        /* \"#utility.yul\":1251:1284   */\n      tag_56\n      jump\t// in\n    tag_118:\n        /* \"#utility.yul\":1161:1290   */\n      swap2\n      swap1\n      pop\n      jump\t// out\n        /* \"#utility.yul\":1296:1604   */\n    tag_58:\n        /* \"#utility.yul\":1358:1362   */\n      0x00\n        /* \"#utility.yul\":1448:1466   */\n      0xffffffffffffffff\n        /* \"#utility.yul\":1440:1446   */\n      dup3\n        /* \"#utility.yul\":1437:1467   */\n      gt\n        /* \"#utility.yul\":1434:1490   */\n      iszero\n      tag_120\n      jumpi\n        /* \"#utility.yul\":1470:1488   */\n      tag_121\n      tag_55\n      jump\t// in\n    tag_121:\n        /* \"#utility.yul\":1434:1490   */\n    tag_120:\n        /* \"#utility.yul\":1508:1537   */\n      tag_122\n        /* \"#utility.yul\":1530:1536   */\n      dup3\n        /* \"#utility.yul\":1508:1537   */\n      tag_54\n      jump\t// in\n    tag_122:\n        /* \"#utility.yul\":1500:1537   */\n      swap1\n      pop\n        /* \"#utility.yul\":1592:1596   */\n      0x20\n        /* \"#utility.yul\":1586:1590   */\n      dup2\n        /* \"#utility.yul\":1582:1597   */\n      add\n        /* \"#utility.yul\":1574:1597   */\n      swap1\n      pop\n        /* \"#utility.yul\":1296:1604   */\n      swap2\n      swap1\n      pop\n      jump\t// out\n        /* \"#utility.yul\":1610:1758   */\n    tag_59:\n        /* \"#utility.yul\":1708:1714   */\n      dup3\n        /* \"#utility.yul\":1703:1706   */\n      dup2\n        /* \"#utility.yul\":1698:1701   */\n      dup4\n        /* \"#utility.yul\":1685:1715   */\n      calldatacopy\n        /* \"#utility.yul\":1749:1750   */\n      0x00\n        /* \"#utility.yul\":1740:1746   */\n      dup4\n        /* \"#utility.yul\":1735:1738   */\n      dup4\n        /* \"#utility.yul\":1731:1747   */\n      add\n        /* \"#utility.yul\":1724:1751   */\n      mstore\n        /* \"#utility.yul\":1610:1758   */\n      pop\n      pop\n      pop\n      jump\t// out\n        /* \"#utility.yul\":1764:2189   */\n    tag_60:\n        /* \"#utility.yul\":1842:1847   */\n      0x00\n        /* \"#utility.yul\":1867:1933   */\n      tag_125\n        /* \"#utility.yul\":1883:1932   */\n      tag_126\n        /* \"#utility.yul\":1925:1931   */\n      dup5\n        /* \"#utility.yul\":1883:1932   */\n      tag_58\n      jump\t// in\n    tag_126:\n        /* \"#utility.yul\":1867:1933   */\n      tag_57\n      jump\t// in\n    tag_125:\n        /* \"#utility.yul\":1858:1933   */\n      swap1\n      pop\n        /* \"#utility.yul\":1956:1962   */\n      dup3\n        /* \"#utility.yul\":1949:1954   */\n      dup2\n        /* \"#utility.yul\":1942:1963   */\n      mstore\n        /* \"#utility.yul\":1994:1998   */\n      0x20\n        /* \"#utility.yul\":1987:1992   */\n      dup2\n        /* \"#utility.yul\":1983:1999   */\n      add\n        /* \"#utility.yul\":2032:2035   */\n      dup5\n        /* \"#utility.yul\":2023:2029   */\n      dup5\n        /* \"#utility.yul\":2018:2021   */\n      dup5\n        /* \"#utility.yul\":2014:2030   */\n      add\n        /* \"#utility.yul\":2011:2036   */\n      gt\n        /* \"#utility.yul\":2008:2120   */\n      iszero\n      tag_127\n      jumpi\n        /* \"#utility.yul\":2039:2118   */\n      tag_128\n      tag_53\n      jump\t// in\n    tag_128:\n        /* \"#utility.yul\":2008:2120   */\n    tag_127:\n        /* \"#utility.yul\":2129:2183   */\n      tag_129\n        /* \"#utility.yul\":2176:2182   */\n      dup5\n        /* \"#utility.yul\":2171:2174   */\n      dup3\n        /* \"#utility.yul\":2166:2169   */\n      dup6\n        /* \"#utility.yul\":2129:2183   */\n      tag_59\n      jump\t// in\n    tag_129:\n        /* \"#utility.yul\":1848:2189   */\n      pop\n        /* \"#utility.yul\":1764:2189   */\n      swap4\n      swap3\n      pop\n      pop\n      pop\n      jump\t// out\n        /* \"#utility.yul\":2209:2549   */\n    tag_61:\n        /* \"#utility.yul\":2265:2270   */\n      0x00\n        /* \"#utility.yul\":2314:2317   */\n      dup3\n        /* \"#utility.yul\":2307:2311   */\n      0x1f\n        /* \"#utility.yul\":2299:2305   */\n      dup4\n        /* \"#utility.yul\":2295:2312   */\n      add\n        /* \"#utility.yul\":2291:2318   */\n      slt\n        /* \"#utility.yul\":2281:2403   */\n      tag_131\n      jumpi\n        /* \"#utility.yul\":2322:2401   */\n      tag_132\n      tag_52\n      jump\t// in\n    tag_132:\n        /* \"#utility.yul\":2281:2403   */\n    tag_131:\n        /* \"#utility.yul\":2439:2445   */\n      dup2\n        /* \"#utility.yul\":2426:2446   */\n      calldataload\n        /* \"#utility.yul\":2464:2543   */\n      tag_133\n        /* \"#utility.yul\":2539:2542   */\n      dup5\n        /* \"#utility.yul\":2531:2537   */\n      dup3\n        /* \"#utility.yul\":2524:2528   */\n      0x20\n        /* \"#utility.yul\":2516:2522   */\n      dup7\n        /* \"#utility.yul\":2512:2529   */\n      add\n        /* \"#utility.yul\":2464:2543   */\n      tag_60\n      jump\t// in\n    tag_133:\n        /* \"#utility.yul\":2455:2543   */\n      swap2\n      pop\n        /* \"#utility.yul\":2271:2549   */\n      pop\n        /* \"#utility.yul\":2209:2549   */\n      swap3\n      swap2\n      pop\n      pop\n      jump\t// out\n        /* \"#utility.yul\":2555:3064   */\n    tag_9:\n        /* \"#utility.yul\":2624:2630   */\n      0x00\n        /* \"#utility.yul\":2673:2675   */\n      0x20\n        /* \"#utility.yul\":2661:2670   */\n      dup3\n        /* \"#utility.yul\":2652:2659   */\n      dup5\n        /* \"#utility.yul\":2648:2671   */\n      sub\n        /* \"#utility.yul\":2644:2676   */\n      slt\n        /* \"#utility.yul\":2641:2760   */\n      iszero\n      tag_135\n      jumpi\n        /* \"#utility.yul\":2679:2758   */\n      tag_136\n      tag_50\n      jump\t// in\n    tag_136:\n        /* \"#utility.yul\":2641:2760   */\n    tag_135:\n        /* \"#utility.yul\":2827:2828   */\n      0x00\n        /* \"#utility.yul\":2816:2825   */\n      dup3\n        /* \"#utility.yul\":2812:2829   */\n      add\n        /* \"#utility.yul\":2799:2830   */\n      calldataload\n        /* \"#utility.yul\":2857:2875   */\n      0xffffffffffffffff\n        /* \"#utility.yul\":2849:2855   */\n      dup2\n        /* \"#utility.yul\":2846:2876   */\n      gt\n        /* \"#utility.yul\":2843:2960   */\n      iszero\n      tag_137\n      jumpi\n        /* \"#utility.yul\":2879:2958   */\n      tag_138\n      tag_51\n      jump\t// in\n    tag_138:\n        /* \"#utility.yul\":2843:2960   */\n    tag_137:\n        /* \"#utility.yul\":2984:3047   */\n      tag_139\n        /* \"#utility.yul\":3039:3046   */\n      dup5\n        /* \"#utility.yul\":3030:3036   */\n      dup3\n        /* \"#utility.yul\":3019:3028   */\n      dup6\n        /* \"#utility.yul\":3015:3037   */\n      add\n        /* \"#utility.yul\":2984:3047   */\n      tag_61\n      jump\t// in\n    tag_139:\n        /* \"#utility.yul\":2974:3047   */\n      swap2\n      pop\n        /* \"#utility.yul\":2770:3057   */\n      pop\n        /* \"#utility.yul\":2555:3064   */\n      swap3\n      swap2\n      pop\n      pop\n      jump\t// out\n        /* \"#utility.yul\":3070:3147   */\n    tag_62:\n        /* \"#utility.yul\":3107:3114   */\n      0x00\n        /* \"#utility.yul\":3136:3141   */\n      dup2\n        /* \"#utility.yul\":3125:3141   */\n      swap1\n      pop\n        /* \"#utility.yul\":3070:3147   */\n      swap2\n      swap1\n      pop\n      jump\t// out\n        /* \"#utility.yul\":3153:3271   */\n    tag_63:\n        /* \"#utility.yul\":3240:3264   */\n      tag_142\n        /* \"#utility.yul\":3258:3263   */\n      dup2\n        /* \"#utility.yul\":3240:3264   */\n      tag_62\n      jump\t// in\n    tag_142:\n        /* \"#utility.yul\":3235:3238   */\n      dup3\n        /* \"#utility.yul\":3228:3265   */\n      mstore\n        /* \"#utility.yul\":3153:3271   */\n      pop\n      pop\n      jump\t// out\n        /* \"#utility.yul\":3277:3499   */\n    tag_12:\n        /* \"#utility.yul\":3370:3374   */\n      0x00\n        /* \"#utility.yul\":3408:3410   */\n      0x20\n        /* \"#utility.yul\":3397:3406   */\n      dup3\n        /* \"#utility.yul\":3393:3411   */\n      add\n        /* \"#utility.yul\":3385:3411   */\n      swap1\n      pop\n        /* \"#utility.yul\":3421:3492   */\n      tag_144\n        /* \"#utility.yul\":3489:3490   */\n      0x00\n        /* \"#utility.yul\":3478:3487   */\n      dup4\n        /* \"#utility.yul\":3474:3491   */\n      add\n        /* \"#utility.yul\":3465:3471   */\n      dup5\n        /* \"#utility.yul\":3421:3492   */\n      tag_63\n      jump\t// in\n    tag_144:\n        /* \"#utility.yul\":3277:3499   */\n      swap3\n      swap2\n      pop\n      pop\n      jump\t// out\n        /* \"#utility.yul\":3505:3619   */\n    tag_64:\n        /* \"#utility.yul\":3572:3578   */\n      0x00\n        /* \"#utility.yul\":3606:3611   */\n      dup2\n        /* \"#utility.yul\":3600:3612   */\n      mload\n        /* \"#utility.yul\":3590:3612   */\n      swap1\n      pop\n        /* \"#utility.yul\":3505:3619   */\n      swap2\n      swap1\n      pop\n      jump\t// out\n        /* \"#utility.yul\":3625:3809   */\n    tag_65:\n        /* \"#utility.yul\":3724:3735   */\n      0x00\n        /* \"#utility.yul\":3758:3764   */\n      dup3\n        /* \"#utility.yul\":3753:3756   */\n      dup3\n        /* \"#utility.yul\":3746:3765   */\n      mstore\n        /* \"#utility.yul\":3798:3802   */\n      0x20\n        /* \"#utility.yul\":3793:3796   */\n      dup3\n        /* \"#utility.yul\":3789:3803   */\n      add\n        /* \"#utility.yul\":3774:3803   */\n      swap1\n      pop\n        /* \"#utility.yul\":3625:3809   */\n      swap3\n      swap2\n      pop\n      pop\n      jump\t// out\n        /* \"#utility.yul\":3815:3947   */\n    tag_66:\n        /* \"#utility.yul\":3882:3886   */\n      0x00\n        /* \"#utility.yul\":3905:3908   */\n      dup2\n        /* \"#utility.yul\":3897:3908   */\n      swap1\n      pop\n        /* \"#utility.yul\":3935:3939   */\n      0x20\n        /* \"#utility.yul\":3930:3933   */\n      dup3\n        /* \"#utility.yul\":3926:3940   */\n      add\n        /* \"#utility.yul\":3918:3940   */\n      swap1\n      pop\n        /* \"#utility.yul\":3815:3947   */\n      swap2\n      swap1\n      pop\n      jump\t// out\n        /* \"#utility.yul\":3953:4061   */\n    tag_67:\n        /* \"#utility.yul\":4030:4054   */\n      tag_149\n        /* \"#utility.yul\":4048:4053   */\n      dup2\n        /* \"#utility.yul\":4030:4054   */\n      tag_62\n      jump\t// in\n    tag_149:\n        /* \"#utility.yul\":4025:4028   */\n      dup3\n        /* \"#utility.yul\":4018:4055   */\n      mstore\n        /* \"#utility.yul\":3953:4061   */\n      pop\n      pop\n      jump\t// out\n        /* \"#utility.yul\":4067:4246   */\n    tag_68:\n        /* \"#utility.yul\":4136:4146   */\n      0x00\n        /* \"#utility.yul\":4157:4203   */\n      tag_151\n        /* \"#utility.yul\":4199:4202   */\n      dup4\n        /* \"#utility.yul\":4191:4197   */\n      dup4\n        /* \"#utility.yul\":4157:4203   */\n      tag_67\n      jump\t// in\n    tag_151:\n        /* \"#utility.yul\":4235:4239   */\n      0x20\n        /* \"#utility.yul\":4230:4233   */\n      dup4\n        /* \"#utility.yul\":4226:4240   */\n      add\n        /* \"#utility.yul\":4212:4240   */\n      swap1\n      pop\n        /* \"#utility.yul\":4067:4246   */\n      swap3\n      swap2\n      pop\n      pop\n      jump\t// out\n        /* \"#utility.yul\":4252:4365   */\n    tag_69:\n        /* \"#utility.yul\":4322:4326   */\n      0x00\n        /* \"#utility.yul\":4354:4358   */\n      0x20\n        /* \"#utility.yul\":4349:4352   */\n      dup3\n        /* \"#utility.yul\":4345:4359   */\n      add\n        /* \"#utility.yul\":4337:4359   */\n      swap1\n      pop\n        /* \"#utility.yul\":4252:4365   */\n      swap2\n      swap1\n      pop\n      jump\t// out\n        /* \"#utility.yul\":4401:5133   */\n    tag_70:\n        /* \"#utility.yul\":4520:4523   */\n      0x00\n        /* \"#utility.yul\":4549:4603   */\n      tag_154\n        /* \"#utility.yul\":4597:4602   */\n      dup3\n        /* \"#utility.yul\":4549:4603   */\n      tag_64\n      jump\t// in\n    tag_154:\n        /* \"#utility.yul\":4619:4705   */\n      tag_155\n        /* \"#utility.yul\":4698:4704   */\n      dup2\n        /* \"#utility.yul\":4693:4696   */\n      dup6\n        /* \"#utility.yul\":4619:4705   */\n      tag_65\n      jump\t// in\n    tag_155:\n        /* \"#utility.yul\":4612:4705   */\n      swap4\n      pop\n        /* \"#utility.yul\":4729:4785   */\n      tag_156\n        /* \"#utility.yul\":4779:4784   */\n      dup4\n        /* \"#utility.yul\":4729:4785   */\n      tag_66\n      jump\t// in\n    tag_156:\n        /* \"#utility.yul\":4808:4815   */\n      dup1\n        /* \"#utility.yul\":4839:4840   */\n      0x00\n        /* \"#utility.yul\":4824:5108   */\n    tag_157:\n        /* \"#utility.yul\":4849:4855   */\n      dup4\n        /* \"#utility.yul\":4846:4847   */\n      dup2\n        /* \"#utility.yul\":4843:4856   */\n      lt\n        /* \"#utility.yul\":4824:5108   */\n      iszero\n      tag_159\n      jumpi\n        /* \"#utility.yul\":4925:4931   */\n      dup2\n        /* \"#utility.yul\":4919:4932   */\n      mload\n        /* \"#utility.yul\":4952:5015   */\n      tag_160\n        /* \"#utility.yul\":5011:5014   */\n      dup9\n        /* \"#utility.yul\":4996:5009   */\n      dup3\n        /* \"#utility.yul\":4952:5015   */\n      tag_68\n      jump\t// in\n    tag_160:\n        /* \"#utility.yul\":4945:5015   */\n      swap8\n      pop\n        /* \"#utility.yul\":5038:5098   */\n      tag_161\n        /* \"#utility.yul\":5091:5097   */\n      dup4\n        /* \"#utility.yul\":5038:5098   */\n      tag_69\n      jump\t// in\n    tag_161:\n        /* \"#utility.yul\":5028:5098   */\n      swap3\n      pop\n        /* \"#utility.yul\":4884:5108   */\n      pop\n        /* \"#utility.yul\":4871:4872   */\n      0x01\n        /* \"#utility.yul\":4868:4869   */\n      dup2\n        /* \"#utility.yul\":4864:4873   */\n      add\n        /* \"#utility.yul\":4859:4873   */\n      swap1\n      pop\n        /* \"#utility.yul\":4824:5108   */\n      jump(tag_157)\n    tag_159:\n        /* \"#utility.yul\":4828:4842   */\n      pop\n        /* \"#utility.yul\":5124:5127   */\n      dup6\n        /* \"#utility.yul\":5117:5127   */\n      swap4\n      pop\n        /* \"#utility.yul\":4525:5133   */\n      pop\n      pop\n      pop\n        /* \"#utility.yul\":4401:5133   */\n      swap3\n      swap2\n      pop\n      pop\n      jump\t// out\n        /* \"#utility.yul\":5139:5512   */\n    tag_16:\n        /* \"#utility.yul\":5282:5286   */\n      0x00\n        /* \"#utility.yul\":5320:5322   */\n      0x20\n        /* \"#utility.yul\":5309:5318   */\n      dup3\n        /* \"#utility.yul\":5305:5323   */\n      add\n        /* \"#utility.yul\":5297:5323   */\n      swap1\n      pop\n        /* \"#utility.yul\":5369:5378   */\n      dup2\n        /* \"#utility.yul\":5363:5367   */\n      dup2\n        /* \"#utility.yul\":5359:5379   */\n      sub\n        /* \"#utility.yul\":5355:5356   */\n      0x00\n        /* \"#utility.yul\":5344:5353   */\n      dup4\n        /* \"#utility.yul\":5340:5357   */\n      add\n        /* \"#utility.yul\":5333:5380   */\n      mstore\n        /* \"#utility.yul\":5397:5505   */\n      tag_163\n        /* \"#utility.yul\":5500:5504   */\n      dup2\n        /* \"#utility.yul\":5491:5497   */\n      dup5\n        /* \"#utility.yul\":5397:5505   */\n      tag_70\n      jump\t// in\n    tag_163:\n        /* \"#utility.yul\":5389:5505   */\n      swap1\n      pop\n        /* \"#utility.yul\":5139:5512   */\n      swap3\n      swap2\n      pop\n      pop\n      jump\t// out\n        /* \"#utility.yul\":5518:5640   */\n    tag_71:\n        /* \"#utility.yul\":5591:5615   */\n      tag_165\n        /* \"#utility.yul\":5609:5614   */\n      dup2\n        /* \"#utility.yul\":5591:5615   */\n      tag_62\n      jump\t// in\n    tag_165:\n        /* \"#utility.yul\":5584:5589   */\n      dup2\n        /* \"#utility.yul\":5581:5616   */\n      eq\n        /* \"#utility.yul\":5571:5634   */\n      tag_166\n      jumpi\n        /* \"#utility.yul\":5630:5631   */\n      0x00\n        /* \"#utility.yul\":5627:5628   */\n      dup1\n        /* \"#utility.yul\":5620:5632   */\n      revert\n        /* \"#utility.yul\":5571:5634   */\n    tag_166:\n        /* \"#utility.yul\":5518:5640   */\n      pop\n      jump\t// out\n        /* \"#utility.yul\":5646:5785   */\n    tag_72:\n        /* \"#utility.yul\":5692:5697   */\n      0x00\n        /* \"#utility.yul\":5730:5736   */\n      dup2\n        /* \"#utility.yul\":5717:5737   */\n      calldataload\n        /* \"#utility.yul\":5708:5737   */\n      swap1\n      pop\n        /* \"#utility.yul\":5746:5779   */\n      tag_168\n        /* \"#utility.yul\":5773:5778   */\n      dup2\n        /* \"#utility.yul\":5746:5779   */\n      tag_71\n      jump\t// in\n    tag_168:\n        /* \"#utility.yul\":5646:5785   */\n      swap3\n      swap2\n      pop\n      pop\n      jump\t// out\n        /* \"#utility.yul\":5791:6445   */\n    tag_19:\n        /* \"#utility.yul\":5869:5875   */\n      0x00\n        /* \"#utility.yul\":5877:5883   */\n      dup1\n        /* \"#utility.yul\":5926:5928   */\n      0x40\n        /* \"#utility.yul\":5914:5923   */\n      dup4\n        /* \"#utility.yul\":5905:5912   */\n      dup6\n        /* \"#utility.yul\":5901:5924   */\n      sub\n        /* \"#utility.yul\":5897:5929   */\n      slt\n        /* \"#utility.yul\":5894:6013   */\n      iszero\n      tag_170\n      jumpi\n        /* \"#utility.yul\":5932:6011   */\n      tag_171\n      tag_50\n      jump\t// in\n    tag_171:\n        /* \"#utility.yul\":5894:6013   */\n    tag_170:\n        /* \"#utility.yul\":6052:6053   */\n      0x00\n        /* \"#utility.yul\":6077:6130   */\n      tag_172\n        /* \"#utility.yul\":6122:6129   */\n      dup6\n        /* \"#utility.yul\":6113:6119   */\n      dup3\n        /* \"#utility.yul\":6102:6111   */\n      dup7\n        /* \"#utility.yul\":6098:6120   */\n      add\n        /* \"#utility.yul\":6077:6130   */\n      tag_72\n      jump\t// in\n    tag_172:\n        /* \"#utility.yul\":6067:6130   */\n      swap3\n      pop\n        /* \"#utility.yul\":6023:6140   */\n      pop\n        /* \"#utility.yul\":6207:6209   */\n      0x20\n        /* \"#utility.yul\":6196:6205   */\n      dup4\n        /* \"#utility.yul\":6192:6210   */\n      add\n        /* \"#utility.yul\":6179:6211   */\n      calldataload\n        /* \"#utility.yul\":6238:6256   */\n      0xffffffffffffffff\n        /* \"#utility.yul\":6230:6236   */\n      dup2\n        /* \"#utility.yul\":6227:6257   */\n      gt\n        /* \"#utility.yul\":6224:6341   */\n      iszero\n      tag_173\n      jumpi\n        /* \"#utility.yul\":6260:6339   */\n      tag_174\n      tag_51\n      jump\t// in\n    tag_174:\n        /* \"#utility.yul\":6224:6341   */\n    tag_173:\n        /* \"#utility.yul\":6365:6428   */\n      tag_175\n        /* \"#utility.yul\":6420:6427   */\n      dup6\n        /* \"#utility.yul\":6411:6417   */\n      dup3\n        /* \"#utility.yul\":6400:6409   */\n      dup7\n        /* \"#utility.yul\":6396:6418   */\n      add\n        /* \"#utility.yul\":6365:6428   */\n      tag_61\n      jump\t// in\n    tag_175:\n        /* \"#utility.yul\":6355:6428   */\n      swap2\n      pop\n        /* \"#utility.yul\":6150:6438   */\n      pop\n        /* \"#utility.yul\":5791:6445   */\n      swap3\n      pop\n      swap3\n      swap1\n      pop\n      jump\t// out\n        /* \"#utility.yul\":6451:6780   */\n    tag_23:\n        /* \"#utility.yul\":6510:6516   */\n      0x00\n        /* \"#utility.yul\":6559:6561   */\n      0x20\n        /* \"#utility.yul\":6547:6556   */\n      dup3\n        /* \"#utility.yul\":6538:6545   */\n      dup5\n        /* \"#utility.yul\":6534:6557   */\n      sub\n        /* \"#utility.yul\":6530:6562   */\n      slt\n        /* \"#utility.yul\":6527:6646   */\n      iszero\n      tag_177\n      jumpi\n        /* \"#utility.yul\":6565:6644   */\n      tag_178\n      tag_50\n      jump\t// in\n    tag_178:\n        /* \"#utility.yul\":6527:6646   */\n    tag_177:\n        /* \"#utility.yul\":6685:6686   */\n      0x00\n        /* \"#utility.yul\":6710:6763   */\n      tag_179\n        /* \"#utility.yul\":6755:6762   */\n      dup5\n        /* \"#utility.yul\":6746:6752   */\n      dup3\n        /* \"#utility.yul\":6735:6744   */\n      dup6\n        /* \"#utility.yul\":6731:6753   */\n      add\n        /* \"#utility.yul\":6710:6763   */\n      tag_72\n      jump\t// in\n    tag_179:\n        /* \"#utility.yul\":6700:6763   */\n      swap2\n      pop\n        /* \"#utility.yul\":6656:6773   */\n      pop\n        /* \"#utility.yul\":6451:6780   */\n      swap3\n      swap2\n      pop\n      pop\n      jump\t// out\n        /* \"#utility.yul\":6786:6876   */\n    tag_73:\n        /* \"#utility.yul\":6820:6827   */\n      0x00\n        /* \"#utility.yul\":6863:6868   */\n      dup2\n        /* \"#utility.yul\":6856:6869   */\n      iszero\n        /* \"#utility.yul\":6849:6870   */\n      iszero\n        /* \"#utility.yul\":6838:6870   */\n      swap1\n      pop\n        /* \"#utility.yul\":6786:6876   */\n      swap2\n      swap1\n      pop\n      jump\t// out\n        /* \"#utility.yul\":6882:6991   */\n    tag_74:\n        /* \"#utility.yul\":6963:6984   */\n      tag_182\n        /* \"#utility.yul\":6978:6983   */\n      dup2\n        /* \"#utility.yul\":6963:6984   */\n      tag_73\n      jump\t// in\n    tag_182:\n        /* \"#utility.yul\":6958:6961   */\n      dup3\n        /* \"#utility.yul\":6951:6985   */\n      mstore\n        /* \"#utility.yul\":6882:6991   */\n      pop\n      pop\n      jump\t// out\n        /* \"#utility.yul\":6997:7074   */\n    tag_75:\n        /* \"#utility.yul\":7034:7041   */\n      0x00\n        /* \"#utility.yul\":7063:7068   */\n      dup2\n        /* \"#utility.yul\":7052:7068   */\n      swap1\n      pop\n        /* \"#utility.yul\":6997:7074   */\n      swap2\n      swap1\n      pop\n      jump\t// out\n        /* \"#utility.yul\":7080:7198   */\n    tag_76:\n        /* \"#utility.yul\":7167:7191   */\n      tag_185\n        /* \"#utility.yul\":7185:7190   */\n      dup2\n        /* \"#utility.yul\":7167:7191   */\n      tag_75\n      jump\t// in\n    tag_185:\n        /* \"#utility.yul\":7162:7165   */\n      dup3\n        /* \"#utility.yul\":7155:7192   */\n      mstore\n        /* \"#utility.yul\":7080:7198   */\n      pop\n      pop\n      jump\t// out\n        /* \"#utility.yul\":7204:7330   */\n    tag_77:\n        /* \"#utility.yul\":7241:7248   */\n      0x00\n        /* \"#utility.yul\":7281:7323   */\n      0xffffffffffffffffffffffffffffffffffffffff\n        /* \"#utility.yul\":7274:7279   */\n      dup3\n        /* \"#utility.yul\":7270:7324   */\n      and\n        /* \"#utility.yul\":7259:7324   */\n      swap1\n      pop\n        /* \"#utility.yul\":7204:7330   */\n      swap2\n      swap1\n      pop\n      jump\t// out\n        /* \"#utility.yul\":7336:7432   */\n    tag_78:\n        /* \"#utility.yul\":7373:7380   */\n      0x00\n        /* \"#utility.yul\":7402:7426   */\n      tag_188\n        /* \"#utility.yul\":7420:7425   */\n      dup3\n        /* \"#utility.yul\":7402:7426   */\n      tag_77\n      jump\t// in\n    tag_188:\n        /* \"#utility.yul\":7391:7426   */\n      swap1\n      pop\n        /* \"#utility.yul\":7336:7432   */\n      swap2\n      swap1\n      pop\n      jump\t// out\n        /* \"#utility.yul\":7438:7556   */\n    tag_79:\n        /* \"#utility.yul\":7525:7549   */\n      tag_190\n        /* \"#utility.yul\":7543:7548   */\n      dup2\n        /* \"#utility.yul\":7525:7549   */\n      tag_78\n      jump\t// in\n    tag_190:\n        /* \"#utility.yul\":7520:7523   */\n      dup3\n        /* \"#utility.yul\":7513:7550   */\n      mstore\n        /* \"#utility.yul\":7438:7556   */\n      pop\n      pop\n      jump\t// out\n        /* \"#utility.yul\":7562:7661   */\n    tag_80:\n        /* \"#utility.yul\":7614:7620   */\n      0x00\n        /* \"#utility.yul\":7648:7653   */\n      dup2\n        /* \"#utility.yul\":7642:7654   */\n      mload\n        /* \"#utility.yul\":7632:7654   */\n      swap1\n      pop\n        /* \"#utility.yul\":7562:7661   */\n      swap2\n      swap1\n      pop\n      jump\t// out\n        /* \"#utility.yul\":7667:7836   */\n    tag_81:\n        /* \"#utility.yul\":7751:7762   */\n      0x00\n        /* \"#utility.yul\":7785:7791   */\n      dup3\n        /* \"#utility.yul\":7780:7783   */\n      dup3\n        /* \"#utility.yul\":7773:7792   */\n      mstore\n        /* \"#utility.yul\":7825:7829   */\n      0x20\n        /* \"#utility.yul\":7820:7823   */\n      dup3\n        /* \"#utility.yul\":7816:7830   */\n      add\n        /* \"#utility.yul\":7801:7830   */\n      swap1\n      pop\n        /* \"#utility.yul\":7667:7836   */\n      swap3\n      swap2\n      pop\n      pop\n      jump\t// out\n        /* \"#utility.yul\":7842:7981   */\n    tag_82:\n        /* \"#utility.yul\":7931:7937   */\n      dup3\n        /* \"#utility.yul\":7926:7929   */\n      dup2\n        /* \"#utility.yul\":7921:7924   */\n      dup4\n        /* \"#utility.yul\":7915:7938   */\n      mcopy\n        /* \"#utility.yul\":7972:7973   */\n      0x00\n        /* \"#utility.yul\":7963:7969   */\n      dup4\n        /* \"#utility.yul\":7958:7961   */\n      dup4\n        /* \"#utility.yul\":7954:7970   */\n      add\n        /* \"#utility.yul\":7947:7974   */\n      mstore\n        /* \"#utility.yul\":7842:7981   */\n      pop\n      pop\n      pop\n      jump\t// out\n        /* \"#utility.yul\":7987:8364   */\n    tag_83:\n        /* \"#utility.yul\":8075:8078   */\n      0x00\n        /* \"#utility.yul\":8103:8142   */\n      tag_195\n        /* \"#utility.yul\":8136:8141   */\n      dup3\n        /* \"#utility.yul\":8103:8142   */\n      tag_80\n      jump\t// in\n    tag_195:\n        /* \"#utility.yul\":8158:8229   */\n      tag_196\n        /* \"#utility.yul\":8222:8228   */\n      dup2\n        /* \"#utility.yul\":8217:8220   */\n      dup6\n        /* \"#utility.yul\":8158:8229   */\n      tag_81\n      jump\t// in\n    tag_196:\n        /* \"#utility.yul\":8151:8229   */\n      swap4\n      pop\n        /* \"#utility.yul\":8238:8303   */\n      tag_197\n        /* \"#utility.yul\":8296:8302   */\n      dup2\n        /* \"#utility.yul\":8291:8294   */\n      dup6\n        /* \"#utility.yul\":8284:8288   */\n      0x20\n        /* \"#utility.yul\":8277:8282   */\n      dup7\n        /* \"#utility.yul\":8273:8289   */\n      add\n        /* \"#utility.yul\":8238:8303   */\n      tag_82\n      jump\t// in\n    tag_197:\n        /* \"#utility.yul\":8328:8357   */\n      tag_198\n        /* \"#utility.yul\":8350:8356   */\n      dup2\n        /* \"#utility.yul\":8328:8357   */\n      tag_54\n      jump\t// in\n    tag_198:\n        /* \"#utility.yul\":8323:8326   */\n      dup5\n        /* \"#utility.yul\":8319:8358   */\n      add\n        /* \"#utility.yul\":8312:8358   */\n      swap2\n      pop\n        /* \"#utility.yul\":8079:8364   */\n      pop\n        /* \"#utility.yul\":7987:8364   */\n      swap3\n      swap2\n      pop\n      pop\n      jump\t// out\n        /* \"#utility.yul\":8370:9002   */\n    tag_26:\n        /* \"#utility.yul\":8561:8565   */\n      0x00\n        /* \"#utility.yul\":8599:8602   */\n      0x80\n        /* \"#utility.yul\":8588:8597   */\n      dup3\n        /* \"#utility.yul\":8584:8603   */\n      add\n        /* \"#utility.yul\":8576:8603   */\n      swap1\n      pop\n        /* \"#utility.yul\":8613:8678   */\n      tag_200\n        /* \"#utility.yul\":8675:8676   */\n      0x00\n        /* \"#utility.yul\":8664:8673   */\n      dup4\n        /* \"#utility.yul\":8660:8677   */\n      add\n        /* \"#utility.yul\":8651:8657   */\n      dup8\n        /* \"#utility.yul\":8613:8678   */\n      tag_74\n      jump\t// in\n    tag_200:\n        /* \"#utility.yul\":8688:8760   */\n      tag_201\n        /* \"#utility.yul\":8756:8758   */\n      0x20\n        /* \"#utility.yul\":8745:8754   */\n      dup4\n        /* \"#utility.yul\":8741:8759   */\n      add\n        /* \"#utility.yul\":8732:8738   */\n      dup7\n        /* \"#utility.yul\":8688:8760   */\n      tag_76\n      jump\t// in\n    tag_201:\n        /* \"#utility.yul\":8770:8842   */\n      tag_202\n        /* \"#utility.yul\":8838:8840   */\n      0x40\n        /* \"#utility.yul\":8827:8836   */\n      dup4\n        /* \"#utility.yul\":8823:8841   */\n      add\n        /* \"#utility.yul\":8814:8820   */\n      dup6\n        /* \"#utility.yul\":8770:8842   */\n      tag_79\n      jump\t// in\n    tag_202:\n        /* \"#utility.yul\":8889:8898   */\n      dup2\n        /* \"#utility.yul\":8883:8887   */\n      dup2\n        /* \"#utility.yul\":8879:8899   */\n      sub\n        /* \"#utility.yul\":8874:8876   */\n      0x60\n        /* \"#utility.yul\":8863:8872   */\n      dup4\n        /* \"#utility.yul\":8859:8877   */\n      add\n        /* \"#utility.yul\":8852:8900   */\n      mstore\n        /* \"#utility.yul\":8917:8995   */\n      tag_203\n        /* \"#utility.yul\":8990:8994   */\n      dup2\n        /* \"#utility.yul\":8981:8987   */\n      dup5\n        /* \"#utility.yul\":8917:8995   */\n      tag_83\n      jump\t// in\n    tag_203:\n        /* \"#utility.yul\":8909:8995   */\n      swap1\n      pop\n        /* \"#utility.yul\":8370:9002   */\n      swap6\n      swap5\n      pop\n      pop\n      pop\n      pop\n      pop\n      jump\t// out\n        /* \"#utility.yul\":9008:9156   */\n    tag_84:\n        /* \"#utility.yul\":9110:9121   */\n      0x00\n        /* \"#utility.yul\":9147:9150   */\n      dup2\n        /* \"#utility.yul\":9132:9150   */\n      swap1\n      pop\n        /* \"#utility.yul\":9008:9156   */\n      swap3\n      swap2\n      pop\n      pop\n      jump\t// out\n        /* \"#utility.yul\":9162:9552   */\n    tag_85:\n        /* \"#utility.yul\":9268:9271   */\n      0x00\n        /* \"#utility.yul\":9296:9335   */\n      tag_206\n        /* \"#utility.yul\":9329:9334   */\n      dup3\n        /* \"#utility.yul\":9296:9335   */\n      tag_80\n      jump\t// in\n    tag_206:\n        /* \"#utility.yul\":9351:9440   */\n      tag_207\n        /* \"#utility.yul\":9433:9439   */\n      dup2\n        /* \"#utility.yul\":9428:9431   */\n      dup6\n        /* \"#utility.yul\":9351:9440   */\n      tag_84\n      jump\t// in\n    tag_207:\n        /* \"#utility.yul\":9344:9440   */\n      swap4\n      pop\n        /* \"#utility.yul\":9449:9514   */\n      tag_208\n        /* \"#utility.yul\":9507:9513   */\n      dup2\n        /* \"#utility.yul\":9502:9505   */\n      dup6\n        /* \"#utility.yul\":9495:9499   */\n      0x20\n        /* \"#utility.yul\":9488:9493   */\n      dup7\n        /* \"#utility.yul\":9484:9500   */\n      add\n        /* \"#utility.yul\":9449:9514   */\n      tag_82\n      jump\t// in\n    tag_208:\n        /* \"#utility.yul\":9539:9545   */\n      dup1\n        /* \"#utility.yul\":9534:9537   */\n      dup5\n        /* \"#utility.yul\":9530:9546   */\n      add\n        /* \"#utility.yul\":9523:9546   */\n      swap2\n      pop\n        /* \"#utility.yul\":9272:9552   */\n      pop\n        /* \"#utility.yul\":9162:9552   */\n      swap3\n      swap2\n      pop\n      pop\n      jump\t// out\n        /* \"#utility.yul\":9558:9833   */\n    tag_29:\n        /* \"#utility.yul\":9690:9693   */\n      0x00\n        /* \"#utility.yul\":9712:9807   */\n      tag_210\n        /* \"#utility.yul\":9803:9806   */\n      dup3\n        /* \"#utility.yul\":9794:9800   */\n      dup5\n        /* \"#utility.yul\":9712:9807   */\n      tag_85\n      jump\t// in\n    tag_210:\n        /* \"#utility.yul\":9705:9807   */\n      swap2\n      pop\n        /* \"#utility.yul\":9824:9827   */\n      dup2\n        /* \"#utility.yul\":9817:9827   */\n      swap1\n      pop\n        /* \"#utility.yul\":9558:9833   */\n      swap3\n      swap2\n      pop\n      pop\n      jump\t// out\n        /* \"#utility.yul\":9839:10016   */\n    tag_86:\n        /* \"#utility.yul\":9979:10008   */\n      0x446f63756d656e7420616c726561647920726567697374657265640000000000\n        /* \"#utility.yul\":9975:9976   */\n      0x00\n        /* \"#utility.yul\":9967:9973   */\n      dup3\n        /* \"#utility.yul\":9963:9977   */\n      add\n        /* \"#utility.yul\":9956:10009   */\n      mstore\n        /* \"#utility.yul\":9839:10016   */\n      pop\n      jump\t// out\n        /* \"#utility.yul\":10022:10388   */\n    tag_87:\n        /* \"#utility.yul\":10164:10167   */\n      0x00\n        /* \"#utility.yul\":10185:10252   */\n      tag_213\n        /* \"#utility.yul\":10249:10251   */\n      0x1b\n        /* \"#utility.yul\":10244:10247   */\n      dup4\n        /* \"#utility.yul\":10185:10252   */\n      tag_81\n      jump\t// in\n    tag_213:\n        /* \"#utility.yul\":10178:10252   */\n      swap2\n      pop\n        /* \"#utility.yul\":10261:10354   */\n      tag_214\n        /* \"#utility.yul\":10350:10353   */\n      dup3\n        /* \"#utility.yul\":10261:10354   */\n      tag_86\n      jump\t// in\n    tag_214:\n        /* \"#utility.yul\":10379:10381   */\n      0x20\n        /* \"#utility.yul\":10374:10377   */\n      dup3\n        /* \"#utility.yul\":10370:10382   */\n      add\n        /* \"#utility.yul\":10363:10382   */\n      swap1\n      pop\n        /* \"#utility.yul\":10022:10388   */\n      swap2\n      swap1\n      pop\n      jump\t// out\n        /* \"#utility.yul\":10394:10813   */\n    tag_36:\n        /* \"#utility.yul\":10560:10564   */\n      0x00\n        /* \"#utility.yul\":10598:10600   */\n      0x20\n        /* \"#utility.yul\":10587:10596   */\n      dup3\n        /* \"#utility.yul\":10583:10601   */\n      add\n        /* \"#utility.yul\":10575:10601   */\n      swap1\n      pop\n        /* \"#utility.yul\":10647:10656   */\n      dup2\n        /* \"#utility.yul\":10641:10645   */\n      dup2\n        /* \"#utility.yul\":10637:10657   */\n      sub\n        /* \"#utility.yul\":10633:10634   */\n      0x00\n        /* \"#utility.yul\":10622:10631   */\n      dup4\n        /* \"#utility.yul\":10618:10635   */\n      add\n        /* \"#utility.yul\":10611:10658   */\n      mstore\n        /* \"#utility.yul\":10675:10806   */\n      tag_216\n        /* \"#utility.yul\":10801:10805   */\n      dup2\n        /* \"#utility.yul\":10675:10806   */\n      tag_87\n      jump\t// in\n    tag_216:\n        /* \"#utility.yul\":10667:10806   */\n      swap1\n      pop\n        /* \"#utility.yul\":10394:10813   */\n      swap2\n      swap1\n      pop\n      jump\t// out\n        /* \"#utility.yul\":10819:10999   */\n    tag_88:\n        /* \"#utility.yul\":10867:10944   */\n      0x4e487b7100000000000000000000000000000000000000000000000000000000\n        /* \"#utility.yul\":10864:10865   */\n      0x00\n        /* \"#utility.yul\":10857:10945   */\n      mstore\n        /* \"#utility.yul\":10964:10968   */\n      0x22\n        /* \"#utility.yul\":10961:10962   */\n      0x04\n        /* \"#utility.yul\":10954:10969   */\n      mstore\n        /* \"#utility.yul\":10988:10992   */\n      0x24\n        /* \"#utility.yul\":10985:10986   */\n      0x00\n        /* \"#utility.yul\":10978:10993   */\n      revert\n        /* \"#utility.yul\":11005:11325   */\n    tag_44:\n        /* \"#utility.yul\":11049:11055   */\n      0x00\n        /* \"#utility.yul\":11086:11087   */\n      0x02\n        /* \"#utility.yul\":11080:11084   */\n      dup3\n        /* \"#utility.yul\":11076:11088   */\n      div\n        /* \"#utility.yul\":11066:11088   */\n      swap1\n      pop\n        /* \"#utility.yul\":11133:11134   */\n      0x01\n        /* \"#utility.yul\":11127:11131   */\n      dup3\n        /* \"#utility.yul\":11123:11135   */\n      and\n        /* \"#utility.yul\":11154:11172   */\n      dup1\n        /* \"#utility.yul\":11144:11225   */\n      tag_219\n      jumpi\n        /* \"#utility.yul\":11210:11214   */\n      0x7f\n        /* \"#utility.yul\":11202:11208   */\n      dup3\n        /* \"#utility.yul\":11198:11215   */\n      and\n        /* \"#utility.yul\":11188:11215   */\n      swap2\n      pop\n        /* \"#utility.yul\":11144:11225   */\n    tag_219:\n        /* \"#utility.yul\":11272:11274   */\n      0x20\n        /* \"#utility.yul\":11264:11270   */\n      dup3\n        /* \"#utility.yul\":11261:11275   */\n      lt\n        /* \"#utility.yul\":11241:11259   */\n      dup2\n        /* \"#utility.yul\":11238:11276   */\n      sub\n        /* \"#utility.yul\":11235:11319   */\n      tag_220\n      jumpi\n        /* \"#utility.yul\":11291:11309   */\n      tag_221\n      tag_88\n      jump\t// in\n    tag_221:\n        /* \"#utility.yul\":11235:11319   */\n    tag_220:\n        /* \"#utility.yul\":11056:11325   */\n      pop\n        /* \"#utility.yul\":11005:11325   */\n      swap2\n      swap1\n      pop\n      jump\t// out\n        /* \"#utility.yul\":11331:11472   */\n    tag_89:\n        /* \"#utility.yul\":11380:11384   */\n      0x00\n        /* \"#utility.yul\":11403:11406   */\n      dup2\n        /* \"#utility.yul\":11395:11406   */\n      swap1\n      pop\n        /* \"#utility.yul\":11426:11429   */\n      dup2\n        /* \"#utility.yul\":11423:11424   */\n      0x00\n        /* \"#utility.yul\":11416:11430   */\n      mstore\n        /* \"#utility.yul\":11460:11464   */\n      0x20\n        /* \"#utility.yul\":11457:11458   */\n      0x00\n        /* \"#utility.yul\":11447:11465   */\n      keccak256\n        /* \"#utility.yul\":11439:11465   */\n      swap1\n      pop\n        /* \"#utility.yul\":11331:11472   */\n      swap2\n      swap1\n      pop\n      jump\t// out\n        /* \"#utility.yul\":11478:11571   */\n    tag_90:\n        /* \"#utility.yul\":11515:11521   */\n      0x00\n        /* \"#utility.yul\":11562:11564   */\n      0x20\n        /* \"#utility.yul\":11557:11559   */\n      0x1f\n        /* \"#utility.yul\":11550:11555   */\n      dup4\n        /* \"#utility.yul\":11546:11560   */\n      add\n        /* \"#utility.yul\":11542:11565   */\n      div\n        /* \"#utility.yul\":11532:11565   */\n      swap1\n      pop\n        /* \"#utility.yul\":11478:11571   */\n      swap2\n      swap1\n      pop\n      jump\t// out\n        /* \"#utility.yul\":11577:11684   */\n    tag_91:\n        /* \"#utility.yul\":11621:11629   */\n      0x00\n        /* \"#utility.yul\":11671:11676   */\n      dup3\n        /* \"#utility.yul\":11665:11669   */\n      dup3\n        /* \"#utility.yul\":11661:11677   */\n      shl\n        /* \"#utility.yul\":11640:11677   */\n      swap1\n      pop\n        /* \"#utility.yul\":11577:11684   */\n      swap3\n      swap2\n      pop\n      pop\n      jump\t// out\n        /* \"#utility.yul\":11690:12083   */\n    tag_92:\n        /* \"#utility.yul\":11759:11765   */\n      0x00\n        /* \"#utility.yul\":11809:11810   */\n      0x08\n        /* \"#utility.yul\":11797:11807   */\n      dup4\n        /* \"#utility.yul\":11793:11811   */\n      mul\n        /* \"#utility.yul\":11832:11929   */\n      tag_226\n        /* \"#utility.yul\":11862:11928   */\n      0xffffffffffffffffffffffffffffffffffffffffffffffffffffffffffffffff\n        /* \"#utility.yul\":11851:11860   */\n      dup3\n        /* \"#utility.yul\":11832:11929   */\n      tag_91\n      jump\t// in\n    tag_226:\n        /* \"#utility.yul\":11950:11989   */\n      tag_227\n        /* \"#utility.yul\":11980:11988   */\n      dup7\n        /* \"#utility.yul\":11969:11978   */\n      dup4\n        /* \"#utility.yul\":11950:11989   */\n      tag_91\n      jump\t// in\n    tag_227:\n        /* \"#utility.yul\":11938:11989   */\n      swap6\n      pop\n        /* \"#utility.yul\":12022:12026   */\n      dup1\n        /* \"#utility.yul\":12018:12027   */\n      not\n        /* \"#utility.yul\":12011:12016   */\n      dup5\n        /* \"#utility.yul\":12007:12028   */\n      and\n        /* \"#utility.yul\":11998:12028   */\n      swap4\n      pop\n        /* \"#utility.yul\":12071:12075   */\n      dup1\n        /* \"#utility.yul\":12061:12069   */\n      dup7\n        /* \"#utility.yul\":12057:12076   */\n      and\n        /* \"#utility.yul\":12050:12055   */\n      dup5\n        /* \"#utility.yul\":12047:12077   */\n      or\n        /* \"#utility.yul\":12037:12077   */\n      swap3\n      pop\n        /* \"#utility.yul\":11766:12083   */\n      pop\n      pop\n        /* \"#utility.yul\":11690:12083   */\n      swap4\n      swap3\n      pop\n      pop\n      pop\n      jump\t// out\n        /* \"#utility.yul\":12089:12149   */\n    tag_93:\n        /* \"#utility.yul\":12117:12120   */\n      0x00\n        /* \"#utility.yul\":12138:12143   */\n      dup2\n        /* \"#utility.yul\":12131:12143   */\n      swap1\n      pop\n        /* \"#utility.yul\":12089:12149   */\n      swap2\n      swap1\n      pop\n      jump\t// out\n        /* \"#utility.yul\":12155:12297   */\n    tag_94:\n        /* \"#utility.yul\":12205:12214   */\n      0x00\n        /* \"#utility.yul\":12238:12291   */\n      tag_230\n        /* \"#utility.yul\":12256:12290   */\n      tag_231\n        /* \"#utility.yul\":12265:12289   */\n      tag_232\n        /* \"#utility.yul\":12283:12288   */\n      dup5\n        /* \"#utility.yul\":12265:12289   */\n      tag_75\n      jump\t// in\n    tag_232:\n        /* \"#utility.yul\":12256:12290   */\n      tag_93\n      jump\t// in\n    tag_231:\n        /* \"#utility.yul\":12238:12291   */\n      tag_75\n      jump\t// in\n    tag_230:\n        /* \"#utility.yul\":12225:12291   */\n      swap1\n      pop\n        /* \"#utility.yul\":12155:12297   */\n      swap2\n      swap1\n      pop\n      jump\t// out\n        /* \"#utility.yul\":12303:12378   */\n    tag_95:\n        /* \"#utility.yul\":12346:12349   */\n      0x00\n        /* \"#utility.yul\":12367:12372   */\n      dup2\n        /* \"#utility.yul\":12360:12372   */\n      swap1\n      pop\n        /* \"#utility.yul\":12303:12378   */\n      swap2\n      swap1\n      pop\n      jump\t// out\n        /* \"#utility.yul\":12384:12653   */\n    tag_96:\n        /* \"#utility.yul\":12494:12533   */\n      tag_235\n        /* \"#utility.yul\":12525:12532   */\n      dup4\n        /* \"#utility.yul\":12494:12533   */\n      tag_94\n      jump\t// in\n    tag_235:\n        /* \"#utility.yul\":12555:12646   */\n      tag_236\n        /* \"#utility.yul\":12604:12645   */\n      tag_237\n        /* \"#utility.yul\":12628:12644   */\n      dup3\n        /* \"#utility.yul\":12604:12645   */\n      tag_95\n      jump\t// in\n    tag_237:\n        /* \"#utility.yul\":12596:12602   */\n      dup5\n        /* \"#utility.yul\":12589:12593   */\n      dup5\n        /* \"#utility.yul\":12583:12594   */\n      sload\n        /* \"#utility.yul\":12555:12646   */\n      tag_92\n      jump\t// in\n    tag_236:\n        /* \"#utility.yul\":12549:12553   */\n      dup3\n        /* \"#utility.yul\":12542:12647   */\n      sstore\n        /* \"#utility.yul\":12460:12653   */\n      pop\n        /* \"#utility.yul\":12384:12653   */\n      pop\n      pop\n      pop\n      jump\t// out\n        /* \"#utility.yul\":12659:12732   */\n    tag_97:\n        /* \"#utility.yul\":12704:12707   */\n      0x00\n        /* \"#utility.yul\":12659:12732   */\n      swap1\n      jump\t// out\n        /* \"#utility.yul\":12738:12927   */\n    tag_98:\n        /* \"#utility.yul\":12815:12847   */\n      tag_240\n      tag_97\n      jump\t// in\n    tag_240:\n        /* \"#utility.yul\":12856:12921   */\n      tag_241\n        /* \"#utility.yul\":12914:12920   */\n      dup2\n        /* \"#utility.yul\":12906:12912   */\n      dup5\n        /* \"#utility.yul\":12900:12904   */\n      dup5\n        /* \"#utility.yul\":12856:12921   */\n      tag_96\n      jump\t// in\n    tag_241:\n        /* \"#utility.yul\":12791:12927   */\n      pop\n        /* \"#utility.yul\":12738:12927   */\n      pop\n      pop\n      jump\t// out\n        /* \"#utility.yul\":12933:13119   */\n    tag_99:\n        /* \"#utility.yul\":12993:13113   */\n    tag_243:\n        /* \"#utility.yul\":13010:13013   */\n      dup2\n        /* \"#utility.yul\":13003:13008   */\n      dup2\n        /* \"#utility.yul\":13000:13014   */\n      lt\n        /* \"#utility.yul\":12993:13113   */\n      iszero\n      tag_245\n      jumpi\n        /* \"#utility.yul\":13064:13103   */\n      tag_246\n        /* \"#utility.yul\":13101:13102   */\n      0x00\n        /* \"#utility.yul\":13094:13099   */\n      dup3\n        /* \"#utility.yul\":13064:13103   */\n      tag_98\n      jump\t// in\n    tag_246:\n        /* \"#utility.yul\":13037:13038   */\n      0x01\n        /* \"#utility.yul\":13030:13035   */\n      dup2\n        /* \"#utility.yul\":13026:13039   */\n      add\n        /* \"#utility.yul\":13017:13039   */\n      swap1\n      pop\n        /* \"#utility.yul\":12993:13113   */\n      jump(tag_243)\n    tag_245:\n        /* \"#utility.yul\":12933:13119   */\n      pop\n      pop\n      jump\t// out\n        /* \"#utility.yul\":13125:13668   */\n    tag_100:\n        /* \"#utility.yul\":13226:13228   */\n      0x1f\n        /* \"#utility.yul\":13221:13224   */\n      dup3\n        /* \"#utility.yul\":13218:13229   */\n      gt\n        /* \"#utility.yul\":13215:13661   */\n      iszero\n      tag_248\n      jumpi\n        /* \"#utility.yul\":13260:13298   */\n      tag_249\n        /* \"#utility.yul\":13292:13297   */\n      dup2\n        /* \"#utility.yul\":13260:13298   */\n      tag_89\n      jump\t// in\n    tag_249:\n        /* \"#utility.yul\":13344:13373   */\n      tag_250\n        /* \"#utility.yul\":13362:13372   */\n      dup5\n        /* \"#utility.yul\":13344:13373   */\n      tag_90\n      jump\t// in\n    tag_250:\n        /* \"#utility.yul\":13334:13342   */\n      dup2\n        /* \"#utility.yul\":13330:13374   */\n      add\n        /* \"#utility.yul\":13527:13529   */\n      0x20\n        /* \"#utility.yul\":13515:13525   */\n      dup6\n        /* \"#utility.yul\":13512:13530   */\n      lt\n        /* \"#utility.yul\":13509:13558   */\n      iszero\n      tag_251\n      jumpi\n        /* \"#utility.yul\":13548:13556   */\n      dup2\n        /* \"#utility.yul\":13533:13556   */\n      swap1\n      pop\n        /* \"#utility.yul\":13509:13558   */\n    tag_251:\n        /* \"#utility.yul\":13571:13651   */\n      tag_252\n        /* \"#utility.yul\":13627:13649   */\n      tag_253\n        /* \"#utility.yul\":13645:13648   */\n      dup6\n        /* \"#utility.yul\":13627:13649   */\n      tag_90\n      jump\t// in\n    tag_253:\n        /* \"#utility.yul\":13617:13625   */\n      dup4\n        /* \"#utility.yul\":13613:13650   */\n      add\n        /* \"#utility.yul\":13600:13611   */\n      dup3\n        /* \"#utility.yul\":13571:13651   */\n      tag_99\n      jump\t// in\n    tag_252:\n        /* \"#utility.yul\":13230:13661   */\n      pop\n      pop\n        /* \"#utility.yul\":13215:13661   */\n    tag_248:\n        /* \"#utility.yul\":13125:13668   */\n      pop\n      pop\n      pop\n      jump\t// out\n        /* \"#utility.yul\":13674:13791   */\n    tag_101:\n        /* \"#utility.yul\":13728:13736   */\n      0x00\n        /* \"#utility.yul\":13778:13783   */\n      dup3\n        /* \"#utility.yul\":13772:13776   */\n      dup3\n        /* \"#utility.yul\":13768:13784   */\n      shr\n        /* \"#utility.yul\":13747:13784   */\n      swap1\n      pop\n        /* \"#utility.yul\":13674:13791   */\n      swap3\n      swap2\n      pop\n      pop\n      jump\t// out\n        /* \"#utility.yul\":13797:13966   */\n    tag_102:\n        /* \"#utility.yul\":13841:13847   */\n      0x00\n        /* \"#utility.yul\":13874:13925   */\n      tag_256\n        /* \"#utility.yul\":13922:13923   */\n      0x00\n        /* \"#utility.yul\":13918:13924   */\n      not\n        /* \"#utility.yul\":13910:13915   */\n      dup5\n        /* \"#utility.yul\":13907:13908   */\n      0x08\n        /* \"#utility.yul\":13903:13916   */\n      mul\n        /* \"#utility.yul\":13874:13925   */\n      tag_101\n      jump\t// in\n    tag_256:\n        /* \"#utility.yul\":13870:13926   */\n      not\n        /* \"#utility.yul\":13955:13959   */\n      dup1\n        /* \"#utility.yul\":13949:13953   */\n      dup4\n        /* \"#utility.yul\":13945:13960   */\n      and\n        /* \"#utility.yul\":13935:13960   */\n      swap2\n      pop\n        /* \"#utility.yul\":13848:13966   */\n      pop\n        /* \"#utility.yul\":13797:13966   */\n      swap3\n      swap2\n      pop\n      pop\n      jump\t// out\n        /* \"#utility.yul\":13971:14266   */\n    tag_103:\n        /* \"#utility.yul\":14047:14051   */\n      0x00\n        /* \"#utility.yul\":14193:14222   */\n      tag_258\n        /* \"#utility.yul\":14218:14221   */\n      dup4\n        /* \"#utility.yul\":14212:14216   */\n      dup4\n        /* \"#utility.yul\":14193:14222   */\n      tag_102\n      jump\t// in\n    tag_258:\n        /* \"#utility.yul\":14185:14222   */\n      swap2\n      pop\n        /* \"#utility.yul\":14255:14258   */\n      dup3\n        /* \"#utility.yul\":14252:14253   */\n      0x02\n        /* \"#utility.yul\":14248:14259   */\n      mul\n        /* \"#utility.yul\":14242:14246   */\n      dup3\n        /* \"#utility.yul\":14239:14260   */\n      or\n        /* \"#utility.yul\":14231:14260   */\n      swap1\n      pop\n        /* \"#utility.yul\":13971:14266   */\n      swap3\n      swap2\n      pop\n      pop\n      jump\t// out\n        /* \"#utility.yul\":14271:15666   */\n    tag_38:\n        /* \"#utility.yul\":14388:14425   */\n      tag_260\n        /* \"#utility.yul\":14421:14424   */\n      dup3\n        /* \"#utility.yul\":14388:14425   */\n      tag_80\n      jump\t// in\n    tag_260:\n        /* \"#utility.yul\":14490:14508   */\n      0xffffffffffffffff\n        /* \"#utility.yul\":14482:14488   */\n      dup2\n        /* \"#utility.yul\":14479:14509   */\n      gt\n        /* \"#utility.yul\":14476:14532   */\n      iszero\n      tag_261\n      jumpi\n        /* \"#utility.yul\":14512:14530   */\n      tag_262\n      tag_55\n      jump\t// in\n    tag_262:\n        /* \"#utility.yul\":14476:14532   */\n    tag_261:\n        /* \"#utility.yul\":14556:14594   */\n      tag_263\n        /* \"#utility.yul\":14588:14592   */\n      dup3\n        /* \"#utility.yul\":14582:14593   */\n      sload\n        /* \"#utility.yul\":14556:14594   */\n      tag_44\n      jump\t// in\n    tag_263:\n        /* \"#utility.yul\":14641:14708   */\n      tag_264\n        /* \"#utility.yul\":14701:14707   */\n      dup3\n        /* \"#utility.yul\":14693:14699   */\n      dup3\n        /* \"#utility.yul\":14687:14691   */\n      dup6\n        /* \"#utility.yul\":14641:14708   */\n      tag_100\n      jump\t// in\n    tag_264:\n        /* \"#utility.yul\":14735:14736   */\n      0x00\n        /* \"#utility.yul\":14759:14763   */\n      0x20\n        /* \"#utility.yul\":14746:14763   */\n      swap1\n      pop\n        /* \"#utility.yul\":14791:14793   */\n      0x1f\n        /* \"#utility.yul\":14783:14789   */\n      dup4\n        /* \"#utility.yul\":14780:14794   */\n      gt\n        /* \"#utility.yul\":14808:14809   */\n      0x01\n        /* \"#utility.yul\":14803:15421   */\n      dup2\n      eq\n      tag_266\n      jumpi\n        /* \"#utility.yul\":15465:15466   */\n      0x00\n        /* \"#utility.yul\":15482:15488   */\n      dup5\n        /* \"#utility.yul\":15479:15556   */\n      iszero\n      tag_267\n      jumpi\n        /* \"#utility.yul\":15531:15540   */\n      dup3\n        /* \"#utility.yul\":15526:15529   */\n      dup8\n        /* \"#utility.yul\":15522:15541   */\n      add\n        /* \"#utility.yul\":15516:15542   */\n      mload\n        /* \"#utility.yul\":15507:15542   */\n      swap1\n      pop\n        /* \"#utility.yul\":15479:15556   */\n    tag_267:\n        /* \"#utility.yul\":15582:15649   */\n      tag_268\n        /* \"#utility.yul\":15642:15648   */\n      dup6\n        /* \"#utility.yul\":15635:15640   */\n      dup3\n        /* \"#utility.yul\":15582:15649   */\n      tag_103\n      jump\t// in\n    tag_268:\n        /* \"#utility.yul\":15576:15580   */\n      dup7\n        /* \"#utility.yul\":15569:15650   */\n      sstore\n        /* \"#utility.yul\":15438:15660   */\n      pop\n        /* \"#utility.yul\":14773:15660   */\n      jump(tag_265)\n        /* \"#utility.yul\":14803:15421   */\n    tag_266:\n        /* \"#utility.yul\":14855:14859   */\n      0x1f\n        /* \"#utility.yul\":14851:14860   */\n      not\n        /* \"#utility.yul\":14843:14849   */\n      dup5\n        /* \"#utility.yul\":14839:14861   */\n      and\n        /* \"#utility.yul\":14889:14926   */\n      tag_269\n        /* \"#utility.yul\":14921:14925   */\n      dup7\n        /* \"#utility.yul\":14889:14926   */\n      tag_89\n      jump\t// in\n    tag_269:\n        /* \"#utility.yul\":14948:14949   */\n      0x00\n        /* \"#utility.yul\":14962:15170   */\n    tag_270:\n        /* \"#utility.yul\":14976:14983   */\n      dup3\n        /* \"#utility.yul\":14973:14974   */\n      dup2\n        /* \"#utility.yul\":14970:14984   */\n      lt\n        /* \"#utility.yul\":14962:15170   */\n      iszero\n      tag_272\n      jumpi\n        /* \"#utility.yul\":15055:15064   */\n      dup5\n        /* \"#utility.yul\":15050:15053   */\n      dup10\n        /* \"#utility.yul\":15046:15065   */\n      add\n        /* \"#utility.yul\":15040:15066   */\n      mload\n        /* \"#utility.yul\":15032:15038   */\n      dup3\n        /* \"#utility.yul\":15025:15067   */\n      sstore\n        /* \"#utility.yul\":15106:15107   */\n      0x01\n        /* \"#utility.yul\":15098:15104   */\n      dup3\n        /* \"#utility.yul\":15094:15108   */\n      add\n        /* \"#utility.yul\":15084:15108   */\n      swap2\n      pop\n        /* \"#utility.yul\":15153:15155   */\n      0x20\n        /* \"#utility.yul\":15142:15151   */\n      dup6\n        /* \"#utility.yul\":15138:15156   */\n      add\n        /* \"#utility.yul\":15125:15156   */\n      swap5\n      pop\n        /* \"#utility.yul\":14999:15003   */\n      0x20\n        /* \"#utility.yul\":14996:14997   */\n      dup2\n        /* \"#utility.yul\":14992:15004   */\n      add\n        /* \"#utility.yul\":14987:15004   */\n      swap1\n      pop\n        /* \"#utility.yul\":14962:15170   */\n      jump(tag_270)\n    tag_272:\n        /* \"#utility.yul\":15198:15204   */\n      dup7\n        /* \"#utility.yul\":15189:15196   */\n      dup4\n        /* \"#utility.yul\":15186:15205   */\n      lt\n        /* \"#utility.yul\":15183:15362   */\n      iszero\n      tag_273\n      jumpi\n        /* \"#utility.yul\":15256:15265   */\n      dup5\n        /* \"#utility.yul\":15251:15254   */\n      dup10\n        /* \"#utility.yul\":15247:15266   */\n      add\n        /* \"#utility.yul\":15241:15267   */\n      mload\n        /* \"#utility.yul\":15299:15347   */\n      tag_274\n        /* \"#utility.yul\":15341:15345   */\n      0x1f\n        /* \"#utility.yul\":15333:15339   */\n      dup10\n        /* \"#utility.yul\":15329:15346   */\n      and\n        /* \"#utility.yul\":15318:15327   */\n      dup3\n        /* \"#utility.yul\":15299:15347   */\n      tag_102\n      jump\t// in\n    tag_274:\n        /* \"#utility.yul\":15291:15297   */\n      dup4\n        /* \"#utility.yul\":15284:15348   */\n      sstore\n        /* \"#utility.yul\":15206:15362   */\n      pop\n        /* \"#utility.yul\":15183:15362   */\n    tag_273:\n        /* \"#utility.yul\":15408:15409   */\n      0x01\n        /* \"#utility.yul\":15404:15405   */\n      0x02\n        /* \"#utility.yul\":15396:15402   */\n      dup9\n        /* \"#utility.yul\":15392:15406   */\n      mul\n        /* \"#utility.yul\":15388:15410   */\n      add\n        /* \"#utility.yul\":15382:15386   */\n      dup9\n        /* \"#utility.yul\":15375:15411   */\n      sstore\n        /* \"#utility.yul\":14810:15421   */\n      pop\n      pop\n      pop\n        /* \"#utility.yul\":14773:15660   */\n    tag_265:\n      pop\n        /* \"#utility.yul\":14363:15666   */\n      pop\n      pop\n      pop\n        /* \"#utility.yul\":14271:15666   */\n      pop\n      pop\n      jump\t// out\n        /* \"#utility.yul\":15672:15894   */\n    tag_41:\n        /* \"#utility.yul\":15765:15769   */\n      0x00\n        /* \"#utility.yul\":15803:15805   */\n      0x20\n        /* \"#utility.yul\":15792:15801   */\n      dup3\n        /* \"#utility.yul\":15788:15806   */\n      add\n        /* \"#utility.yul\":15780:15806   */\n      swap1\n      pop\n        /* \"#utility.yul\":15816:15887   */\n      tag_276\n        /* \"#utility.yul\":15884:15885   */\n      0x00\n        /* \"#utility.yul\":15873:15882   */\n      dup4\n        /* \"#utility.yul\":15869:15886   */\n      add\n        /* \"#utility.yul\":15860:15866   */\n      dup5\n        /* \"#utility.yul\":15816:15887   */\n      tag_76\n      jump\t// in\n    tag_276:\n        /* \"#utility.yul\":15672:15894   */\n      swap3\n      swap2\n      pop\n      pop\n      jump\t// out\n\n    auxdata: 0xa2646970667358221220f909255b0be5397cd6c8efa38809257f659d31d817b2d365ac47c12aafa9908c64736f6c634300081a0033\n}\n",
				"bytecode": {
					"linkReferences": {},
					"object": "6080604052348015600e575f80fd5b50610ce48061001c5f395ff3fe608060405234801561000f575f80fd5b506004361061004a575f3560e01c8063a8cbcecd1461004e578063b46385161461007e578063fa17185a1461009c578063fe35089f146100b8575b5f80fd5b610068600480360381019061006391906105fb565b6100eb565b604051610075919061065a565b60405180910390f35b61008661011a565b604051610093919061072a565b60405180910390f35b6100b660048036038101906100b19190610774565b6101ab565b005b6100d260048036038101906100cd91906107ce565b61036c565b6040516100e294939291906108ca565b60405180910390f35b5f816040516020016100fd919061094e565b604051602081830303815290604052805190602001209050919050565b606060015f3373ffffffffffffffffffffffffffffffffffffffff1673ffffffffffffffffffffffffffffffffffffffff1681526020019081526020015f208054806020026020016040519081016040528092919081815260200182805480156101a157602002820191905f5260205f20905b81548152602001906001019080831161018d575b5050505050905090565b5f805f8481526020019081526020015f206001015414610200576040517f08c379a00000000000000000000000000000000000000000000000000000000081526004016101f7906109ae565b60405180910390fd5b60405180608001604052808381526020014281526020013373ffffffffffffffffffffffffffffffffffffffff168152602001828152505f808481526020019081526020015f205f820151815f0155602082015181600101556040820151816002015f6101000a81548173ffffffffffffffffffffffffffffffffffffffff021916908373ffffffffffffffffffffffffffffffffffffffff16021790555060608201518160030190816102b49190610bc6565b5090505060015f3373ffffffffffffffffffffffffffffffffffffffff1673ffffffffffffffffffffffffffffffffffffffff1681526020019081526020015f2082908060018154018082558091505060019003905f5260205f20015f90919091909150553373ffffffffffffffffffffffffffffffffffffffff16827f6569e54c43a697fc61e67763858d5abef16899d2b13215c7c07090aa878b24a8426040516103609190610c95565b60405180910390a35050565b5f805f60605f805f8781526020019081526020015f206040518060800160405290815f820154815260200160018201548152602001600282015f9054906101000a900473ffffffffffffffffffffffffffffffffffffffff1673ffffffffffffffffffffffffffffffffffffffff1673ffffffffffffffffffffffffffffffffffffffff168152602001600382018054610405906109f9565b80601f0160208091040260200160405190810160405280929190818152602001828054610431906109f9565b801561047c5780601f106104535761010080835404028352916020019161047c565b820191905f5260205f20905b81548152906001019060200180831161045f57829003601f168201915b50505050508152505090505f816020015114159450806020015193508060400151925080606001519150509193509193565b5f604051905090565b5f80fd5b5f80fd5b5f80fd5b5f80fd5b5f601f19601f8301169050919050565b7f4e487b71000000000000000000000000000000000000000000000000000000005f52604160045260245ffd5b61050d826104c7565b810181811067ffffffffffffffff8211171561052c5761052b6104d7565b5b80604052505050565b5f61053e6104ae565b905061054a8282610504565b919050565b5f67ffffffffffffffff821115610569576105686104d7565b5b610572826104c7565b9050602081019050919050565b828183375f83830152505050565b5f61059f61059a8461054f565b610535565b9050828152602081018484840111156105bb576105ba6104c3565b5b6105c684828561057f565b509392505050565b5f82601f8301126105e2576105e16104bf565b5b81356105f284826020860161058d565b91505092915050565b5f602082840312156106105761060f6104b7565b5b5f82013567ffffffffffffffff81111561062d5761062c6104bb565b5b610639848285016105ce565b91505092915050565b5f819050919050565b61065481610642565b82525050565b5f60208201905061066d5f83018461064b565b92915050565b5f81519050919050565b5f82825260208201905092915050565b5f819050602082019050919050565b6106a581610642565b82525050565b5f6106b6838361069c565b60208301905092915050565b5f602082019050919050565b5f6106d882610673565b6106e2818561067d565b93506106ed8361068d565b805f5b8381101561071d57815161070488826106ab565b975061070f836106c2565b9250506001810190506106f0565b5085935050505092915050565b5f6020820190508181035f83015261074281846106ce565b905092915050565b61075381610642565b811461075d575f80fd5b50565b5f8135905061076e8161074a565b92915050565b5f806040838503121561078a576107896104b7565b5b5f61079785828601610760565b925050602083013567ffffffffffffffff8111156107b8576107b76104bb565b5b6107c4858286016105ce565b9150509250929050565b5f602082840312156107e3576107e26104b7565b5b5f6107f084828501610760565b91505092915050565b5f8115159050919050565b61080d816107f9565b82525050565b5f819050919050565b61082581610813565b82525050565b5f73ffffffffffffffffffffffffffffffffffffffff82169050919050565b5f6108548261082b565b9050919050565b6108648161084a565b82525050565b5f81519050919050565b5f82825260208201905092915050565b8281835e5f83830152505050565b5f61089c8261086a565b6108a68185610874565b93506108b6818560208601610884565b6108bf816104c7565b840191505092915050565b5f6080820190506108dd5f830187610804565b6108ea602083018661081c565b6108f7604083018561085b565b81810360608301526109098184610892565b905095945050505050565b5f81905092915050565b5f6109288261086a565b6109328185610914565b9350610942818560208601610884565b80840191505092915050565b5f610959828461091e565b915081905092915050565b7f446f63756d656e7420616c7265616479207265676973746572656400000000005f82015250565b5f610998601b83610874565b91506109a382610964565b602082019050919050565b5f6020820190508181035f8301526109c58161098c565b9050919050565b7f4e487b71000000000000000000000000000000000000000000000000000000005f52602260045260245ffd5b5f6002820490506001821680610a1057607f821691505b602082108103610a2357610a226109cc565b5b50919050565b5f819050815f5260205f209050919050565b5f6020601f8301049050919050565b5f82821b905092915050565b5f60088302610a857fffffffffffffffffffffffffffffffffffffffffffffffffffffffffffffffff82610a4a565b610a8f8683610a4a565b95508019841693508086168417925050509392505050565b5f819050919050565b5f610aca610ac5610ac084610813565b610aa7565b610813565b9050919050565b5f819050919050565b610ae383610ab0565b610af7610aef82610ad1565b848454610a56565b825550505050565b5f90565b610b0b610aff565b610b16818484610ada565b505050565b5b81811015610b3957610b2e5f82610b03565b600181019050610b1c565b5050565b601f821115610b7e57610b4f81610a29565b610b5884610a3b565b81016020851015610b67578190505b610b7b610b7385610a3b565b830182610b1b565b50505b505050565b5f82821c905092915050565b5f610b9e5f1984600802610b83565b1980831691505092915050565b5f610bb68383610b8f565b9150826002028217905092915050565b610bcf8261086a565b67ffffffffffffffff811115610be857610be76104d7565b5b610bf282546109f9565b610bfd828285610b3d565b5f60209050601f831160018114610c2e575f8415610c1c578287015190505b610c268582610bab565b865550610c8d565b601f198416610c3c86610a29565b5f5b82811015610c6357848901518255600182019150602085019450602081019050610c3e565b86831015610c805784890151610c7c601f891682610b8f565b8355505b6001600288020188555050505b505050505050565b5f602082019050610ca85f83018461081c565b9291505056fea2646970667358221220f909255b0be5397cd6c8efa38809257f659d31d817b2d365ac47c12aafa9908c64736f6c634300081a0033",
					"opcodes": "PUSH1 0x80 PUSH1 0x40 MSTORE CALLVALUE DUP1 ISZERO PUSH1 0xE JUMPI PUSH0 DUP1 REVERT JUMPDEST POP PUSH2 0xCE4 DUP1 PUSH2 0x1C PUSH0 CODECOPY PUSH0 RETURN INVALID PUSH1 0x80 PUSH1 0x40 MSTORE CALLVALUE DUP1 ISZERO PUSH2 0xF JUMPI PUSH0 DUP1 REVERT JUMPDEST POP PUSH1 0x4 CALLDATASIZE LT PUSH2 0x4A JUMPI PUSH0 CALLDATALOAD PUSH1 0xE0 SHR DUP1 PUSH4 0xA8CBCECD EQ PUSH2 0x4E JUMPI DUP1 PUSH4 0xB4638516 EQ PUSH2 0x7E JUMPI DUP1 PUSH4 0xFA17185A EQ PUSH2 0x9C JUMPI DUP1 PUSH4 0xFE35089F EQ PUSH2 0xB8 JUMPI JUMPDEST PUSH0 DUP1 REVERT JUMPDEST PUSH2 0x68 PUSH1 0x4 DUP1 CALLDATASIZE SUB DUP2 ADD SWAP1 PUSH2 0x63 SWAP2 SWAP1 PUSH2 0x5FB JUMP JUMPDEST PUSH2 0xEB JUMP JUMPDEST PUSH1 0x40 MLOAD PUSH2 0x75 SWAP2 SWAP1 PUSH2 0x65A JUMP JUMPDEST PUSH1 0x40 MLOAD DUP1 SWAP2 SUB SWAP1 RETURN JUMPDEST PUSH2 0x86 PUSH2 0x11A JUMP JUMPDEST PUSH1 0x40 MLOAD PUSH2 0x93 SWAP2 SWAP1 PUSH2 0x72A JUMP JUMPDEST PUSH1 0x40 MLOAD DUP1 SWAP2 SUB SWAP1 RETURN JUMPDEST PUSH2 0xB6 PUSH1 0x4 DUP1 CALLDATASIZE SUB DUP2 ADD SWAP1 PUSH2 0xB1 SWAP2 SWAP1 PUSH2 0x774 JUMP JUMPDEST PUSH2 0x1AB JUMP JUMPDEST STOP JUMPDEST PUSH2 0xD2 PUSH1 0x4 DUP1 CALLDATASIZE SUB DUP2 ADD SWAP1 PUSH2 0xCD SWAP2 SWAP1 PUSH2 0x7CE JUMP JUMPDEST PUSH2 0x36C JUMP JUMPDEST PUSH1 0x40 MLOAD PUSH2 0xE2 SWAP5 SWAP4 SWAP3 SWAP2 SWAP1 PUSH2 0x8CA JUMP JUMPDEST PUSH1 0x40 MLOAD DUP1 SWAP2 SUB SWAP1 RETURN JUMPDEST PUSH0 DUP2 PUSH1 0x40 MLOAD PUSH1 0x20 ADD PUSH2 0xFD SWAP2 SWAP1 PUSH2 0x94E JUMP JUMPDEST PUSH1 0x40 MLOAD PUSH1 0x20 DUP2 DUP4 SUB SUB DUP2 MSTORE SWAP1 PUSH1 0x40 MSTORE DUP1 MLOAD SWAP1 PUSH1 0x20 ADD KECCAK256 SWAP1 POP SWAP2 SWAP1 POP JUMP JUMPDEST PUSH1 0x60 PUSH1 0x1 PUSH0 CALLER PUSH20 0xFFFFFFFFFFFFFFFFFFFFFFFFFFFFFFFFFFFFFFFF AND PUSH20 0xFFFFFFFFFFFFFFFFFFFFFFFFFFFFFFFFFFFFFFFF AND DUP2 MSTORE PUSH1 0x20 ADD SWAP1 DUP2 MSTORE PUSH1 0x20 ADD PUSH0 KECCAK256 DUP1 SLOAD DUP1 PUSH1 0x20 MUL PUSH1 0x20 ADD PUSH1 0x40 MLOAD SWAP1 DUP2 ADD PUSH1 0x40 MSTORE DUP1 SWAP3 SWAP2 SWAP1 DUP2 DUP2 MSTORE PUSH1 0x20 ADD DUP3 DUP1 SLOAD DUP1 ISZERO PUSH2 0x1A1 JUMPI PUSH1 0x20 MUL DUP3 ADD SWAP2 SWAP1 PUSH0 MSTORE PUSH1 0x20 PUSH0 KECCAK256 SWAP1 JUMPDEST DUP2 SLOAD DUP2 MSTORE PUSH1 0x20 ADD SWAP1 PUSH1 0x1 ADD SWAP1 DUP1 DUP4 GT PUSH2 0x18D JUMPI JUMPDEST POP POP POP POP POP SWAP1 POP SWAP1 JUMP JUMPDEST PUSH0 DUP1 PUSH0 DUP5 DUP2 MSTORE PUSH1 0x20 ADD SWAP1 DUP2 MSTORE PUSH1 0x20 ADD PUSH0 KECCAK256 PUSH1 0x1 ADD SLOAD EQ PUSH2 0x200 JUMPI PUSH1 0x40 MLOAD PUSH32 0x8C379A000000000000000000000000000000000000000000000000000000000 DUP2 MSTORE PUSH1 0x4 ADD PUSH2 0x1F7 SWAP1 PUSH2 0x9AE JUMP JUMPDEST PUSH1 0x40 MLOAD DUP1 SWAP2 SUB SWAP1 REVERT JUMPDEST PUSH1 0x40 MLOAD DUP1 PUSH1 0x80 ADD PUSH1 0x40 MSTORE DUP1 DUP4 DUP2 MSTORE PUSH1 0x20 ADD TIMESTAMP DUP2 MSTORE PUSH1 0x20 ADD CALLER PUSH20 0xFFFFFFFFFFFFFFFFFFFFFFFFFFFFFFFFFFFFFFFF AND DUP2 MSTORE PUSH1 0x20 ADD DUP3 DUP2 MSTORE POP PUSH0 DUP1 DUP5 DUP2 MSTORE PUSH1 0x20 ADD SWAP1 DUP2 MSTORE PUSH1 0x20 ADD PUSH0 KECCAK256 PUSH0 DUP3 ADD MLOAD DUP2 PUSH0 ADD SSTORE PUSH1 0x20 DUP3 ADD MLOAD DUP2 PUSH1 0x1 ADD SSTORE PUSH1 0x40 DUP3 ADD MLOAD DUP2 PUSH1 0x2 ADD PUSH0 PUSH2 0x100 EXP DUP2 SLOAD DUP2 PUSH20 0xFFFFFFFFFFFFFFFFFFFFFFFFFFFFFFFFFFFFFFFF MUL NOT AND SWAP1 DUP4 PUSH20 0xFFFFFFFFFFFFFFFFFFFFFFFFFFFFFFFFFFFFFFFF AND MUL OR SWAP1 SSTORE POP PUSH1 0x60 DUP3 ADD MLOAD DUP2 PUSH1 0x3 ADD SWAP1 DUP2 PUSH2 0x2B4 SWAP2 SWAP1 PUSH2 0xBC6 JUMP JUMPDEST POP SWAP1 POP POP PUSH1 0x1 PUSH0 CALLER PUSH20 0xFFFFFFFFFFFFFFFFFFFFFFFFFFFFFFFFFFFFFFFF AND PUSH20 0xFFFFFFFFFFFFFFFFFFFFFFFFFFFFFFFFFFFFFFFF AND DUP2 MSTORE PUSH1 0x20 ADD SWAP1 DUP2 MSTORE PUSH1 0x20 ADD PUSH0 KECCAK256 DUP3 SWAP1 DUP1 PUSH1 0x1 DUP2 SLOAD ADD DUP1 DUP3 SSTORE DUP1 SWAP2 POP POP PUSH1 0x1 SWAP1 SUB SWAP1 PUSH0 MSTORE PUSH1 0x20 PUSH0 KECCAK256 ADD PUSH0 SWAP1 SWAP2 SWAP1 SWAP2 SWAP1 SWAP2 POP SSTORE CALLER PUSH20 0xFFFFFFFFFFFFFFFFFFFFFFFFFFFFFFFFFFFFFFFF AND DUP3 PUSH32 0x6569E54C43A697FC61E67763858D5ABEF16899D2B13215C7C07090AA878B24A8 TIMESTAMP PUSH1 0x40 MLOAD PUSH2 0x360 SWAP2 SWAP1 PUSH2 0xC95 JUMP JUMPDEST PUSH1 0x40 MLOAD DUP1 SWAP2 SUB SWAP1 LOG3 POP POP JUMP JUMPDEST PUSH0 DUP1 PUSH0 PUSH1 0x60 PUSH0 DUP1 PUSH0 DUP8 DUP2 MSTORE PUSH1 0x20 ADD SWAP1 DUP2 MSTORE PUSH1 0x20 ADD PUSH0 KECCAK256 PUSH1 0x40 MLOAD DUP1 PUSH1 0x80 ADD PUSH1 0x40 MSTORE SWAP1 DUP2 PUSH0 DUP3 ADD SLOAD DUP2 MSTORE PUSH1 0x20 ADD PUSH1 0x1 DUP3 ADD SLOAD DUP2 MSTORE PUSH1 0x20 ADD PUSH1 0x2 DUP3 ADD PUSH0 SWAP1 SLOAD SWAP1 PUSH2 0x100 EXP SWAP1 DIV PUSH20 0xFFFFFFFFFFFFFFFFFFFFFFFFFFFFFFFFFFFFFFFF AND PUSH20 0xFFFFFFFFFFFFFFFFFFFFFFFFFFFFFFFFFFFFFFFF AND PUSH20 0xFFFFFFFFFFFFFFFFFFFFFFFFFFFFFFFFFFFFFFFF AND DUP2 MSTORE PUSH1 0x20 ADD PUSH1 0x3 DUP3 ADD DUP1 SLOAD PUSH2 0x405 SWAP1 PUSH2 0x9F9 JUMP JUMPDEST DUP1 PUSH1 0x1F ADD PUSH1 0x20 DUP1 SWAP2 DIV MUL PUSH1 0x20 ADD PUSH1 0x40 MLOAD SWAP1 DUP2 ADD PUSH1 0x40 MSTORE DUP1 SWAP3 SWAP2 SWAP1 DUP2 DUP2 MSTORE PUSH1 0x20 ADD DUP3 DUP1 SLOAD PUSH2 0x431 SWAP1 PUSH2 0x9F9 JUMP JUMPDEST DUP1 ISZERO PUSH2 0x47C JUMPI DUP1 PUSH1 0x1F LT PUSH2 0x453 JUMPI PUSH2 0x100 DUP1 DUP4 SLOAD DIV MUL DUP4 MSTORE SWAP2 PUSH1 0x20 ADD SWAP2 PUSH2 0x47C JUMP JUMPDEST DUP3 ADD SWAP2 SWAP1 PUSH0 MSTORE PUSH1 0x20 PUSH0 KECCAK256 SWAP1 JUMPDEST DUP2 SLOAD DUP2 MSTORE SWAP1 PUSH1 0x1 ADD SWAP1 PUSH1 0x20 ADD DUP1 DUP4 GT PUSH2 0x45F JUMPI DUP3 SWAP1 SUB PUSH1 0x1F AND DUP3 ADD SWAP2 JUMPDEST POP POP POP POP POP DUP2 MSTORE POP POP SWAP1 POP PUSH0 DUP2 PUSH1 0x20 ADD MLOAD EQ ISZERO SWAP5 POP DUP1 PUSH1 0x20 ADD MLOAD SWAP4 POP DUP1 PUSH1 0x40 ADD MLOAD SWAP3 POP DUP1 PUSH1 0x60 ADD MLOAD SWAP2 POP POP SWAP2 SWAP4 POP SWAP2 SWAP4 JUMP JUMPDEST PUSH0 PUSH1 0x40 MLOAD SWAP1 POP SWAP1 JUMP JUMPDEST PUSH0 DUP1 REVERT JUMPDEST PUSH0 DUP1 REVERT JUMPDEST PUSH0 DUP1 REVERT JUMPDEST PUSH0 DUP1 REVERT JUMPDEST PUSH0 PUSH1 0x1F NOT PUSH1 0x1F DUP4 ADD AND SWAP1 POP SWAP2 SWAP1 POP JUMP JUMPDEST PUSH32 0x4E487B7100000000000000000000000000000000000000000000000000000000 PUSH0 MSTORE PUSH1 0x41 PUSH1 0x4 MSTORE PUSH1 0x24 PUSH0 REVERT JUMPDEST PUSH2 0x50D DUP3 PUSH2 0x4C7 JUMP JUMPDEST DUP2 ADD DUP2 DUP2 LT PUSH8 0xFFFFFFFFFFFFFFFF DUP3 GT OR ISZERO PUSH2 0x52C JUMPI PUSH2 0x52B PUSH2 0x4D7 JUMP JUMPDEST JUMPDEST DUP1 PUSH1 0x40 MSTORE POP POP POP JUMP JUMPDEST PUSH0 PUSH2 0x53E PUSH2 0x4AE JUMP JUMPDEST SWAP1 POP PUSH2 0x54A DUP3 DUP3 PUSH2 0x504 JUMP JUMPDEST SWAP2 SWAP1 POP JUMP JUMPDEST PUSH0 PUSH8 0xFFFFFFFFFFFFFFFF DUP3 GT ISZERO PUSH2 0x569 JUMPI PUSH2 0x568 PUSH2 0x4D7 JUMP JUMPDEST JUMPDEST PUSH2 0x572 DUP3 PUSH2 0x4C7 JUMP JUMPDEST SWAP1 POP PUSH1 0x20 DUP2 ADD SWAP1 POP SWAP2 SWAP1 POP JUMP JUMPDEST DUP3 DUP2 DUP4 CALLDATACOPY PUSH0 DUP4 DUP4 ADD MSTORE POP POP POP JUMP JUMPDEST PUSH0 PUSH2 0x59F PUSH2 0x59A DUP5 PUSH2 0x54F JUMP JUMPDEST PUSH2 0x535 JUMP JUMPDEST SWAP1 POP DUP3 DUP2 MSTORE PUSH1 0x20 DUP2 ADD DUP5 DUP5 DUP5 ADD GT ISZERO PUSH2 0x5BB JUMPI PUSH2 0x5BA PUSH2 0x4C3 JUMP JUMPDEST JUMPDEST PUSH2 0x5C6 DUP5 DUP3 DUP6 PUSH2 0x57F JUMP JUMPDEST POP SWAP4 SWAP3 POP POP POP JUMP JUMPDEST PUSH0 DUP3 PUSH1 0x1F DUP4 ADD SLT PUSH2 0x5E2 JUMPI PUSH2 0x5E1 PUSH2 0x4BF JUMP JUMPDEST JUMPDEST DUP2 CALLDATALOAD PUSH2 0x5F2 DUP5 DUP3 PUSH1 0x20 DUP7 ADD PUSH2 0x58D JUMP JUMPDEST SWAP2 POP POP SWAP3 SWAP2 POP POP JUMP JUMPDEST PUSH0 PUSH1 0x20 DUP3 DUP5 SUB SLT ISZERO PUSH2 0x610 JUMPI PUSH2 0x60F PUSH2 0x4B7 JUMP JUMPDEST JUMPDEST PUSH0 DUP3 ADD CALLDATALOAD PUSH8 0xFFFFFFFFFFFFFFFF DUP2 GT ISZERO PUSH2 0x62D JUMPI PUSH2 0x62C PUSH2 0x4BB JUMP JUMPDEST JUMPDEST PUSH2 0x639 DUP5 DUP3 DUP6 ADD PUSH2 0x5CE JUMP JUMPDEST SWAP2 POP POP SWAP3 SWAP2 POP POP JUMP JUMPDEST PUSH0 DUP2 SWAP1 POP SWAP2 SWAP1 POP JUMP JUMPDEST PUSH2 0x654 DUP2 PUSH2 0x642 JUMP JUMPDEST DUP3 MSTORE POP POP JUMP JUMPDEST PUSH0 PUSH1 0x20 DUP3 ADD SWAP1 POP PUSH2 0x66D PUSH0 DUP4 ADD DUP5 PUSH2 0x64B JUMP JUMPDEST SWAP3 SWAP2 POP POP JUMP JUMPDEST PUSH0 DUP2 MLOAD SWAP1 POP SWAP2 SWAP1 POP JUMP JUMPDEST PUSH0 DUP3 DUP3 MSTORE PUSH1 0x20 DUP3 ADD SWAP1 POP SWAP3 SWAP2 POP POP JUMP JUMPDEST PUSH0 DUP2 SWAP1 POP PUSH1 0x20 DUP3 ADD SWAP1 POP SWAP2 SWAP1 POP JUMP JUMPDEST PUSH2 0x6A5 DUP2 PUSH2 0x642 JUMP JUMPDEST DUP3 MSTORE POP POP JUMP JUMPDEST PUSH0 PUSH2 0x6B6 DUP4 DUP4 PUSH2 0x69C JUMP JUMPDEST PUSH1 0x20 DUP4 ADD SWAP1 POP SWAP3 SWAP2 POP POP JUMP JUMPDEST PUSH0 PUSH1 0x20 DUP3 ADD SWAP1 POP SWAP2 SWAP1 POP JUMP JUMPDEST PUSH0 PUSH2 0x6D8 DUP3 PUSH2 0x673 JUMP JUMPDEST PUSH2 0x6E2 DUP2 DUP6 PUSH2 0x67D JUMP JUMPDEST SWAP4 POP PUSH2 0x6ED DUP4 PUSH2 0x68D JUMP JUMPDEST DUP1 PUSH0 JUMPDEST DUP4 DUP2 LT ISZERO PUSH2 0x71D JUMPI DUP2 MLOAD PUSH2 0x704 DUP9 DUP3 PUSH2 0x6AB JUMP JUMPDEST SWAP8 POP PUSH2 0x70F DUP4 PUSH2 0x6C2 JUMP JUMPDEST SWAP3 POP POP PUSH1 0x1 DUP2 ADD SWAP1 POP PUSH2 0x6F0 JUMP JUMPDEST POP DUP6 SWAP4 POP POP POP POP SWAP3 SWAP2 POP POP JUMP JUMPDEST PUSH0 PUSH1 0x20 DUP3 ADD SWAP1 POP DUP2 DUP2 SUB PUSH0 DUP4 ADD MSTORE PUSH2 0x742 DUP2 DUP5 PUSH2 0x6CE JUMP JUMPDEST SWAP1 POP SWAP3 SWAP2 POP POP JUMP JUMPDEST PUSH2 0x753 DUP2 PUSH2 0x642 JUMP JUMPDEST DUP2 EQ PUSH2 0x75D JUMPI PUSH0 DUP1 REVERT JUMPDEST POP JUMP JUMPDEST PUSH0 DUP2 CALLDATALOAD SWAP1 POP PUSH2 0x76E DUP2 PUSH2 0x74A JUMP JUMPDEST SWAP3 SWAP2 POP POP JUMP JUMPDEST PUSH0 DUP1 PUSH1 0x40 DUP4 DUP6 SUB SLT ISZERO PUSH2 0x78A JUMPI PUSH2 0x789 PUSH2 0x4B7 JUMP JUMPDEST JUMPDEST PUSH0 PUSH2 0x797 DUP6 DUP3 DUP7 ADD PUSH2 0x760 JUMP JUMPDEST SWAP3 POP POP PUSH1 0x20 DUP4 ADD CALLDATALOAD PUSH8 0xFFFFFFFFFFFFFFFF DUP2 GT ISZERO PUSH2 0x7B8 JUMPI PUSH2 0x7B7 PUSH2 0x4BB JUMP JUMPDEST JUMPDEST PUSH2 0x7C4 DUP6 DUP3 DUP7 ADD PUSH2 0x5CE JUMP JUMPDEST SWAP2 POP POP SWAP3 POP SWAP3 SWAP1 POP JUMP JUMPDEST PUSH0 PUSH1 0x20 DUP3 DUP5 SUB SLT ISZERO PUSH2 0x7E3 JUMPI PUSH2 0x7E2 PUSH2 0x4B7 JUMP JUMPDEST JUMPDEST PUSH0 PUSH2 0x7F0 DUP5 DUP3 DUP6 ADD PUSH2 0x760 JUMP JUMPDEST SWAP2 POP POP SWAP3 SWAP2 POP POP JUMP JUMPDEST PUSH0 DUP2 ISZERO ISZERO SWAP1 POP SWAP2 SWAP1 POP JUMP JUMPDEST PUSH2 0x80D DUP2 PUSH2 0x7F9 JUMP JUMPDEST DUP3 MSTORE POP POP JUMP JUMPDEST PUSH0 DUP2 SWAP1 POP SWAP2 SWAP1 POP JUMP JUMPDEST PUSH2 0x825 DUP2 PUSH2 0x813 JUMP JUMPDEST DUP3 MSTORE POP POP JUMP JUMPDEST PUSH0 PUSH20 0xFFFFFFFFFFFFFFFFFFFFFFFFFFFFFFFFFFFFFFFF DUP3 AND SWAP1 POP SWAP2 SWAP1 POP JUMP JUMPDEST PUSH0 PUSH2 0x854 DUP3 PUSH2 0x82B JUMP JUMPDEST SWAP1 POP SWAP2 SWAP1 POP JUMP JUMPDEST PUSH2 0x864 DUP2 PUSH2 0x84A JUMP JUMPDEST DUP3 MSTORE POP POP JUMP JUMPDEST PUSH0 DUP2 MLOAD SWAP1 POP SWAP2 SWAP1 POP JUMP JUMPDEST PUSH0 DUP3 DUP3 MSTORE PUSH1 0x20 DUP3 ADD SWAP1 POP SWAP3 SWAP2 POP POP JUMP JUMPDEST DUP3 DUP2 DUP4 MCOPY PUSH0 DUP4 DUP4 ADD MSTORE POP POP POP JUMP JUMPDEST PUSH0 PUSH2 0x89C DUP3 PUSH2 0x86A JUMP JUMPDEST PUSH2 0x8A6 DUP2 DUP6 PUSH2 0x874 JUMP JUMPDEST SWAP4 POP PUSH2 0x8B6 DUP2 DUP6 PUSH1 0x20 DUP7 ADD PUSH2 0x884 JUMP JUMPDEST PUSH2 0x8BF DUP2 PUSH2 0x4C7 JUMP JUMPDEST DUP5 ADD SWAP2 POP POP SWAP3 SWAP2 POP POP JUMP JUMPDEST PUSH0 PUSH1 0x80 DUP3 ADD SWAP1 POP PUSH2 0x8DD PUSH0 DUP4 ADD DUP8 PUSH2 0x804 JUMP JUMPDEST PUSH2 0x8EA PUSH1 0x20 DUP4 ADD DUP7 PUSH2 0x81C JUMP JUMPDEST PUSH2 0x8F7 PUSH1 0x40 DUP4 ADD DUP6 PUSH2 0x85B JUMP JUMPDEST DUP2 DUP2 SUB PUSH1 0x60 DUP4 ADD MSTORE PUSH2 0x909 DUP2 DUP5 PUSH2 0x892 JUMP JUMPDEST SWAP1 POP SWAP6 SWAP5 POP POP POP POP POP JUMP JUMPDEST PUSH0 DUP2 SWAP1 POP SWAP3 SWAP2 POP POP JUMP JUMPDEST PUSH0 PUSH2 0x928 DUP3 PUSH2 0x86A JUMP JUMPDEST PUSH2 0x932 DUP2 DUP6 PUSH2 0x914 JUMP JUMPDEST SWAP4 POP PUSH2 0x942 DUP2 DUP6 PUSH1 0x20 DUP7 ADD PUSH2 0x884 JUMP JUMPDEST DUP1 DUP5 ADD SWAP2 POP POP SWAP3 SWAP2 POP POP JUMP JUMPDEST PUSH0 PUSH2 0x959 DUP3 DUP5 PUSH2 0x91E JUMP JUMPDEST SWAP2 POP DUP2 SWAP1 POP SWAP3 SWAP2 POP POP JUMP JUMPDEST PUSH32 0x446F63756D656E7420616C726561647920726567697374657265640000000000 PUSH0 DUP3 ADD MSTORE POP JUMP JUMPDEST PUSH0 PUSH2 0x998 PUSH1 0x1B DUP4 PUSH2 0x874 JUMP JUMPDEST SWAP2 POP PUSH2 0x9A3 DUP3 PUSH2 0x964 JUMP JUMPDEST PUSH1 0x20 DUP3 ADD SWAP1 POP SWAP2 SWAP1 POP JUMP JUMPDEST PUSH0 PUSH1 0x20 DUP3 ADD SWAP1 POP DUP2 DUP2 SUB PUSH0 DUP4 ADD MSTORE PUSH2 0x9C5 DUP2 PUSH2 0x98C JUMP JUMPDEST SWAP1 POP SWAP2 SWAP1 POP JUMP JUMPDEST PUSH32 0x4E487B7100000000000000000000000000000000000000000000000000000000 PUSH0 MSTORE PUSH1 0x22 PUSH1 0x4 MSTORE PUSH1 0x24 PUSH0 REVERT JUMPDEST PUSH0 PUSH1 0x2 DUP3 DIV SWAP1 POP PUSH1 0x1 DUP3 AND DUP1 PUSH2 0xA10 JUMPI PUSH1 0x7F DUP3 AND SWAP2 POP JUMPDEST PUSH1 0x20 DUP3 LT DUP2 SUB PUSH2 0xA23 JUMPI PUSH2 0xA22 PUSH2 0x9CC JUMP JUMPDEST JUMPDEST POP SWAP2 SWAP1 POP JUMP JUMPDEST PUSH0 DUP2 SWAP1 POP DUP2 PUSH0 MSTORE PUSH1 0x20 PUSH0 KECCAK256 SWAP1 POP SWAP2 SWAP1 POP JUMP JUMPDEST PUSH0 PUSH1 0x20 PUSH1 0x1F DUP4 ADD DIV SWAP1 POP SWAP2 SWAP1 POP JUMP JUMPDEST PUSH0 DUP3 DUP3 SHL SWAP1 POP SWAP3 SWAP2 POP POP JUMP JUMPDEST PUSH0 PUSH1 0x8 DUP4 MUL PUSH2 0xA85 PUSH32 0xFFFFFFFFFFFFFFFFFFFFFFFFFFFFFFFFFFFFFFFFFFFFFFFFFFFFFFFFFFFFFFFF DUP3 PUSH2 0xA4A JUMP JUMPDEST PUSH2 0xA8F DUP7 DUP4 PUSH2 0xA4A JUMP JUMPDEST SWAP6 POP DUP1 NOT DUP5 AND SWAP4 POP DUP1 DUP7 AND DUP5 OR SWAP3 POP POP POP SWAP4 SWAP3 POP POP POP JUMP JUMPDEST PUSH0 DUP2 SWAP1 POP SWAP2 SWAP1 POP JUMP JUMPDEST PUSH0 PUSH2 0xACA PUSH2 0xAC5 PUSH2 0xAC0 DUP5 PUSH2 0x813 JUMP JUMPDEST PUSH2 0xAA7 JUMP JUMPDEST PUSH2 0x813 JUMP JUMPDEST SWAP1 POP SWAP2 SWAP1 POP JUMP JUMPDEST PUSH0 DUP2 SWAP1 POP SWAP2 SWAP1 POP JUMP JUMPDEST PUSH2 0xAE3 DUP4 PUSH2 0xAB0 JUMP JUMPDEST PUSH2 0xAF7 PUSH2 0xAEF DUP3 PUSH2 0xAD1 JUMP JUMPDEST DUP5 DUP5 SLOAD PUSH2 0xA56 JUMP JUMPDEST DUP3 SSTORE POP POP POP POP JUMP JUMPDEST PUSH0 SWAP1 JUMP JUMPDEST PUSH2 0xB0B PUSH2 0xAFF JUMP JUMPDEST PUSH2 0xB16 DUP2 DUP5 DUP5 PUSH2 0xADA JUMP JUMPDEST POP POP POP JUMP JUMPDEST JUMPDEST DUP2 DUP2 LT ISZERO PUSH2 0xB39 JUMPI PUSH2 0xB2E PUSH0 DUP3 PUSH2 0xB03 JUMP JUMPDEST PUSH1 0x1 DUP2 ADD SWAP1 POP PUSH2 0xB1C JUMP JUMPDEST POP POP JUMP JUMPDEST PUSH1 0x1F DUP3 GT ISZERO PUSH2 0xB7E JUMPI PUSH2 0xB4F DUP2 PUSH2 0xA29 JUMP JUMPDEST PUSH2 0xB58 DUP5 PUSH2 0xA3B JUMP JUMPDEST DUP2 ADD PUSH1 0x20 DUP6 LT ISZERO PUSH2 0xB67 JUMPI DUP2 SWAP1 POP JUMPDEST PUSH2 0xB7B PUSH2 0xB73 DUP6 PUSH2 0xA3B JUMP JUMPDEST DUP4 ADD DUP3 PUSH2 0xB1B JUMP JUMPDEST POP POP JUMPDEST POP POP POP JUMP JUMPDEST PUSH0 DUP3 DUP3 SHR SWAP1 POP SWAP3 SWAP2 POP POP JUMP JUMPDEST PUSH0 PUSH2 0xB9E PUSH0 NOT DUP5 PUSH1 0x8 MUL PUSH2 0xB83 JUMP JUMPDEST NOT DUP1 DUP4 AND SWAP2 POP POP SWAP3 SWAP2 POP POP JUMP JUMPDEST PUSH0 PUSH2 0xBB6 DUP4 DUP4 PUSH2 0xB8F JUMP JUMPDEST SWAP2 POP DUP3 PUSH1 0x2 MUL DUP3 OR SWAP1 POP SWAP3 SWAP2 POP POP JUMP JUMPDEST PUSH2 0xBCF DUP3 PUSH2 0x86A JUMP JUMPDEST PUSH8 0xFFFFFFFFFFFFFFFF DUP2 GT ISZERO PUSH2 0xBE8 JUMPI PUSH2 0xBE7 PUSH2 0x4D7 JUMP JUMPDEST JUMPDEST PUSH2 0xBF2 DUP3 SLOAD PUSH2 0x9F9 JUMP JUMPDEST PUSH2 0xBFD DUP3 DUP3 DUP6 PUSH2 0xB3D JUMP JUMPDEST PUSH0 PUSH1 0x20 SWAP1 POP PUSH1 0x1F DUP4 GT PUSH1 0x1 DUP2 EQ PUSH2 0xC2E JUMPI PUSH0 DUP5 ISZERO PUSH2 0xC1C JUMPI DUP3 DUP8 ADD MLOAD SWAP1 POP JUMPDEST PUSH2 0xC26 DUP6 DUP3 PUSH2 0xBAB JUMP JUMPDEST DUP7 SSTORE POP PUSH2 0xC8D JUMP JUMPDEST PUSH1 0x1F NOT DUP5 AND PUSH2 0xC3C DUP7 PUSH2 0xA29 JUMP JUMPDEST PUSH0 JUMPDEST DUP3 DUP2 LT ISZERO PUSH2 0xC63 JUMPI DUP5 DUP10 ADD MLOAD DUP3 SSTORE PUSH1 0x1 DUP3 ADD SWAP2 POP PUSH1 0x20 DUP6 ADD SWAP5 POP PUSH1 0x20 DUP2 ADD SWAP1 POP PUSH2 0xC3E JUMP JUMPDEST DUP7 DUP4 LT ISZERO PUSH2 0xC80 JUMPI DUP5 DUP10 ADD MLOAD PUSH2 0xC7C PUSH1 0x1F DUP10 AND DUP3 PUSH2 0xB8F JUMP JUMPDEST DUP4 SSTORE POP JUMPDEST PUSH1 0x1 PUSH1 0x2 DUP9 MUL ADD DUP9 SSTORE POP POP POP JUMPDEST POP POP POP POP POP POP JUMP JUMPDEST PUSH0 PUSH1 0x20 DUP3 ADD SWAP1 POP PUSH2 0xCA8 PUSH0 DUP4 ADD DUP5 PUSH2 0x81C JUMP JUMPDEST SWAP3 SWAP2 POP POP JUMP INVALID LOG2 PUSH5 0x6970667358 0x22 SLT KECCAK256 0xF9 MULMOD 0x25 JUMPDEST SIGNEXTEND 0xE5 CODECOPY PUSH29 0xD6C8EFA38809257F659D31D817B2D365AC47C12AAFA9908C64736F6C63 NUMBER STOP ADDMOD BYTE STOP CALLER "
				},
				"gasEstimates": {
					"creation": {
						"codeDepositCost": "660000",
						"executionCost": "694",
						"totalCost": "660694"
					},
					"external": {
						"calculateHash(string)": "infinite",
						"getUserDocuments()": "infinite",
						"registerDocument(bytes32,string)": "infinite",
						"verifyDocument(bytes32)": "infinite"
					}
				},
				"methodIdentifiers": {
					"calculateHash(string)": "a8cbcecd",
					"getUserDocuments()": "b4638516",
					"registerDocument(bytes32,string)": "fa17185a",
					"verifyDocument(bytes32)": "fe35089f"
				}
			},
			"storageLayout": {
				"storage": [
					{
						"astId": 15,
						"contract": "DocumentRegistry.sol:DocumentRegistry",
						"label": "documents",
						"offset": 0,
						"slot": "0",
						"type": "t_mapping(t_bytes32,t_struct(Document)10_storage)"
					},
					{
						"astId": 20,
						"contract": "DocumentRegistry.sol:DocumentRegistry",
						"label": "userDocuments",
						"offset": 0,
						"slot": "1",
						"type": "t_mapping(t_address,t_array(t_bytes32)dyn_storage)"
					}
				],
				"types": {
					"t_address": {
						"encoding": "inplace",
						"label": "address",
						"numberOfBytes": "20"
					},
					"t_array(t_bytes32)dyn_storage": {
						"base": "t_bytes32",
						"encoding": "dynamic_array",
						"label": "bytes32[]",
						"numberOfBytes": "32"
					},
					"t_bytes32": {
						"encoding": "inplace",
						"label": "bytes32",
						"numberOfBytes": "32"
					},
					"t_mapping(t_address,t_array(t_bytes32)dyn_storage)": {
						"encoding": "mapping",
						"key": "t_address",
						"label": "mapping(address => bytes32[])",
						"numberOfBytes": "32",
						"value": "t_array(t_bytes32)dyn_storage"
					},
					"t_mapping(t_bytes32,t_struct(Document)10_storage)": {
						"encoding": "mapping",
						"key": "t_bytes32",
						"label": "mapping(bytes32 => struct DocumentRegistry.Document)",
						"numberOfBytes": "32",
						"value": "t_struct(Document)10_storage"
					},
					"t_string_storage": {
						"encoding": "bytes",
						"label": "string",
						"numberOfBytes": "32"
					},
					"t_struct(Document)10_storage": {
						"encoding": "inplace",
						"label": "struct DocumentRegistry.Document",
						"members": [
							{
								"astId": 3,
								"contract": "DocumentRegistry.sol:DocumentRegistry",
								"label": "hash",
								"offset": 0,
								"slot": "0",
								"type": "t_bytes32"
							},
							{
								"astId": 5,
								"contract": "DocumentRegistry.sol:DocumentRegistry",
								"label": "timestamp",
								"offset": 0,
								"slot": "1",
								"type": "t_uint256"
							},
							{
								"astId": 7,
								"contract": "DocumentRegistry.sol:DocumentRegistry",
								"label": "owner",
								"offset": 0,
								"slot": "2",
								"type": "t_address"
							},
							{
								"astId": 9,
								"contract": "DocumentRegistry.sol:DocumentRegistry",
								"label": "documentType",
								"offset": 0,
								"slot": "3",
								"type": "t_string_storage"
							}
						],
						"numberOfBytes": "128"
					},
					"t_uint256": {
						"encoding": "inplace",
						"label": "uint256",
						"numberOfBytes": "32"
					}
				}
			},
			"userdoc": {
				"kind": "user",
				"methods": {},
				"version": 1
			}
		}
	}
}