{
	"Arthemetic.sol": {
		"Arithmetic": {
			"abi": [
				{
					"inputs": [
						{
							"internalType": "uint256",
							"name": "a",
							"type": "uint256"
						},
						{
							"internalType": "uint256",
							"name": "b",
							"type": "uint256"
						}
					],
					"name": "add",
					"outputs": [
						{
							"internalType": "uint256",
							"name": "",
							"type": "uint256"
						}
					],
					"stateMutability": "pure",
					"type": "function"
				},
				{
					"inputs": [
						{
							"internalType": "uint256",
							"name": "a",
							"type": "uint256"
						},
						{
							"internalType": "uint256",
							"name": "b",
							"type": "uint256"
						}
					],
					"name": "divide",
					"outputs": [
						{
							"internalType": "uint256",
							"name": "",
							"type": "uint256"
						}
					],
					"stateMutability": "pure",
					"type": "function"
				},
				{
					"inputs": [
						{
							"internalType": "uint256",
							"name": "a",
							"type": "uint256"
						},
						{
							"internalType": "uint256",
							"name": "b",
							"type": "uint256"
						}
					],
					"name": "multiply",
					"outputs": [
						{
							"internalType": "uint256",
							"name": "",
							"type": "uint256"
						}
					],
					"stateMutability": "pure",
					"type": "function"
				},
				{
					"inputs": [
						{
							"internalType": "uint256",
							"name": "a",
							"type": "uint256"
						},
						{
							"internalType": "uint256",
							"name": "b",
							"type": "uint256"
						}
					],
					"name": "subtract",
					"outputs": [
						{
							"internalType": "uint256",
							"name": "",
							"type": "uint256"
						}
					],
					"stateMutability": "pure",
					"type": "function"
				}
			],
			"devdoc": {
				"kind": "dev",
				"methods": {},
				"version": 1
			},
			"evm": {
				"assembly": "    /* \"Arthemetic.sol\":60:782  contract Arithmetic {... */\n  mstore(0x40, 0x80)\n  callvalue\n  dup1\n  iszero\n  tag_1\n  jumpi\n  0x00\n  dup1\n  revert\ntag_1:\n  pop\n  dataSize(sub_0)\n  dup1\n  dataOffset(sub_0)\n  0x00\n  codecopy\n  0x00\n  return\nstop\n\nsub_0: assembly {\n        /* \"Arthemetic.sol\":60:782  contract Arithmetic {... */\n      mstore(0x40, 0x80)\n      callvalue\n      dup1\n      iszero\n      tag_1\n      jumpi\n      0x00\n      dup1\n      revert\n    tag_1:\n      pop\n      jumpi(tag_2, lt(calldatasize, 0x04))\n      shr(0xe0, calldataload(0x00))\n      dup1\n      0x165c4a16\n      eq\n      tag_3\n      jumpi\n      dup1\n      0x3ef5e445\n      eq\n      tag_4\n      jumpi\n      dup1\n      0x771602f7\n      eq\n      tag_5\n      jumpi\n      dup1\n      0xf88e9fbf\n      eq\n      tag_6\n      jumpi\n    tag_2:\n      0x00\n      dup1\n      revert\n        /* \"Arthemetic.sol\":472:573  function multiply(uint256 a, uint256 b) public pure returns (uint256) {... */\n    tag_3:\n      tag_7\n      0x04\n      dup1\n      calldatasize\n      sub\n      dup2\n      add\n      swap1\n      tag_8\n      swap2\n      swap1\n      tag_9\n      jump\t// in\n    tag_8:\n      tag_10\n      jump\t// in\n    tag_7:\n      mload(0x40)\n      tag_11\n      swap2\n      swap1\n      tag_12\n      jump\t// in\n    tag_11:\n      mload(0x40)\n      dup1\n      swap2\n      sub\n      swap1\n      return\n        /* \"Arthemetic.sol\":268:423  function subtract(uint256 a, uint256 b) public pure returns (uint256) {... */\n    tag_4:\n      tag_13\n      0x04\n      dup1\n      calldatasize\n      sub\n      dup2\n      add\n      swap1\n      tag_14\n      swap2\n      swap1\n      tag_9\n      jump\t// in\n    tag_14:\n      tag_15\n      jump\t// in\n    tag_13:\n      mload(0x40)\n      tag_16\n      swap2\n      swap1\n      tag_12\n      jump\t// in\n    tag_16:\n      mload(0x40)\n      dup1\n      swap2\n      sub\n      swap1\n      return\n        /* \"Arthemetic.sol\":123:219  function add(uint256 a, uint256 b) public pure returns (uint256) {... */\n    tag_5:\n      tag_17\n      0x04\n      dup1\n      calldatasize\n      sub\n      dup2\n      add\n      swap1\n      tag_18\n      swap2\n      swap1\n      tag_9\n      jump\t// in\n    tag_18:\n      tag_19\n      jump\t// in\n    tag_17:\n      mload(0x40)\n      tag_20\n      swap2\n      swap1\n      tag_12\n      jump\t// in\n    tag_20:\n      mload(0x40)\n      dup1\n      swap2\n      sub\n      swap1\n      return\n        /* \"Arthemetic.sol\":620:779  function divide(uint256 a, uint256 b) public pure returns (uint256) {... */\n    tag_6:\n      tag_21\n      0x04\n      dup1\n      calldatasize\n      sub\n      dup2\n      add\n      swap1\n      tag_22\n      swap2\n      swap1\n      tag_9\n      jump\t// in\n    tag_22:\n      tag_23\n      jump\t// in\n    tag_21:\n      mload(0x40)\n      tag_24\n      swap2\n      swap1\n      tag_12\n      jump\t// in\n    tag_24:\n      mload(0x40)\n      dup1\n      swap2\n      sub\n      swap1\n      return\n        /* \"Arthemetic.sol\":472:573  function multiply(uint256 a, uint256 b) public pure returns (uint256) {... */\n    tag_10:\n        /* \"Arthemetic.sol\":533:540  uint256 */\n      0x00\n        /* \"Arthemetic.sol\":564:565  b */\n      dup2\n        /* \"Arthemetic.sol\":560:561  a */\n      dup4\n        /* \"Arthemetic.sol\":560:565  a * b */\n      tag_26\n      swap2\n      swap1\n      tag_27\n      jump\t// in\n    tag_26:\n        /* \"Arthemetic.sol\":553:565  return a * b */\n      swap1\n      pop\n        /* \"Arthemetic.sol\":472:573  function multiply(uint256 a, uint256 b) public pure returns (uint256) {... */\n      swap3\n      swap2\n      pop\n      pop\n      jump\t// out\n        /* \"Arthemetic.sol\":268:423  function subtract(uint256 a, uint256 b) public pure returns (uint256) {... */\n    tag_15:\n        /* \"Arthemetic.sol\":329:336  uint256 */\n      0x00\n        /* \"Arthemetic.sol\":362:363  b */\n      dup2\n        /* \"Arthemetic.sol\":357:358  a */\n      dup4\n        /* \"Arthemetic.sol\":357:363  a >= b */\n      lt\n      iszero\n        /* \"Arthemetic.sol\":349:392  require(a >= b, \"Result would be negative\") */\n      tag_29\n      jumpi\n      mload(0x40)\n      0x08c379a000000000000000000000000000000000000000000000000000000000\n      dup2\n      mstore\n      0x04\n      add\n      tag_30\n      swap1\n      tag_31\n      jump\t// in\n    tag_30:\n      mload(0x40)\n      dup1\n      swap2\n      sub\n      swap1\n      revert\n    tag_29:\n        /* \"Arthemetic.sol\":414:415  b */\n      dup2\n        /* \"Arthemetic.sol\":410:411  a */\n      dup4\n        /* \"Arthemetic.sol\":410:415  a - b */\n      tag_32\n      swap2\n      swap1\n      tag_33\n      jump\t// in\n    tag_32:\n        /* \"Arthemetic.sol\":403:415  return a - b */\n      swap1\n      pop\n        /* \"Arthemetic.sol\":268:423  function subtract(uint256 a, uint256 b) public pure returns (uint256) {... */\n      swap3\n      swap2\n      pop\n      pop\n      jump\t// out\n        /* \"Arthemetic.sol\":123:219  function add(uint256 a, uint256 b) public pure returns (uint256) {... */\n    tag_19:\n        /* \"Arthemetic.sol\":179:186  uint256 */\n      0x00\n        /* \"Arthemetic.sol\":210:211  b */\n      dup2\n        /* \"Arthemetic.sol\":206:207  a */\n      dup4\n        /* \"Arthemetic.sol\":206:211  a + b */\n      tag_35\n      swap2\n      swap1\n      tag_36\n      jump\t// in\n    tag_35:\n        /* \"Arthemetic.sol\":199:211  return a + b */\n      swap1\n      pop\n        /* \"Arthemetic.sol\":123:219  function add(uint256 a, uint256 b) public pure returns (uint256) {... */\n      swap3\n      swap2\n      pop\n      pop\n      jump\t// out\n        /* \"Arthemetic.sol\":620:779  function divide(uint256 a, uint256 b) public pure returns (uint256) {... */\n    tag_23:\n        /* \"Arthemetic.sol\":679:686  uint256 */\n      0x00\n        /* \"Arthemetic.sol\":711:712  0 */\n      dup1\n        /* \"Arthemetic.sol\":707:708  b */\n      dup3\n        /* \"Arthemetic.sol\":707:712  b > 0 */\n      gt\n        /* \"Arthemetic.sol\":699:748  require(b > 0, \"Division by zero is not allowed\") */\n      tag_38\n      jumpi\n      mload(0x40)\n      0x08c379a000000000000000000000000000000000000000000000000000000000\n      dup2\n      mstore\n      0x04\n      add\n      tag_39\n      swap1\n      tag_40\n      jump\t// in\n    tag_39:\n      mload(0x40)\n      dup1\n      swap2\n      sub\n      swap1\n      revert\n    tag_38:\n        /* \"Arthemetic.sol\":770:771  b */\n      dup2\n        /* \"Arthemetic.sol\":766:767  a */\n      dup4\n        /* \"Arthemetic.sol\":766:771  a / b */\n      tag_41\n      swap2\n      swap1\n      tag_42\n      jump\t// in\n    tag_41:\n        /* \"Arthemetic.sol\":759:771  return a / b */\n      swap1\n      pop\n        /* \"Arthemetic.sol\":620:779  function divide(uint256 a, uint256 b) public pure returns (uint256) {... */\n      swap3\n      swap2\n      pop\n      pop\n      jump\t// out\n        /* \"#utility.yul\":88:205   */\n    tag_44:\n        /* \"#utility.yul\":197:198   */\n      0x00\n        /* \"#utility.yul\":194:195   */\n      dup1\n        /* \"#utility.yul\":187:199   */\n      revert\n        /* \"#utility.yul\":334:411   */\n    tag_46:\n        /* \"#utility.yul\":371:378   */\n      0x00\n        /* \"#utility.yul\":400:405   */\n      dup2\n        /* \"#utility.yul\":389:405   */\n      swap1\n      pop\n        /* \"#utility.yul\":334:411   */\n      swap2\n      swap1\n      pop\n      jump\t// out\n        /* \"#utility.yul\":417:539   */\n    tag_47:\n        /* \"#utility.yul\":490:514   */\n      tag_63\n        /* \"#utility.yul\":508:513   */\n      dup2\n        /* \"#utility.yul\":490:514   */\n      tag_46\n      jump\t// in\n    tag_63:\n        /* \"#utility.yul\":483:488   */\n      dup2\n        /* \"#utility.yul\":480:515   */\n      eq\n        /* \"#utility.yul\":470:533   */\n      tag_64\n      jumpi\n        /* \"#utility.yul\":529:530   */\n      0x00\n        /* \"#utility.yul\":526:527   */\n      dup1\n        /* \"#utility.yul\":519:531   */\n      revert\n        /* \"#utility.yul\":470:533   */\n    tag_64:\n        /* \"#utility.yul\":417:539   */\n      pop\n      jump\t// out\n        /* \"#utility.yul\":545:684   */\n    tag_48:\n        /* \"#utility.yul\":591:596   */\n      0x00\n        /* \"#utility.yul\":629:635   */\n      dup2\n        /* \"#utility.yul\":616:636   */\n      calldataload\n        /* \"#utility.yul\":607:636   */\n      swap1\n      pop\n        /* \"#utility.yul\":645:678   */\n      tag_66\n        /* \"#utility.yul\":672:677   */\n      dup2\n        /* \"#utility.yul\":645:678   */\n      tag_47\n      jump\t// in\n    tag_66:\n        /* \"#utility.yul\":545:684   */\n      swap3\n      swap2\n      pop\n      pop\n      jump\t// out\n        /* \"#utility.yul\":690:1164   */\n    tag_9:\n        /* \"#utility.yul\":758:764   */\n      0x00\n        /* \"#utility.yul\":766:772   */\n      dup1\n        /* \"#utility.yul\":815:817   */\n      0x40\n        /* \"#utility.yul\":803:812   */\n      dup4\n        /* \"#utility.yul\":794:801   */\n      dup6\n        /* \"#utility.yul\":790:813   */\n      sub\n        /* \"#utility.yul\":786:818   */\n      slt\n        /* \"#utility.yul\":783:902   */\n      iszero\n      tag_68\n      jumpi\n        /* \"#utility.yul\":821:900   */\n      tag_69\n      tag_44\n      jump\t// in\n    tag_69:\n        /* \"#utility.yul\":783:902   */\n    tag_68:\n        /* \"#utility.yul\":941:942   */\n      0x00\n        /* \"#utility.yul\":966:1019   */\n      tag_70\n        /* \"#utility.yul\":1011:1018   */\n      dup6\n        /* \"#utility.yul\":1002:1008   */\n      dup3\n        /* \"#utility.yul\":991:1000   */\n      dup7\n        /* \"#utility.yul\":987:1009   */\n      add\n        /* \"#utility.yul\":966:1019   */\n      tag_48\n      jump\t// in\n    tag_70:\n        /* \"#utility.yul\":956:1019   */\n      swap3\n      pop\n        /* \"#utility.yul\":912:1029   */\n      pop\n        /* \"#utility.yul\":1068:1070   */\n      0x20\n        /* \"#utility.yul\":1094:1147   */\n      tag_71\n        /* \"#utility.yul\":1139:1146   */\n      dup6\n        /* \"#utility.yul\":1130:1136   */\n      dup3\n        /* \"#utility.yul\":1119:1128   */\n      dup7\n        /* \"#utility.yul\":1115:1137   */\n      add\n        /* \"#utility.yul\":1094:1147   */\n      tag_48\n      jump\t// in\n    tag_71:\n        /* \"#utility.yul\":1084:1147   */\n      swap2\n      pop\n        /* \"#utility.yul\":1039:1157   */\n      pop\n        /* \"#utility.yul\":690:1164   */\n      swap3\n      pop\n      swap3\n      swap1\n      pop\n      jump\t// out\n        /* \"#utility.yul\":1170:1288   */\n    tag_49:\n        /* \"#utility.yul\":1257:1281   */\n      tag_73\n        /* \"#utility.yul\":1275:1280   */\n      dup2\n        /* \"#utility.yul\":1257:1281   */\n      tag_46\n      jump\t// in\n    tag_73:\n        /* \"#utility.yul\":1252:1255   */\n      dup3\n        /* \"#utility.yul\":1245:1282   */\n      mstore\n        /* \"#utility.yul\":1170:1288   */\n      pop\n      pop\n      jump\t// out\n        /* \"#utility.yul\":1294:1516   */\n    tag_12:\n        /* \"#utility.yul\":1387:1391   */\n      0x00\n        /* \"#utility.yul\":1425:1427   */\n      0x20\n        /* \"#utility.yul\":1414:1423   */\n      dup3\n        /* \"#utility.yul\":1410:1428   */\n      add\n        /* \"#utility.yul\":1402:1428   */\n      swap1\n      pop\n        /* \"#utility.yul\":1438:1509   */\n      tag_75\n        /* \"#utility.yul\":1506:1507   */\n      0x00\n        /* \"#utility.yul\":1495:1504   */\n      dup4\n        /* \"#utility.yul\":1491:1508   */\n      add\n        /* \"#utility.yul\":1482:1488   */\n      dup5\n        /* \"#utility.yul\":1438:1509   */\n      tag_49\n      jump\t// in\n    tag_75:\n        /* \"#utility.yul\":1294:1516   */\n      swap3\n      swap2\n      pop\n      pop\n      jump\t// out\n        /* \"#utility.yul\":1522:1702   */\n    tag_50:\n        /* \"#utility.yul\":1570:1647   */\n      0x4e487b7100000000000000000000000000000000000000000000000000000000\n        /* \"#utility.yul\":1567:1568   */\n      0x00\n        /* \"#utility.yul\":1560:1648   */\n      mstore\n        /* \"#utility.yul\":1667:1671   */\n      0x11\n        /* \"#utility.yul\":1664:1665   */\n      0x04\n        /* \"#utility.yul\":1657:1672   */\n      mstore\n        /* \"#utility.yul\":1691:1695   */\n      0x24\n        /* \"#utility.yul\":1688:1689   */\n      0x00\n        /* \"#utility.yul\":1681:1696   */\n      revert\n        /* \"#utility.yul\":1708:2118   */\n    tag_27:\n        /* \"#utility.yul\":1748:1755   */\n      0x00\n        /* \"#utility.yul\":1771:1791   */\n      tag_78\n        /* \"#utility.yul\":1789:1790   */\n      dup3\n        /* \"#utility.yul\":1771:1791   */\n      tag_46\n      jump\t// in\n    tag_78:\n        /* \"#utility.yul\":1766:1791   */\n      swap2\n      pop\n        /* \"#utility.yul\":1805:1825   */\n      tag_79\n        /* \"#utility.yul\":1823:1824   */\n      dup4\n        /* \"#utility.yul\":1805:1825   */\n      tag_46\n      jump\t// in\n    tag_79:\n        /* \"#utility.yul\":1800:1825   */\n      swap3\n      pop\n        /* \"#utility.yul\":1860:1861   */\n      dup3\n        /* \"#utility.yul\":1857:1858   */\n      dup3\n        /* \"#utility.yul\":1853:1862   */\n      mul\n        /* \"#utility.yul\":1882:1912   */\n      tag_80\n        /* \"#utility.yul\":1900:1911   */\n      dup2\n        /* \"#utility.yul\":1882:1912   */\n      tag_46\n      jump\t// in\n    tag_80:\n        /* \"#utility.yul\":1871:1912   */\n      swap2\n      pop\n        /* \"#utility.yul\":2061:2062   */\n      dup3\n        /* \"#utility.yul\":2052:2059   */\n      dup3\n        /* \"#utility.yul\":2048:2063   */\n      div\n        /* \"#utility.yul\":2045:2046   */\n      dup5\n        /* \"#utility.yul\":2042:2064   */\n      eq\n        /* \"#utility.yul\":2022:2023   */\n      dup4\n        /* \"#utility.yul\":2015:2024   */\n      iszero\n        /* \"#utility.yul\":1995:2078   */\n      or\n        /* \"#utility.yul\":1972:2111   */\n      tag_81\n      jumpi\n        /* \"#utility.yul\":2091:2109   */\n      tag_82\n      tag_50\n      jump\t// in\n    tag_82:\n        /* \"#utility.yul\":1972:2111   */\n    tag_81:\n        /* \"#utility.yul\":1756:2118   */\n      pop\n        /* \"#utility.yul\":1708:2118   */\n      swap3\n      swap2\n      pop\n      pop\n      jump\t// out\n        /* \"#utility.yul\":2124:2293   */\n    tag_51:\n        /* \"#utility.yul\":2208:2219   */\n      0x00\n        /* \"#utility.yul\":2242:2248   */\n      dup3\n        /* \"#utility.yul\":2237:2240   */\n      dup3\n        /* \"#utility.yul\":2230:2249   */\n      mstore\n        /* \"#utility.yul\":2282:2286   */\n      0x20\n        /* \"#utility.yul\":2277:2280   */\n      dup3\n        /* \"#utility.yul\":2273:2287   */\n      add\n        /* \"#utility.yul\":2258:2287   */\n      swap1\n      pop\n        /* \"#utility.yul\":2124:2293   */\n      swap3\n      swap2\n      pop\n      pop\n      jump\t// out\n        /* \"#utility.yul\":2299:2473   */\n    tag_52:\n        /* \"#utility.yul\":2439:2465   */\n      0x526573756c7420776f756c64206265206e656761746976650000000000000000\n        /* \"#utility.yul\":2435:2436   */\n      0x00\n        /* \"#utility.yul\":2427:2433   */\n      dup3\n        /* \"#utility.yul\":2423:2437   */\n      add\n        /* \"#utility.yul\":2416:2466   */\n      mstore\n        /* \"#utility.yul\":2299:2473   */\n      pop\n      jump\t// out\n        /* \"#utility.yul\":2479:2845   */\n    tag_53:\n        /* \"#utility.yul\":2621:2624   */\n      0x00\n        /* \"#utility.yul\":2642:2709   */\n      tag_86\n        /* \"#utility.yul\":2706:2708   */\n      0x18\n        /* \"#utility.yul\":2701:2704   */\n      dup4\n        /* \"#utility.yul\":2642:2709   */\n      tag_51\n      jump\t// in\n    tag_86:\n        /* \"#utility.yul\":2635:2709   */\n      swap2\n      pop\n        /* \"#utility.yul\":2718:2811   */\n      tag_87\n        /* \"#utility.yul\":2807:2810   */\n      dup3\n        /* \"#utility.yul\":2718:2811   */\n      tag_52\n      jump\t// in\n    tag_87:\n        /* \"#utility.yul\":2836:2838   */\n      0x20\n        /* \"#utility.yul\":2831:2834   */\n      dup3\n        /* \"#utility.yul\":2827:2839   */\n      add\n        /* \"#utility.yul\":2820:2839   */\n      swap1\n      pop\n        /* \"#utility.yul\":2479:2845   */\n      swap2\n      swap1\n      pop\n      jump\t// out\n        /* \"#utility.yul\":2851:3270   */\n    tag_31:\n        /* \"#utility.yul\":3017:3021   */\n      0x00\n        /* \"#utility.yul\":3055:3057   */\n      0x20\n        /* \"#utility.yul\":3044:3053   */\n      dup3\n        /* \"#utility.yul\":3040:3058   */\n      add\n        /* \"#utility.yul\":3032:3058   */\n      swap1\n      pop\n        /* \"#utility.yul\":3104:3113   */\n      dup2\n        /* \"#utility.yul\":3098:3102   */\n      dup2\n        /* \"#utility.yul\":3094:3114   */\n      sub\n        /* \"#utility.yul\":3090:3091   */\n      0x00\n        /* \"#utility.yul\":3079:3088   */\n      dup4\n        /* \"#utility.yul\":3075:3092   */\n      add\n        /* \"#utility.yul\":3068:3115   */\n      mstore\n        /* \"#utility.yul\":3132:3263   */\n      tag_89\n        /* \"#utility.yul\":3258:3262   */\n      dup2\n        /* \"#utility.yul\":3132:3263   */\n      tag_53\n      jump\t// in\n    tag_89:\n        /* \"#utility.yul\":3124:3263   */\n      swap1\n      pop\n        /* \"#utility.yul\":2851:3270   */\n      swap2\n      swap1\n      pop\n      jump\t// out\n        /* \"#utility.yul\":3276:3470   */\n    tag_33:\n        /* \"#utility.yul\":3316:3320   */\n      0x00\n        /* \"#utility.yul\":3336:3356   */\n      tag_91\n        /* \"#utility.yul\":3354:3355   */\n      dup3\n        /* \"#utility.yul\":3336:3356   */\n      tag_46\n      jump\t// in\n    tag_91:\n        /* \"#utility.yul\":3331:3356   */\n      swap2\n      pop\n        /* \"#utility.yul\":3370:3390   */\n      tag_92\n        /* \"#utility.yul\":3388:3389   */\n      dup4\n        /* \"#utility.yul\":3370:3390   */\n      tag_46\n      jump\t// in\n    tag_92:\n        /* \"#utility.yul\":3365:3390   */\n      swap3\n      pop\n        /* \"#utility.yul\":3414:3415   */\n      dup3\n        /* \"#utility.yul\":3411:3412   */\n      dup3\n        /* \"#utility.yul\":3407:3416   */\n      sub\n        /* \"#utility.yul\":3399:3416   */\n      swap1\n      pop\n        /* \"#utility.yul\":3438:3439   */\n      dup2\n        /* \"#utility.yul\":3432:3436   */\n      dup2\n        /* \"#utility.yul\":3429:3440   */\n      gt\n        /* \"#utility.yul\":3426:3463   */\n      iszero\n      tag_93\n      jumpi\n        /* \"#utility.yul\":3443:3461   */\n      tag_94\n      tag_50\n      jump\t// in\n    tag_94:\n        /* \"#utility.yul\":3426:3463   */\n    tag_93:\n        /* \"#utility.yul\":3276:3470   */\n      swap3\n      swap2\n      pop\n      pop\n      jump\t// out\n        /* \"#utility.yul\":3476:3667   */\n    tag_36:\n        /* \"#utility.yul\":3516:3519   */\n      0x00\n        /* \"#utility.yul\":3535:3555   */\n      tag_96\n        /* \"#utility.yul\":3553:3554   */\n      dup3\n        /* \"#utility.yul\":3535:3555   */\n      tag_46\n      jump\t// in\n    tag_96:\n        /* \"#utility.yul\":3530:3555   */\n      swap2\n      pop\n        /* \"#utility.yul\":3569:3589   */\n      tag_97\n        /* \"#utility.yul\":3587:3588   */\n      dup4\n        /* \"#utility.yul\":3569:3589   */\n      tag_46\n      jump\t// in\n    tag_97:\n        /* \"#utility.yul\":3564:3589   */\n      swap3\n      pop\n        /* \"#utility.yul\":3612:3613   */\n      dup3\n        /* \"#utility.yul\":3609:3610   */\n      dup3\n        /* \"#utility.yul\":3605:3614   */\n      add\n        /* \"#utility.yul\":3598:3614   */\n      swap1\n      pop\n        /* \"#utility.yul\":3633:3636   */\n      dup1\n        /* \"#utility.yul\":3630:3631   */\n      dup3\n        /* \"#utility.yul\":3627:3637   */\n      gt\n        /* \"#utility.yul\":3624:3660   */\n      iszero\n      tag_98\n      jumpi\n        /* \"#utility.yul\":3640:3658   */\n      tag_99\n      tag_50\n      jump\t// in\n    tag_99:\n        /* \"#utility.yul\":3624:3660   */\n    tag_98:\n        /* \"#utility.yul\":3476:3667   */\n      swap3\n      swap2\n      pop\n      pop\n      jump\t// out\n        /* \"#utility.yul\":3673:3854   */\n    tag_54:\n        /* \"#utility.yul\":3813:3846   */\n      0x4469766973696f6e206279207a65726f206973206e6f7420616c6c6f77656400\n        /* \"#utility.yul\":3809:3810   */\n      0x00\n        /* \"#utility.yul\":3801:3807   */\n      dup3\n        /* \"#utility.yul\":3797:3811   */\n      add\n        /* \"#utility.yul\":3790:3847   */\n      mstore\n        /* \"#utility.yul\":3673:3854   */\n      pop\n      jump\t// out\n        /* \"#utility.yul\":3860:4226   */\n    tag_55:\n        /* \"#utility.yul\":4002:4005   */\n      0x00\n        /* \"#utility.yul\":4023:4090   */\n      tag_102\n        /* \"#utility.yul\":4087:4089   */\n      0x1f\n        /* \"#utility.yul\":4082:4085   */\n      dup4\n        /* \"#utility.yul\":4023:4090   */\n      tag_51\n      jump\t// in\n    tag_102:\n        /* \"#utility.yul\":4016:4090   */\n      swap2\n      pop\n        /* \"#utility.yul\":4099:4192   */\n      tag_103\n        /* \"#utility.yul\":4188:4191   */\n      dup3\n        /* \"#utility.yul\":4099:4192   */\n      tag_54\n      jump\t// in\n    tag_103:\n        /* \"#utility.yul\":4217:4219   */\n      0x20\n        /* \"#utility.yul\":4212:4215   */\n      dup3\n        /* \"#utility.yul\":4208:4220   */\n      add\n        /* \"#utility.yul\":4201:4220   */\n      swap1\n      pop\n        /* \"#utility.yul\":3860:4226   */\n      swap2\n      swap1\n      pop\n      jump\t// out\n        /* \"#utility.yul\":4232:4651   */\n    tag_40:\n        /* \"#utility.yul\":4398:4402   */\n      0x00\n        /* \"#utility.yul\":4436:4438   */\n      0x20\n        /* \"#utility.yul\":4425:4434   */\n      dup3\n        /* \"#utility.yul\":4421:4439   */\n      add\n        /* \"#utility.yul\":4413:4439   */\n      swap1\n      pop\n        /* \"#utility.yul\":4485:4494   */\n      dup2\n        /* \"#utility.yul\":4479:4483   */\n      dup2\n        /* \"#utility.yul\":4475:4495   */\n      sub\n        /* \"#utility.yul\":4471:4472   */\n      0x00\n        /* \"#utility.yul\":4460:4469   */\n      dup4\n        /* \"#utility.yul\":4456:4473   */\n      add\n        /* \"#utility.yul\":4449:4496   */\n      mstore\n        /* \"#utility.yul\":4513:4644   */\n      tag_105\n        /* \"#utility.yul\":4639:4643   */\n      dup2\n        /* \"#utility.yul\":4513:4644   */\n      tag_55\n      jump\t// in\n    tag_105:\n        /* \"#utility.yul\":4505:4644   */\n      swap1\n      pop\n        /* \"#utility.yul\":4232:4651   */\n      swap2\n      swap1\n      pop\n      jump\t// out\n        /* \"#utility.yul\":4657:4837   */\n    tag_56:\n        /* \"#utility.yul\":4705:4782   */\n      0x4e487b7100000000000000000000000000000000000000000000000000000000\n        /* \"#utility.yul\":4702:4703   */\n      0x00\n        /* \"#utility.yul\":4695:4783   */\n      mstore\n        /* \"#utility.yul\":4802:4806   */\n      0x12\n        /* \"#utility.yul\":4799:4800   */\n      0x04\n        /* \"#utility.yul\":4792:4807   */\n      mstore\n        /* \"#utility.yul\":4826:4830   */\n      0x24\n        /* \"#utility.yul\":4823:4824   */\n      0x00\n        /* \"#utility.yul\":4816:4831   */\n      revert\n        /* \"#utility.yul\":4843:5028   */\n    tag_42:\n        /* \"#utility.yul\":4883:4884   */\n      0x00\n        /* \"#utility.yul\":4900:4920   */\n      tag_108\n        /* \"#utility.yul\":4918:4919   */\n      dup3\n        /* \"#utility.yul\":4900:4920   */\n      tag_46\n      jump\t// in\n    tag_108:\n        /* \"#utility.yul\":4895:4920   */\n      swap2\n      pop\n        /* \"#utility.yul\":4934:4954   */\n      tag_109\n        /* \"#utility.yul\":4952:4953   */\n      dup4\n        /* \"#utility.yul\":4934:4954   */\n      tag_46\n      jump\t// in\n    tag_109:\n        /* \"#utility.yul\":4929:4954   */\n      swap3\n      pop\n        /* \"#utility.yul\":4973:4974   */\n      dup3\n        /* \"#utility.yul\":4963:4998   */\n      tag_110\n      jumpi\n        /* \"#utility.yul\":4978:4996   */\n      tag_111\n      tag_56\n      jump\t// in\n    tag_111:\n        /* \"#utility.yul\":4963:4998   */\n    tag_110:\n        /* \"#utility.yul\":5020:5021   */\n      dup3\n        /* \"#utility.yul\":5017:5018   */\n      dup3\n        /* \"#utility.yul\":5013:5022   */\n      div\n        /* \"#utility.yul\":5008:5022   */\n      swap1\n      pop\n        /* \"#utility.yul\":4843:5028   */\n      swap3\n      swap2\n      pop\n      pop\n      jump\t// out\n\n    auxdata: 0xa264697066735822122008312a17c980aae18d5298e1ac03e102df3256bc23a4d391776a53634a0de3e164736f6c634300081a0033\n}\n",
				"bytecode": {
					"linkReferences": {},
					"object": "6080604052348015600e575f80fd5b506104cb8061001c5f395ff3fe608060405234801561000f575f80fd5b506004361061004a575f3560e01c8063165c4a161461004e5780633ef5e4451461007e578063771602f7146100ae578063f88e9fbf146100de575b5f80fd5b6100686004803603810190610063919061021e565b61010e565b604051610075919061026b565b60405180910390f35b6100986004803603810190610093919061021e565b610123565b6040516100a5919061026b565b60405180910390f35b6100c860048036038101906100c3919061021e565b61017b565b6040516100d5919061026b565b60405180910390f35b6100f860048036038101906100f3919061021e565b610190565b604051610105919061026b565b60405180910390f35b5f818361011b91906102b1565b905092915050565b5f81831015610167576040517f08c379a000000000000000000000000000000000000000000000000000000000815260040161015e9061034c565b60405180910390fd5b8183610173919061036a565b905092915050565b5f8183610188919061039d565b905092915050565b5f8082116101d3576040517f08c379a00000000000000000000000000000000000000000000000000000000081526004016101ca9061041a565b60405180910390fd5b81836101df9190610465565b905092915050565b5f80fd5b5f819050919050565b6101fd816101eb565b8114610207575f80fd5b50565b5f81359050610218816101f4565b92915050565b5f8060408385031215610234576102336101e7565b5b5f6102418582860161020a565b92505060206102528582860161020a565b9150509250929050565b610265816101eb565b82525050565b5f60208201905061027e5f83018461025c565b92915050565b7f4e487b71000000000000000000000000000000000000000000000000000000005f52601160045260245ffd5b5f6102bb826101eb565b91506102c6836101eb565b92508282026102d4816101eb565b915082820484148315176102eb576102ea610284565b5b5092915050565b5f82825260208201905092915050565b7f526573756c7420776f756c64206265206e6567617469766500000000000000005f82015250565b5f6103366018836102f2565b915061034182610302565b602082019050919050565b5f6020820190508181035f8301526103638161032a565b9050919050565b5f610374826101eb565b915061037f836101eb565b925082820390508181111561039757610396610284565b5b92915050565b5f6103a7826101eb565b91506103b2836101eb565b92508282019050808211156103ca576103c9610284565b5b92915050565b7f4469766973696f6e206279207a65726f206973206e6f7420616c6c6f776564005f82015250565b5f610404601f836102f2565b915061040f826103d0565b602082019050919050565b5f6020820190508181035f830152610431816103f8565b9050919050565b7f4e487b71000000000000000000000000000000000000000000000000000000005f52601260045260245ffd5b5f61046f826101eb565b915061047a836101eb565b92508261048a57610489610438565b5b82820490509291505056fea264697066735822122008312a17c980aae18d5298e1ac03e102df3256bc23a4d391776a53634a0de3e164736f6c634300081a0033",
					"opcodes": "PUSH1 0x80 PUSH1 0x40 MSTORE CALLVALUE DUP1 ISZERO PUSH1 0xE JUMPI PUSH0 DUP1 REVERT JUMPDEST POP PUSH2 0x4CB DUP1 PUSH2 0x1C PUSH0 CODECOPY PUSH0 RETURN INVALID PUSH1 0x80 PUSH1 0x40 MSTORE CALLVALUE DUP1 ISZERO PUSH2 0xF JUMPI PUSH0 DUP1 REVERT JUMPDEST POP PUSH1 0x4 CALLDATASIZE LT PUSH2 0x4A JUMPI PUSH0 CALLDATALOAD PUSH1 0xE0 SHR DUP1 PUSH4 0x165C4A16 EQ PUSH2 0x4E JUMPI DUP1 PUSH4 0x3EF5E445 EQ PUSH2 0x7E JUMPI DUP1 PUSH4 0x771602F7 EQ PUSH2 0xAE JUMPI DUP1 PUSH4 0xF88E9FBF EQ PUSH2 0xDE JUMPI JUMPDEST PUSH0 DUP1 REVERT JUMPDEST PUSH2 0x68 PUSH1 0x4 DUP1 CALLDATASIZE SUB DUP2 ADD SWAP1 PUSH2 0x63 SWAP2 SWAP1 PUSH2 0x21E JUMP JUMPDEST PUSH2 0x10E JUMP JUMPDEST PUSH1 0x40 MLOAD PUSH2 0x75 SWAP2 SWAP1 PUSH2 0x26B JUMP JUMPDEST PUSH1 0x40 MLOAD DUP1 SWAP2 SUB SWAP1 RETURN JUMPDEST PUSH2 0x98 PUSH1 0x4 DUP1 CALLDATASIZE SUB DUP2 ADD SWAP1 PUSH2 0x93 SWAP2 SWAP1 PUSH2 0x21E JUMP JUMPDEST PUSH2 0x123 JUMP JUMPDEST PUSH1 0x40 MLOAD PUSH2 0xA5 SWAP2 SWAP1 PUSH2 0x26B JUMP JUMPDEST PUSH1 0x40 MLOAD DUP1 SWAP2 SUB SWAP1 RETURN JUMPDEST PUSH2 0xC8 PUSH1 0x4 DUP1 CALLDATASIZE SUB DUP2 ADD SWAP1 PUSH2 0xC3 SWAP2 SWAP1 PUSH2 0x21E JUMP JUMPDEST PUSH2 0x17B JUMP JUMPDEST PUSH1 0x40 MLOAD PUSH2 0xD5 SWAP2 SWAP1 PUSH2 0x26B JUMP JUMPDEST PUSH1 0x40 MLOAD DUP1 SWAP2 SUB SWAP1 RETURN JUMPDEST PUSH2 0xF8 PUSH1 0x4 DUP1 CALLDATASIZE SUB DUP2 ADD SWAP1 PUSH2 0xF3 SWAP2 SWAP1 PUSH2 0x21E JUMP JUMPDEST PUSH2 0x190 JUMP JUMPDEST PUSH1 0x40 MLOAD PUSH2 0x105 SWAP2 SWAP1 PUSH2 0x26B JUMP JUMPDEST PUSH1 0x40 MLOAD DUP1 SWAP2 SUB SWAP1 RETURN JUMPDEST PUSH0 DUP2 DUP4 PUSH2 0x11B SWAP2 SWAP1 PUSH2 0x2B1 JUMP JUMPDEST SWAP1 POP SWAP3 SWAP2 POP POP JUMP JUMPDEST PUSH0 DUP2 DUP4 LT ISZERO PUSH2 0x167 JUMPI PUSH1 0x40 MLOAD PUSH32 0x8C379A000000000000000000000000000000000000000000000000000000000 DUP2 MSTORE PUSH1 0x4 ADD PUSH2 0x15E SWAP1 PUSH2 0x34C JUMP JUMPDEST PUSH1 0x40 MLOAD DUP1 SWAP2 SUB SWAP1 REVERT JUMPDEST DUP2 DUP4 PUSH2 0x173 SWAP2 SWAP1 PUSH2 0x36A JUMP JUMPDEST SWAP1 POP SWAP3 SWAP2 POP POP JUMP JUMPDEST PUSH0 DUP2 DUP4 PUSH2 0x188 SWAP2 SWAP1 PUSH2 0x39D JUMP JUMPDEST SWAP1 POP SWAP3 SWAP2 POP POP JUMP JUMPDEST PUSH0 DUP1 DUP3 GT PUSH2 0x1D3 JUMPI PUSH1 0x40 MLOAD PUSH32 0x8C379A000000000000000000000000000000000000000000000000000000000 DUP2 MSTORE PUSH1 0x4 ADD PUSH2 0x1CA SWAP1 PUSH2 0x41A JUMP JUMPDEST PUSH1 0x40 MLOAD DUP1 SWAP2 SUB SWAP1 REVERT JUMPDEST DUP2 DUP4 PUSH2 0x1DF SWAP2 SWAP1 PUSH2 0x465 JUMP JUMPDEST SWAP1 POP SWAP3 SWAP2 POP POP JUMP JUMPDEST PUSH0 DUP1 REVERT JUMPDEST PUSH0 DUP2 SWAP1 POP SWAP2 SWAP1 POP JUMP JUMPDEST PUSH2 0x1FD DUP2 PUSH2 0x1EB JUMP JUMPDEST DUP2 EQ PUSH2 0x207 JUMPI PUSH0 DUP1 REVERT JUMPDEST POP JUMP JUMPDEST PUSH0 DUP2 CALLDATALOAD SWAP1 POP PUSH2 0x218 DUP2 PUSH2 0x1F4 JUMP JUMPDEST SWAP3 SWAP2 POP POP JUMP JUMPDEST PUSH0 DUP1 PUSH1 0x40 DUP4 DUP6 SUB SLT ISZERO PUSH2 0x234 JUMPI PUSH2 0x233 PUSH2 0x1E7 JUMP JUMPDEST JUMPDEST PUSH0 PUSH2 0x241 DUP6 DUP3 DUP7 ADD PUSH2 0x20A JUMP JUMPDEST SWAP3 POP POP PUSH1 0x20 PUSH2 0x252 DUP6 DUP3 DUP7 ADD PUSH2 0x20A JUMP JUMPDEST SWAP2 POP POP SWAP3 POP SWAP3 SWAP1 POP JUMP JUMPDEST PUSH2 0x265 DUP2 PUSH2 0x1EB JUMP JUMPDEST DUP3 MSTORE POP POP JUMP JUMPDEST PUSH0 PUSH1 0x20 DUP3 ADD SWAP1 POP PUSH2 0x27E PUSH0 DUP4 ADD DUP5 PUSH2 0x25C JUMP JUMPDEST SWAP3 SWAP2 POP POP JUMP JUMPDEST PUSH32 0x4E487B7100000000000000000000000000000000000000000000000000000000 PUSH0 MSTORE PUSH1 0x11 PUSH1 0x4 MSTORE PUSH1 0x24 PUSH0 REVERT JUMPDEST PUSH0 PUSH2 0x2BB DUP3 PUSH2 0x1EB JUMP JUMPDEST SWAP2 POP PUSH2 0x2C6 DUP4 PUSH2 0x1EB JUMP JUMPDEST SWAP3 POP DUP3 DUP3 MUL PUSH2 0x2D4 DUP2 PUSH2 0x1EB JUMP JUMPDEST SWAP2 POP DUP3 DUP3 DIV DUP5 EQ DUP4 ISZERO OR PUSH2 0x2EB JUMPI PUSH2 0x2EA PUSH2 0x284 JUMP JUMPDEST JUMPDEST POP SWAP3 SWAP2 POP POP JUMP JUMPDEST PUSH0 DUP3 DUP3 MSTORE PUSH1 0x20 DUP3 ADD SWAP1 POP SWAP3 SWAP2 POP POP JUMP JUMPDEST PUSH32 0x526573756C7420776F756C64206265206E656761746976650000000000000000 PUSH0 DUP3 ADD MSTORE POP JUMP JUMPDEST PUSH0 PUSH2 0x336 PUSH1 0x18 DUP4 PUSH2 0x2F2 JUMP JUMPDEST SWAP2 POP PUSH2 0x341 DUP3 PUSH2 0x302 JUMP JUMPDEST PUSH1 0x20 DUP3 ADD SWAP1 POP SWAP2 SWAP1 POP JUMP JUMPDEST PUSH0 PUSH1 0x20 DUP3 ADD SWAP1 POP DUP2 DUP2 SUB PUSH0 DUP4 ADD MSTORE PUSH2 0x363 DUP2 PUSH2 0x32A JUMP JUMPDEST SWAP1 POP SWAP2 SWAP1 POP JUMP JUMPDEST PUSH0 PUSH2 0x374 DUP3 PUSH2 0x1EB JUMP JUMPDEST SWAP2 POP PUSH2 0x37F DUP4 PUSH2 0x1EB JUMP JUMPDEST SWAP3 POP DUP3 DUP3 SUB SWAP1 POP DUP2 DUP2 GT ISZERO PUSH2 0x397 JUMPI PUSH2 0x396 PUSH2 0x284 JUMP JUMPDEST JUMPDEST SWAP3 SWAP2 POP POP JUMP JUMPDEST PUSH0 PUSH2 0x3A7 DUP3 PUSH2 0x1EB JUMP JUMPDEST SWAP2 POP PUSH2 0x3B2 DUP4 PUSH2 0x1EB JUMP JUMPDEST SWAP3 POP DUP3 DUP3 ADD SWAP1 POP DUP1 DUP3 GT ISZERO PUSH2 0x3CA JUMPI PUSH2 0x3C9 PUSH2 0x284 JUMP JUMPDEST JUMPDEST SWAP3 SWAP2 POP POP JUMP JUMPDEST PUSH32 0x4469766973696F6E206279207A65726F206973206E6F7420616C6C6F77656400 PUSH0 DUP3 ADD MSTORE POP JUMP JUMPDEST PUSH0 PUSH2 0x404 PUSH1 0x1F DUP4 PUSH2 0x2F2 JUMP JUMPDEST SWAP2 POP PUSH2 0x40F DUP3 PUSH2 0x3D0 JUMP JUMPDEST PUSH1 0x20 DUP3 ADD SWAP1 POP SWAP2 SWAP1 POP JUMP JUMPDEST PUSH0 PUSH1 0x20 DUP3 ADD SWAP1 POP DUP2 DUP2 SUB PUSH0 DUP4 ADD MSTORE PUSH2 0x431 DUP2 PUSH2 0x3F8 JUMP JUMPDEST SWAP1 POP SWAP2 SWAP1 POP JUMP JUMPDEST PUSH32 0x4E487B7100000000000000000000000000000000000000000000000000000000 PUSH0 MSTORE PUSH1 0x12 PUSH1 0x4 MSTORE PUSH1 0x24 PUSH0 REVERT JUMPDEST PUSH0 PUSH2 0x46F DUP3 PUSH2 0x1EB JUMP JUMPDEST SWAP2 POP PUSH2 0x47A DUP4 PUSH2 0x1EB JUMP JUMPDEST SWAP3 POP DUP3 PUSH2 0x48A JUMPI PUSH2 0x489 PUSH2 0x438 JUMP JUMPDEST JUMPDEST DUP3 DUP3 DIV SWAP1 POP SWAP3 SWAP2 POP POP JUMP INVALID LOG2 PUSH5 0x6970667358 0x22 SLT KECCAK256 ADDMOD BALANCE 0x2A OR 0xC9 DUP1 0xAA 0xE1 DUP14 MSTORE SWAP9 0xE1 0xAC SUB 0xE1 MUL 0xDF ORIGIN JUMP 0xBC 0x23 LOG4 0xD3 SWAP2 PUSH24 0x6A53634A0DE3E164736F6C634300081A0033000000000000 "
				},
				"gasEstimates": {
					"creation": {
						"codeDepositCost": "245400",
						"executionCost": "285",
						"totalCost": "245685"
					},
					"external": {
						"add(uint256,uint256)": "infinite",
						"divide(uint256,uint256)": "infinite",
						"multiply(uint256,uint256)": "infinite",
						"subtract(uint256,uint256)": "infinite"
					}
				},
				"methodIdentifiers": {
					"add(uint256,uint256)": "771602f7",
					"divide(uint256,uint256)": "f88e9fbf",
					"multiply(uint256,uint256)": "165c4a16",
					"subtract(uint256,uint256)": "3ef5e445"
				}
			},
			"storageLayout": {
				"storage": [],
				"types": null
			},
			"userdoc": {
				"kind": "user",
				"methods": {},
				"version": 1
			}
		}
	}
}