{
	"Construction.sol": {
		"SmartConstruction": {
			"abi": [
				{
					"inputs": [],
					"stateMutability": "nonpayable",
					"type": "constructor"
				},
				{
					"anonymous": false,
					"inputs": [
						{
							"indexed": false,
							"internalType": "uint256",
							"name": "projectId",
							"type": "uint256"
						},
						{
							"indexed": false,
							"internalType": "address",
							"name": "contractor",
							"type": "address"
						}
					],
					"name": "ProjectCompleted",
					"type": "event"
				},
				{
					"anonymous": false,
					"inputs": [
						{
							"indexed": false,
							"internalType": "uint256",
							"name": "projectId",
							"type": "uint256"
						},
						{
							"indexed": false,
							"internalType": "string",
							"name": "name",
							"type": "string"
						},
						{
							"indexed": false,
							"internalType": "address",
							"name": "contractor",
							"type": "address"
						},
						{
							"indexed": false,
							"internalType": "uint256",
							"name": "budget",
							"type": "uint256"
						},
						{
							"indexed": false,
							"internalType": "uint256",
							"name": "deadline",
							"type": "uint256"
						}
					],
					"name": "ProjectCreated",
					"type": "event"
				},
				{
					"inputs": [
						{
							"internalType": "string",
							"name": "_name",
							"type": "string"
						},
						{
							"internalType": "address",
							"name": "_contractor",
							"type": "address"
						},
						{
							"internalType": "uint256",
							"name": "_budget",
							"type": "uint256"
						},
						{
							"internalType": "uint256",
							"name": "_deadline",
							"type": "uint256"
						}
					],
					"name": "createProject",
					"outputs": [],
					"stateMutability": "nonpayable",
					"type": "function"
				},
				{
					"inputs": [
						{
							"internalType": "uint256",
							"name": "projectId",
							"type": "uint256"
						}
					],
					"name": "getProjectDetails",
					"outputs": [
						{
							"internalType": "string",
							"name": "",
							"type": "string"
						},
						{
							"internalType": "address",
							"name": "",
							"type": "address"
						},
						{
							"internalType": "uint256",
							"name": "",
							"type": "uint256"
						},
						{
							"internalType": "uint256",
							"name": "",
							"type": "uint256"
						},
						{
							"internalType": "bool",
							"name": "",
							"type": "bool"
						}
					],
					"stateMutability": "view",
					"type": "function"
				},
				{
					"inputs": [
						{
							"internalType": "uint256",
							"name": "projectId",
							"type": "uint256"
						}
					],
					"name": "markProjectCompleted",
					"outputs": [],
					"stateMutability": "nonpayable",
					"type": "function"
				},
				{
					"inputs": [],
					"name": "owner",
					"outputs": [
						{
							"internalType": "address",
							"name": "",
							"type": "address"
						}
					],
					"stateMutability": "view",
					"type": "function"
				},
				{
					"inputs": [],
					"name": "projectCount",
					"outputs": [
						{
							"internalType": "uint256",
							"name": "",
							"type": "uint256"
						}
					],
					"stateMutability": "view",
					"type": "function"
				},
				{
					"inputs": [
						{
							"internalType": "uint256",
							"name": "",
							"type": "uint256"
						}
					],
					"name": "projects",
					"outputs": [
						{
							"internalType": "string",
							"name": "name",
							"type": "string"
						},
						{
							"internalType": "address",
							"name": "contractor",
							"type": "address"
						},
						{
							"internalType": "uint256",
							"name": "budget",
							"type": "uint256"
						},
						{
							"internalType": "uint256",
							"name": "deadline",
							"type": "uint256"
						},
						{
							"internalType": "bool",
							"name": "completed",
							"type": "bool"
						}
					],
					"stateMutability": "view",
					"type": "function"
				}
			],
			"devdoc": {
				"kind": "dev",
				"methods": {},
				"version": 1
			},
			"evm": {
				"assembly": "    /* \"Construction.sol\":60:1777  contract SmartConstruction {... */\n  mstore(0x40, 0x80)\n    /* \"Construction.sol\":856:907  constructor() {... */\n  callvalue\n  dup1\n  iszero\n  tag_1\n  jumpi\n  0x00\n  dup1\n  revert\ntag_1:\n  pop\n    /* \"Construction.sol\":889:899  msg.sender */\n  caller\n    /* \"Construction.sol\":881:886  owner */\n  0x00\n  dup1\n    /* \"Construction.sol\":881:899  owner = msg.sender */\n  0x0100\n  exp\n  dup2\n  sload\n  dup2\n  0xffffffffffffffffffffffffffffffffffffffff\n  mul\n  not\n  and\n  swap1\n  dup4\n  0xffffffffffffffffffffffffffffffffffffffff\n  and\n  mul\n  or\n  swap1\n  sstore\n  pop\n    /* \"Construction.sol\":60:1777  contract SmartConstruction {... */\n  dataSize(sub_0)\n  dup1\n  dataOffset(sub_0)\n  0x00\n  codecopy\n  0x00\n  return\nstop\n\nsub_0: assembly {\n        /* \"Construction.sol\":60:1777  contract SmartConstruction {... */\n      mstore(0x40, 0x80)\n      callvalue\n      dup1\n      iszero\n      tag_1\n      jumpi\n      0x00\n      dup1\n      revert\n    tag_1:\n      pop\n      jumpi(tag_2, lt(calldatasize, 0x04))\n      shr(0xe0, calldataload(0x00))\n      dup1\n      0x107046bd\n      eq\n      tag_3\n      jumpi\n      dup1\n      0x16bfb5d2\n      eq\n      tag_4\n      jumpi\n      dup1\n      0x36fbad26\n      eq\n      tag_5\n      jumpi\n      dup1\n      0x5f8439e3\n      eq\n      tag_6\n      jumpi\n      dup1\n      0x8da5cb5b\n      eq\n      tag_7\n      jumpi\n      dup1\n      0xcb5b7ca0\n      eq\n      tag_8\n      jumpi\n    tag_2:\n      0x00\n      dup1\n      revert\n        /* \"Construction.sol\":280:323  mapping(uint256 => Project) public projects */\n    tag_3:\n      tag_9\n      0x04\n      dup1\n      calldatasize\n      sub\n      dup2\n      add\n      swap1\n      tag_10\n      swap2\n      swap1\n      tag_11\n      jump\t// in\n    tag_10:\n      tag_12\n      jump\t// in\n    tag_9:\n      mload(0x40)\n      tag_13\n      swap6\n      swap5\n      swap4\n      swap3\n      swap2\n      swap1\n      tag_14\n      jump\t// in\n    tag_13:\n      mload(0x40)\n      dup1\n      swap2\n      sub\n      swap1\n      return\n        /* \"Construction.sol\":915:1240  function createProject(string memory _name, address _contractor, uint256 _budget, uint256 _deadline) public onlyOwner {... */\n    tag_4:\n      tag_15\n      0x04\n      dup1\n      calldatasize\n      sub\n      dup2\n      add\n      swap1\n      tag_16\n      swap2\n      swap1\n      tag_17\n      jump\t// in\n    tag_16:\n      tag_18\n      jump\t// in\n    tag_15:\n      stop\n        /* \"Construction.sol\":330:357  uint256 public projectCount */\n    tag_5:\n      tag_19\n      tag_20\n      jump\t// in\n    tag_19:\n      mload(0x40)\n      tag_21\n      swap2\n      swap1\n      tag_22\n      jump\t// in\n    tag_21:\n      mload(0x40)\n      dup1\n      swap2\n      sub\n      swap1\n      return\n        /* \"Construction.sol\":1527:1774  function getProjectDetails(uint256 projectId) public view returns (string memory, address, uint256, uint256, bool) {... */\n    tag_6:\n      tag_23\n      0x04\n      dup1\n      calldatasize\n      sub\n      dup2\n      add\n      swap1\n      tag_24\n      swap2\n      swap1\n      tag_11\n      jump\t// in\n    tag_24:\n      tag_25\n      jump\t// in\n    tag_23:\n      mload(0x40)\n      tag_26\n      swap6\n      swap5\n      swap4\n      swap3\n      swap2\n      swap1\n      tag_14\n      jump\t// in\n    tag_26:\n      mload(0x40)\n      dup1\n      swap2\n      sub\n      swap1\n      return\n        /* \"Construction.sol\":253:273  address public owner */\n    tag_7:\n      tag_27\n      tag_28\n      jump\t// in\n    tag_27:\n      mload(0x40)\n      tag_29\n      swap2\n      swap1\n      tag_30\n      jump\t// in\n    tag_29:\n      mload(0x40)\n      dup1\n      swap2\n      sub\n      swap1\n      return\n        /* \"Construction.sol\":1248:1519  function markProjectCompleted(uint256 projectId) public onlyContractor(projectId) {... */\n    tag_8:\n      tag_31\n      0x04\n      dup1\n      calldatasize\n      sub\n      dup2\n      add\n      swap1\n      tag_32\n      swap2\n      swap1\n      tag_11\n      jump\t// in\n    tag_32:\n      tag_33\n      jump\t// in\n    tag_31:\n      stop\n        /* \"Construction.sol\":280:323  mapping(uint256 => Project) public projects */\n    tag_12:\n      mstore(0x20, 0x01)\n      dup1\n      0x00\n      mstore\n      keccak256(0x00, 0x40)\n      0x00\n      swap2\n      pop\n      swap1\n      pop\n      dup1\n      0x00\n      add\n      dup1\n      sload\n      tag_34\n      swap1\n      tag_35\n      jump\t// in\n    tag_34:\n      dup1\n      0x1f\n      add\n      0x20\n      dup1\n      swap2\n      div\n      mul\n      0x20\n      add\n      mload(0x40)\n      swap1\n      dup2\n      add\n      0x40\n      mstore\n      dup1\n      swap3\n      swap2\n      swap1\n      dup2\n      dup2\n      mstore\n      0x20\n      add\n      dup3\n      dup1\n      sload\n      tag_36\n      swap1\n      tag_35\n      jump\t// in\n    tag_36:\n      dup1\n      iszero\n      tag_37\n      jumpi\n      dup1\n      0x1f\n      lt\n      tag_38\n      jumpi\n      0x0100\n      dup1\n      dup4\n      sload\n      div\n      mul\n      dup4\n      mstore\n      swap2\n      0x20\n      add\n      swap2\n      jump(tag_37)\n    tag_38:\n      dup3\n      add\n      swap2\n      swap1\n      0x00\n      mstore\n      keccak256(0x00, 0x20)\n      swap1\n    tag_39:\n      dup2\n      sload\n      dup2\n      mstore\n      swap1\n      0x01\n      add\n      swap1\n      0x20\n      add\n      dup1\n      dup4\n      gt\n      tag_39\n      jumpi\n      dup3\n      swap1\n      sub\n      0x1f\n      and\n      dup3\n      add\n      swap2\n    tag_37:\n      pop\n      pop\n      pop\n      pop\n      pop\n      swap1\n      dup1\n      0x01\n      add\n      0x00\n      swap1\n      sload\n      swap1\n      0x0100\n      exp\n      swap1\n      div\n      0xffffffffffffffffffffffffffffffffffffffff\n      and\n      swap1\n      dup1\n      0x02\n      add\n      sload\n      swap1\n      dup1\n      0x03\n      add\n      sload\n      swap1\n      dup1\n      0x04\n      add\n      0x00\n      swap1\n      sload\n      swap1\n      0x0100\n      exp\n      swap1\n      div\n      0xff\n      and\n      swap1\n      pop\n      dup6\n      jump\t// out\n        /* \"Construction.sol\":915:1240  function createProject(string memory _name, address _contractor, uint256 _budget, uint256 _deadline) public onlyOwner {... */\n    tag_18:\n        /* \"Construction.sol\":603:608  owner */\n      0x00\n      dup1\n      sload\n      swap1\n      0x0100\n      exp\n      swap1\n      div\n      0xffffffffffffffffffffffffffffffffffffffff\n      and\n        /* \"Construction.sol\":589:608  msg.sender == owner */\n      0xffffffffffffffffffffffffffffffffffffffff\n      and\n        /* \"Construction.sol\":589:599  msg.sender */\n      caller\n        /* \"Construction.sol\":589:608  msg.sender == owner */\n      0xffffffffffffffffffffffffffffffffffffffff\n      and\n      eq\n        /* \"Construction.sol\":581:647  require(msg.sender == owner, \"Only owner can perform this action\") */\n      tag_41\n      jumpi\n      mload(0x40)\n      0x08c379a000000000000000000000000000000000000000000000000000000000\n      dup2\n      mstore\n      0x04\n      add\n      tag_42\n      swap1\n      tag_43\n      jump\t// in\n    tag_42:\n      mload(0x40)\n      dup1\n      swap2\n      sub\n      swap1\n      revert\n    tag_41:\n        /* \"Construction.sol\":1044:1056  projectCount */\n      0x02\n      0x00\n        /* \"Construction.sol\":1044:1058  projectCount++ */\n      dup2\n      sload\n      dup1\n      swap3\n      swap2\n      swap1\n      tag_45\n      swap1\n      tag_46\n      jump\t// in\n    tag_45:\n      swap2\n      swap1\n      pop\n      sstore\n      pop\n        /* \"Construction.sol\":1094:1148  Project(_name, _contractor, _budget, _deadline, false) */\n      mload(0x40)\n      dup1\n      0xa0\n      add\n      0x40\n      mstore\n      dup1\n        /* \"Construction.sol\":1102:1107  _name */\n      dup6\n        /* \"Construction.sol\":1094:1148  Project(_name, _contractor, _budget, _deadline, false) */\n      dup2\n      mstore\n      0x20\n      add\n        /* \"Construction.sol\":1109:1120  _contractor */\n      dup5\n        /* \"Construction.sol\":1094:1148  Project(_name, _contractor, _budget, _deadline, false) */\n      0xffffffffffffffffffffffffffffffffffffffff\n      and\n      dup2\n      mstore\n      0x20\n      add\n        /* \"Construction.sol\":1122:1129  _budget */\n      dup4\n        /* \"Construction.sol\":1094:1148  Project(_name, _contractor, _budget, _deadline, false) */\n      dup2\n      mstore\n      0x20\n      add\n        /* \"Construction.sol\":1131:1140  _deadline */\n      dup3\n        /* \"Construction.sol\":1094:1148  Project(_name, _contractor, _budget, _deadline, false) */\n      dup2\n      mstore\n      0x20\n      add\n        /* \"Construction.sol\":1142:1147  false */\n      0x00\n        /* \"Construction.sol\":1094:1148  Project(_name, _contractor, _budget, _deadline, false) */\n      iszero\n      iszero\n      dup2\n      mstore\n      pop\n        /* \"Construction.sol\":1069:1077  projects */\n      0x01\n        /* \"Construction.sol\":1069:1091  projects[projectCount] */\n      0x00\n        /* \"Construction.sol\":1078:1090  projectCount */\n      sload(0x02)\n        /* \"Construction.sol\":1069:1091  projects[projectCount] */\n      dup2\n      mstore\n      0x20\n      add\n      swap1\n      dup2\n      mstore\n      0x20\n      add\n      0x00\n      keccak256\n        /* \"Construction.sol\":1069:1148  projects[projectCount] = Project(_name, _contractor, _budget, _deadline, false) */\n      0x00\n      dup3\n      add\n      mload\n      dup2\n      0x00\n      add\n      swap1\n      dup2\n      tag_47\n      swap2\n      swap1\n      tag_48\n      jump\t// in\n    tag_47:\n      pop\n      0x20\n      dup3\n      add\n      mload\n      dup2\n      0x01\n      add\n      exp(0x0100, 0x00)\n      dup2\n      sload\n      dup2\n      0xffffffffffffffffffffffffffffffffffffffff\n      mul\n      not\n      and\n      swap1\n      dup4\n      0xffffffffffffffffffffffffffffffffffffffff\n      and\n      mul\n      or\n      swap1\n      sstore\n      pop\n      0x40\n      dup3\n      add\n      mload\n      dup2\n      0x02\n      add\n      sstore\n      0x60\n      dup3\n      add\n      mload\n      dup2\n      0x03\n      add\n      sstore\n      0x80\n      dup3\n      add\n      mload\n      dup2\n      0x04\n      add\n      exp(0x0100, 0x00)\n      dup2\n      sload\n      dup2\n      0xff\n      mul\n      not\n      and\n      swap1\n      dup4\n      iszero\n      iszero\n      mul\n      or\n      swap1\n      sstore\n      pop\n      swap1\n      pop\n      pop\n        /* \"Construction.sol\":1164:1232  ProjectCreated(projectCount, _name, _contractor, _budget, _deadline) */\n      0xcfbb9cc3bd62a88127a0a357ef5745ce183a4f314f3f36a4302bbe74b89e2f1d\n        /* \"Construction.sol\":1179:1191  projectCount */\n      sload(0x02)\n        /* \"Construction.sol\":1193:1198  _name */\n      dup6\n        /* \"Construction.sol\":1200:1211  _contractor */\n      dup6\n        /* \"Construction.sol\":1213:1220  _budget */\n      dup6\n        /* \"Construction.sol\":1222:1231  _deadline */\n      dup6\n        /* \"Construction.sol\":1164:1232  ProjectCreated(projectCount, _name, _contractor, _budget, _deadline) */\n      mload(0x40)\n      tag_49\n      swap6\n      swap5\n      swap4\n      swap3\n      swap2\n      swap1\n      tag_50\n      jump\t// in\n    tag_49:\n      mload(0x40)\n      dup1\n      swap2\n      sub\n      swap1\n      log1\n        /* \"Construction.sol\":915:1240  function createProject(string memory _name, address _contractor, uint256 _budget, uint256 _deadline) public onlyOwner {... */\n      pop\n      pop\n      pop\n      pop\n      jump\t// out\n        /* \"Construction.sol\":330:357  uint256 public projectCount */\n    tag_20:\n      sload(0x02)\n      dup2\n      jump\t// out\n        /* \"Construction.sol\":1527:1774  function getProjectDetails(uint256 projectId) public view returns (string memory, address, uint256, uint256, bool) {... */\n    tag_25:\n        /* \"Construction.sol\":1594:1607  string memory */\n      0x60\n        /* \"Construction.sol\":1609:1616  address */\n      0x00\n        /* \"Construction.sol\":1618:1625  uint256 */\n      dup1\n        /* \"Construction.sol\":1627:1634  uint256 */\n      0x00\n        /* \"Construction.sol\":1636:1640  bool */\n      dup1\n        /* \"Construction.sol\":1653:1669  Project memory p */\n      0x00\n        /* \"Construction.sol\":1672:1680  projects */\n      0x01\n        /* \"Construction.sol\":1672:1691  projects[projectId] */\n      0x00\n        /* \"Construction.sol\":1681:1690  projectId */\n      dup9\n        /* \"Construction.sol\":1672:1691  projects[projectId] */\n      dup2\n      mstore\n      0x20\n      add\n      swap1\n      dup2\n      mstore\n      0x20\n      add\n      0x00\n      keccak256\n        /* \"Construction.sol\":1653:1691  Project memory p = projects[projectId] */\n      mload(0x40)\n      dup1\n      0xa0\n      add\n      0x40\n      mstore\n      swap1\n      dup2\n      0x00\n      dup3\n      add\n      dup1\n      sload\n      tag_52\n      swap1\n      tag_35\n      jump\t// in\n    tag_52:\n      dup1\n      0x1f\n      add\n      0x20\n      dup1\n      swap2\n      div\n      mul\n      0x20\n      add\n      mload(0x40)\n      swap1\n      dup2\n      add\n      0x40\n      mstore\n      dup1\n      swap3\n      swap2\n      swap1\n      dup2\n      dup2\n      mstore\n      0x20\n      add\n      dup3\n      dup1\n      sload\n      tag_53\n      swap1\n      tag_35\n      jump\t// in\n    tag_53:\n      dup1\n      iszero\n      tag_54\n      jumpi\n      dup1\n      0x1f\n      lt\n      tag_55\n      jumpi\n      0x0100\n      dup1\n      dup4\n      sload\n      div\n      mul\n      dup4\n      mstore\n      swap2\n      0x20\n      add\n      swap2\n      jump(tag_54)\n    tag_55:\n      dup3\n      add\n      swap2\n      swap1\n      0x00\n      mstore\n      keccak256(0x00, 0x20)\n      swap1\n    tag_56:\n      dup2\n      sload\n      dup2\n      mstore\n      swap1\n      0x01\n      add\n      swap1\n      0x20\n      add\n      dup1\n      dup4\n      gt\n      tag_56\n      jumpi\n      dup3\n      swap1\n      sub\n      0x1f\n      and\n      dup3\n      add\n      swap2\n    tag_54:\n      pop\n      pop\n      pop\n      pop\n      pop\n      dup2\n      mstore\n      0x20\n      add\n      0x01\n      dup3\n      add\n      0x00\n      swap1\n      sload\n      swap1\n      0x0100\n      exp\n      swap1\n      div\n      0xffffffffffffffffffffffffffffffffffffffff\n      and\n      0xffffffffffffffffffffffffffffffffffffffff\n      and\n      0xffffffffffffffffffffffffffffffffffffffff\n      and\n      dup2\n      mstore\n      0x20\n      add\n      0x02\n      dup3\n      add\n      sload\n      dup2\n      mstore\n      0x20\n      add\n      0x03\n      dup3\n      add\n      sload\n      dup2\n      mstore\n      0x20\n      add\n      0x04\n      dup3\n      add\n      0x00\n      swap1\n      sload\n      swap1\n      0x0100\n      exp\n      swap1\n      div\n      0xff\n      and\n      iszero\n      iszero\n      iszero\n      iszero\n      dup2\n      mstore\n      pop\n      pop\n      swap1\n      pop\n        /* \"Construction.sol\":1710:1711  p */\n      dup1\n        /* \"Construction.sol\":1710:1716  p.name */\n      0x00\n      add\n      mload\n        /* \"Construction.sol\":1718:1719  p */\n      dup2\n        /* \"Construction.sol\":1718:1730  p.contractor */\n      0x20\n      add\n      mload\n        /* \"Construction.sol\":1732:1733  p */\n      dup3\n        /* \"Construction.sol\":1732:1740  p.budget */\n      0x40\n      add\n      mload\n        /* \"Construction.sol\":1742:1743  p */\n      dup4\n        /* \"Construction.sol\":1742:1752  p.deadline */\n      0x60\n      add\n      mload\n        /* \"Construction.sol\":1754:1755  p */\n      dup5\n        /* \"Construction.sol\":1754:1765  p.completed */\n      0x80\n      add\n      mload\n        /* \"Construction.sol\":1702:1766  return (p.name, p.contractor, p.budget, p.deadline, p.completed) */\n      swap6\n      pop\n      swap6\n      pop\n      swap6\n      pop\n      swap6\n      pop\n      swap6\n      pop\n      pop\n        /* \"Construction.sol\":1527:1774  function getProjectDetails(uint256 projectId) public view returns (string memory, address, uint256, uint256, bool) {... */\n      swap2\n      swap4\n      swap6\n      swap1\n      swap3\n      swap5\n      pop\n      jump\t// out\n        /* \"Construction.sol\":253:273  address public owner */\n    tag_28:\n      0x00\n      dup1\n      sload\n      swap1\n      0x0100\n      exp\n      swap1\n      div\n      0xffffffffffffffffffffffffffffffffffffffff\n      and\n      dup2\n      jump\t// out\n        /* \"Construction.sol\":1248:1519  function markProjectCompleted(uint256 projectId) public onlyContractor(projectId) {... */\n    tag_33:\n        /* \"Construction.sol\":1319:1328  projectId */\n      dup1\n        /* \"Construction.sol\":751:759  projects */\n      0x01\n        /* \"Construction.sol\":751:770  projects[projectId] */\n      0x00\n        /* \"Construction.sol\":760:769  projectId */\n      dup3\n        /* \"Construction.sol\":751:770  projects[projectId] */\n      dup2\n      mstore\n      0x20\n      add\n      swap1\n      dup2\n      mstore\n      0x20\n      add\n      0x00\n      keccak256\n        /* \"Construction.sol\":751:781  projects[projectId].contractor */\n      0x01\n      add\n      0x00\n      swap1\n      sload\n      swap1\n      0x0100\n      exp\n      swap1\n      div\n      0xffffffffffffffffffffffffffffffffffffffff\n      and\n        /* \"Construction.sol\":737:781  msg.sender == projects[projectId].contractor */\n      0xffffffffffffffffffffffffffffffffffffffff\n      and\n        /* \"Construction.sol\":737:747  msg.sender */\n      caller\n        /* \"Construction.sol\":737:781  msg.sender == projects[projectId].contractor */\n      0xffffffffffffffffffffffffffffffffffffffff\n      and\n      eq\n        /* \"Construction.sol\":729:828  require(msg.sender == projects[projectId].contractor, \"Only assigned contractor can update status\") */\n      tag_58\n      jumpi\n      mload(0x40)\n      0x08c379a000000000000000000000000000000000000000000000000000000000\n      dup2\n      mstore\n      0x04\n      add\n      tag_59\n      swap1\n      tag_60\n      jump\t// in\n    tag_59:\n      mload(0x40)\n      dup1\n      swap2\n      sub\n      swap1\n      revert\n    tag_58:\n        /* \"Construction.sol\":1350:1358  projects */\n      0x01\n        /* \"Construction.sol\":1350:1369  projects[projectId] */\n      0x00\n        /* \"Construction.sol\":1359:1368  projectId */\n      dup4\n        /* \"Construction.sol\":1350:1369  projects[projectId] */\n      dup2\n      mstore\n      0x20\n      add\n      swap1\n      dup2\n      mstore\n      0x20\n      add\n      0x00\n      keccak256\n        /* \"Construction.sol\":1350:1379  projects[projectId].completed */\n      0x04\n      add\n      0x00\n      swap1\n      sload\n      swap1\n      0x0100\n      exp\n      swap1\n      div\n      0xff\n      and\n        /* \"Construction.sol\":1349:1379  !projects[projectId].completed */\n      iszero\n        /* \"Construction.sol\":1341:1409  require(!projects[projectId].completed, \"Project already completed\") */\n      tag_62\n      jumpi\n      mload(0x40)\n      0x08c379a000000000000000000000000000000000000000000000000000000000\n      dup2\n      mstore\n      0x04\n      add\n      tag_63\n      swap1\n      tag_64\n      jump\t// in\n    tag_63:\n      mload(0x40)\n      dup1\n      swap2\n      sub\n      swap1\n      revert\n    tag_62:\n        /* \"Construction.sol\":1452:1456  true */\n      0x01\n        /* \"Construction.sol\":1420:1428  projects */\n      dup1\n        /* \"Construction.sol\":1420:1439  projects[projectId] */\n      0x00\n        /* \"Construction.sol\":1429:1438  projectId */\n      dup5\n        /* \"Construction.sol\":1420:1439  projects[projectId] */\n      dup2\n      mstore\n      0x20\n      add\n      swap1\n      dup2\n      mstore\n      0x20\n      add\n      0x00\n      keccak256\n        /* \"Construction.sol\":1420:1449  projects[projectId].completed */\n      0x04\n      add\n      0x00\n        /* \"Construction.sol\":1420:1456  projects[projectId].completed = true */\n      0x0100\n      exp\n      dup2\n      sload\n      dup2\n      0xff\n      mul\n      not\n      and\n      swap1\n      dup4\n      iszero\n      iszero\n      mul\n      or\n      swap1\n      sstore\n      pop\n        /* \"Construction.sol\":1472:1511  ProjectCompleted(projectId, msg.sender) */\n      0x19d564091d6e4d30539008c3982bbd535d6b78c1ee8fde8de41dbb21a7b6f6e3\n        /* \"Construction.sol\":1489:1498  projectId */\n      dup3\n        /* \"Construction.sol\":1500:1510  msg.sender */\n      caller\n        /* \"Construction.sol\":1472:1511  ProjectCompleted(projectId, msg.sender) */\n      mload(0x40)\n      tag_65\n      swap3\n      swap2\n      swap1\n      tag_66\n      jump\t// in\n    tag_65:\n      mload(0x40)\n      dup1\n      swap2\n      sub\n      swap1\n      log1\n        /* \"Construction.sol\":1248:1519  function markProjectCompleted(uint256 projectId) public onlyContractor(projectId) {... */\n      pop\n      pop\n      jump\t// out\n        /* \"#utility.yul\":7:82   */\n    tag_67:\n        /* \"#utility.yul\":40:46   */\n      0x00\n        /* \"#utility.yul\":73:75   */\n      0x40\n        /* \"#utility.yul\":67:76   */\n      mload\n        /* \"#utility.yul\":57:76   */\n      swap1\n      pop\n        /* \"#utility.yul\":7:82   */\n      swap1\n      jump\t// out\n        /* \"#utility.yul\":88:205   */\n    tag_68:\n        /* \"#utility.yul\":197:198   */\n      0x00\n        /* \"#utility.yul\":194:195   */\n      dup1\n        /* \"#utility.yul\":187:199   */\n      revert\n        /* \"#utility.yul\":211:328   */\n    tag_69:\n        /* \"#utility.yul\":320:321   */\n      0x00\n        /* \"#utility.yul\":317:318   */\n      dup1\n        /* \"#utility.yul\":310:322   */\n      revert\n        /* \"#utility.yul\":334:411   */\n    tag_70:\n        /* \"#utility.yul\":371:378   */\n      0x00\n        /* \"#utility.yul\":400:405   */\n      dup2\n        /* \"#utility.yul\":389:405   */\n      swap1\n      pop\n        /* \"#utility.yul\":334:411   */\n      swap2\n      swap1\n      pop\n      jump\t// out\n        /* \"#utility.yul\":417:539   */\n    tag_71:\n        /* \"#utility.yul\":490:514   */\n      tag_124\n        /* \"#utility.yul\":508:513   */\n      dup2\n        /* \"#utility.yul\":490:514   */\n      tag_70\n      jump\t// in\n    tag_124:\n        /* \"#utility.yul\":483:488   */\n      dup2\n        /* \"#utility.yul\":480:515   */\n      eq\n        /* \"#utility.yul\":470:533   */\n      tag_125\n      jumpi\n        /* \"#utility.yul\":529:530   */\n      0x00\n        /* \"#utility.yul\":526:527   */\n      dup1\n        /* \"#utility.yul\":519:531   */\n      revert\n        /* \"#utility.yul\":470:533   */\n    tag_125:\n        /* \"#utility.yul\":417:539   */\n      pop\n      jump\t// out\n        /* \"#utility.yul\":545:684   */\n    tag_72:\n        /* \"#utility.yul\":591:596   */\n      0x00\n        /* \"#utility.yul\":629:635   */\n      dup2\n        /* \"#utility.yul\":616:636   */\n      calldataload\n        /* \"#utility.yul\":607:636   */\n      swap1\n      pop\n        /* \"#utility.yul\":645:678   */\n      tag_127\n        /* \"#utility.yul\":672:677   */\n      dup2\n        /* \"#utility.yul\":645:678   */\n      tag_71\n      jump\t// in\n    tag_127:\n        /* \"#utility.yul\":545:684   */\n      swap3\n      swap2\n      pop\n      pop\n      jump\t// out\n        /* \"#utility.yul\":690:1019   */\n    tag_11:\n        /* \"#utility.yul\":749:755   */\n      0x00\n        /* \"#utility.yul\":798:800   */\n      0x20\n        /* \"#utility.yul\":786:795   */\n      dup3\n        /* \"#utility.yul\":777:784   */\n      dup5\n        /* \"#utility.yul\":773:796   */\n      sub\n        /* \"#utility.yul\":769:801   */\n      slt\n        /* \"#utility.yul\":766:885   */\n      iszero\n      tag_129\n      jumpi\n        /* \"#utility.yul\":804:883   */\n      tag_130\n      tag_68\n      jump\t// in\n    tag_130:\n        /* \"#utility.yul\":766:885   */\n    tag_129:\n        /* \"#utility.yul\":924:925   */\n      0x00\n        /* \"#utility.yul\":949:1002   */\n      tag_131\n        /* \"#utility.yul\":994:1001   */\n      dup5\n        /* \"#utility.yul\":985:991   */\n      dup3\n        /* \"#utility.yul\":974:983   */\n      dup6\n        /* \"#utility.yul\":970:992   */\n      add\n        /* \"#utility.yul\":949:1002   */\n      tag_72\n      jump\t// in\n    tag_131:\n        /* \"#utility.yul\":939:1002   */\n      swap2\n      pop\n        /* \"#utility.yul\":895:1012   */\n      pop\n        /* \"#utility.yul\":690:1019   */\n      swap3\n      swap2\n      pop\n      pop\n      jump\t// out\n        /* \"#utility.yul\":1025:1124   */\n    tag_73:\n        /* \"#utility.yul\":1077:1083   */\n      0x00\n        /* \"#utility.yul\":1111:1116   */\n      dup2\n        /* \"#utility.yul\":1105:1117   */\n      mload\n        /* \"#utility.yul\":1095:1117   */\n      swap1\n      pop\n        /* \"#utility.yul\":1025:1124   */\n      swap2\n      swap1\n      pop\n      jump\t// out\n        /* \"#utility.yul\":1130:1299   */\n    tag_74:\n        /* \"#utility.yul\":1214:1225   */\n      0x00\n        /* \"#utility.yul\":1248:1254   */\n      dup3\n        /* \"#utility.yul\":1243:1246   */\n      dup3\n        /* \"#utility.yul\":1236:1255   */\n      mstore\n        /* \"#utility.yul\":1288:1292   */\n      0x20\n        /* \"#utility.yul\":1283:1286   */\n      dup3\n        /* \"#utility.yul\":1279:1293   */\n      add\n        /* \"#utility.yul\":1264:1293   */\n      swap1\n      pop\n        /* \"#utility.yul\":1130:1299   */\n      swap3\n      swap2\n      pop\n      pop\n      jump\t// out\n        /* \"#utility.yul\":1305:1444   */\n    tag_75:\n        /* \"#utility.yul\":1394:1400   */\n      dup3\n        /* \"#utility.yul\":1389:1392   */\n      dup2\n        /* \"#utility.yul\":1384:1387   */\n      dup4\n        /* \"#utility.yul\":1378:1401   */\n      mcopy\n        /* \"#utility.yul\":1435:1436   */\n      0x00\n        /* \"#utility.yul\":1426:1432   */\n      dup4\n        /* \"#utility.yul\":1421:1424   */\n      dup4\n        /* \"#utility.yul\":1417:1433   */\n      add\n        /* \"#utility.yul\":1410:1437   */\n      mstore\n        /* \"#utility.yul\":1305:1444   */\n      pop\n      pop\n      pop\n      jump\t// out\n        /* \"#utility.yul\":1450:1552   */\n    tag_76:\n        /* \"#utility.yul\":1491:1497   */\n      0x00\n        /* \"#utility.yul\":1542:1544   */\n      0x1f\n        /* \"#utility.yul\":1538:1545   */\n      not\n        /* \"#utility.yul\":1533:1535   */\n      0x1f\n        /* \"#utility.yul\":1526:1531   */\n      dup4\n        /* \"#utility.yul\":1522:1536   */\n      add\n        /* \"#utility.yul\":1518:1546   */\n      and\n        /* \"#utility.yul\":1508:1546   */\n      swap1\n      pop\n        /* \"#utility.yul\":1450:1552   */\n      swap2\n      swap1\n      pop\n      jump\t// out\n        /* \"#utility.yul\":1558:1935   */\n    tag_77:\n        /* \"#utility.yul\":1646:1649   */\n      0x00\n        /* \"#utility.yul\":1674:1713   */\n      tag_137\n        /* \"#utility.yul\":1707:1712   */\n      dup3\n        /* \"#utility.yul\":1674:1713   */\n      tag_73\n      jump\t// in\n    tag_137:\n        /* \"#utility.yul\":1729:1800   */\n      tag_138\n        /* \"#utility.yul\":1793:1799   */\n      dup2\n        /* \"#utility.yul\":1788:1791   */\n      dup6\n        /* \"#utility.yul\":1729:1800   */\n      tag_74\n      jump\t// in\n    tag_138:\n        /* \"#utility.yul\":1722:1800   */\n      swap4\n      pop\n        /* \"#utility.yul\":1809:1874   */\n      tag_139\n        /* \"#utility.yul\":1867:1873   */\n      dup2\n        /* \"#utility.yul\":1862:1865   */\n      dup6\n        /* \"#utility.yul\":1855:1859   */\n      0x20\n        /* \"#utility.yul\":1848:1853   */\n      dup7\n        /* \"#utility.yul\":1844:1860   */\n      add\n        /* \"#utility.yul\":1809:1874   */\n      tag_75\n      jump\t// in\n    tag_139:\n        /* \"#utility.yul\":1899:1928   */\n      tag_140\n        /* \"#utility.yul\":1921:1927   */\n      dup2\n        /* \"#utility.yul\":1899:1928   */\n      tag_76\n      jump\t// in\n    tag_140:\n        /* \"#utility.yul\":1894:1897   */\n      dup5\n        /* \"#utility.yul\":1890:1929   */\n      add\n        /* \"#utility.yul\":1883:1929   */\n      swap2\n      pop\n        /* \"#utility.yul\":1650:1935   */\n      pop\n        /* \"#utility.yul\":1558:1935   */\n      swap3\n      swap2\n      pop\n      pop\n      jump\t// out\n        /* \"#utility.yul\":1941:2067   */\n    tag_78:\n        /* \"#utility.yul\":1978:1985   */\n      0x00\n        /* \"#utility.yul\":2018:2060   */\n      0xffffffffffffffffffffffffffffffffffffffff\n        /* \"#utility.yul\":2011:2016   */\n      dup3\n        /* \"#utility.yul\":2007:2061   */\n      and\n        /* \"#utility.yul\":1996:2061   */\n      swap1\n      pop\n        /* \"#utility.yul\":1941:2067   */\n      swap2\n      swap1\n      pop\n      jump\t// out\n        /* \"#utility.yul\":2073:2169   */\n    tag_79:\n        /* \"#utility.yul\":2110:2117   */\n      0x00\n        /* \"#utility.yul\":2139:2163   */\n      tag_143\n        /* \"#utility.yul\":2157:2162   */\n      dup3\n        /* \"#utility.yul\":2139:2163   */\n      tag_78\n      jump\t// in\n    tag_143:\n        /* \"#utility.yul\":2128:2163   */\n      swap1\n      pop\n        /* \"#utility.yul\":2073:2169   */\n      swap2\n      swap1\n      pop\n      jump\t// out\n        /* \"#utility.yul\":2175:2293   */\n    tag_80:\n        /* \"#utility.yul\":2262:2286   */\n      tag_145\n        /* \"#utility.yul\":2280:2285   */\n      dup2\n        /* \"#utility.yul\":2262:2286   */\n      tag_79\n      jump\t// in\n    tag_145:\n        /* \"#utility.yul\":2257:2260   */\n      dup3\n        /* \"#utility.yul\":2250:2287   */\n      mstore\n        /* \"#utility.yul\":2175:2293   */\n      pop\n      pop\n      jump\t// out\n        /* \"#utility.yul\":2299:2417   */\n    tag_81:\n        /* \"#utility.yul\":2386:2410   */\n      tag_147\n        /* \"#utility.yul\":2404:2409   */\n      dup2\n        /* \"#utility.yul\":2386:2410   */\n      tag_70\n      jump\t// in\n    tag_147:\n        /* \"#utility.yul\":2381:2384   */\n      dup3\n        /* \"#utility.yul\":2374:2411   */\n      mstore\n        /* \"#utility.yul\":2299:2417   */\n      pop\n      pop\n      jump\t// out\n        /* \"#utility.yul\":2423:2513   */\n    tag_82:\n        /* \"#utility.yul\":2457:2464   */\n      0x00\n        /* \"#utility.yul\":2500:2505   */\n      dup2\n        /* \"#utility.yul\":2493:2506   */\n      iszero\n        /* \"#utility.yul\":2486:2507   */\n      iszero\n        /* \"#utility.yul\":2475:2507   */\n      swap1\n      pop\n        /* \"#utility.yul\":2423:2513   */\n      swap2\n      swap1\n      pop\n      jump\t// out\n        /* \"#utility.yul\":2519:2628   */\n    tag_83:\n        /* \"#utility.yul\":2600:2621   */\n      tag_150\n        /* \"#utility.yul\":2615:2620   */\n      dup2\n        /* \"#utility.yul\":2600:2621   */\n      tag_82\n      jump\t// in\n    tag_150:\n        /* \"#utility.yul\":2595:2598   */\n      dup3\n        /* \"#utility.yul\":2588:2622   */\n      mstore\n        /* \"#utility.yul\":2519:2628   */\n      pop\n      pop\n      jump\t// out\n        /* \"#utility.yul\":2634:3377   */\n    tag_14:\n        /* \"#utility.yul\":2853:2857   */\n      0x00\n        /* \"#utility.yul\":2891:2894   */\n      0xa0\n        /* \"#utility.yul\":2880:2889   */\n      dup3\n        /* \"#utility.yul\":2876:2895   */\n      add\n        /* \"#utility.yul\":2868:2895   */\n      swap1\n      pop\n        /* \"#utility.yul\":2941:2950   */\n      dup2\n        /* \"#utility.yul\":2935:2939   */\n      dup2\n        /* \"#utility.yul\":2931:2951   */\n      sub\n        /* \"#utility.yul\":2927:2928   */\n      0x00\n        /* \"#utility.yul\":2916:2925   */\n      dup4\n        /* \"#utility.yul\":2912:2929   */\n      add\n        /* \"#utility.yul\":2905:2952   */\n      mstore\n        /* \"#utility.yul\":2969:3047   */\n      tag_152\n        /* \"#utility.yul\":3042:3046   */\n      dup2\n        /* \"#utility.yul\":3033:3039   */\n      dup9\n        /* \"#utility.yul\":2969:3047   */\n      tag_77\n      jump\t// in\n    tag_152:\n        /* \"#utility.yul\":2961:3047   */\n      swap1\n      pop\n        /* \"#utility.yul\":3057:3129   */\n      tag_153\n        /* \"#utility.yul\":3125:3127   */\n      0x20\n        /* \"#utility.yul\":3114:3123   */\n      dup4\n        /* \"#utility.yul\":3110:3128   */\n      add\n        /* \"#utility.yul\":3101:3107   */\n      dup8\n        /* \"#utility.yul\":3057:3129   */\n      tag_80\n      jump\t// in\n    tag_153:\n        /* \"#utility.yul\":3139:3211   */\n      tag_154\n        /* \"#utility.yul\":3207:3209   */\n      0x40\n        /* \"#utility.yul\":3196:3205   */\n      dup4\n        /* \"#utility.yul\":3192:3210   */\n      add\n        /* \"#utility.yul\":3183:3189   */\n      dup7\n        /* \"#utility.yul\":3139:3211   */\n      tag_81\n      jump\t// in\n    tag_154:\n        /* \"#utility.yul\":3221:3293   */\n      tag_155\n        /* \"#utility.yul\":3289:3291   */\n      0x60\n        /* \"#utility.yul\":3278:3287   */\n      dup4\n        /* \"#utility.yul\":3274:3292   */\n      add\n        /* \"#utility.yul\":3265:3271   */\n      dup6\n        /* \"#utility.yul\":3221:3293   */\n      tag_81\n      jump\t// in\n    tag_155:\n        /* \"#utility.yul\":3303:3370   */\n      tag_156\n        /* \"#utility.yul\":3365:3368   */\n      0x80\n        /* \"#utility.yul\":3354:3363   */\n      dup4\n        /* \"#utility.yul\":3350:3369   */\n      add\n        /* \"#utility.yul\":3341:3347   */\n      dup5\n        /* \"#utility.yul\":3303:3370   */\n      tag_83\n      jump\t// in\n    tag_156:\n        /* \"#utility.yul\":2634:3377   */\n      swap7\n      swap6\n      pop\n      pop\n      pop\n      pop\n      pop\n      pop\n      jump\t// out\n        /* \"#utility.yul\":3383:3500   */\n    tag_84:\n        /* \"#utility.yul\":3492:3493   */\n      0x00\n        /* \"#utility.yul\":3489:3490   */\n      dup1\n        /* \"#utility.yul\":3482:3494   */\n      revert\n        /* \"#utility.yul\":3506:3623   */\n    tag_85:\n        /* \"#utility.yul\":3615:3616   */\n      0x00\n        /* \"#utility.yul\":3612:3613   */\n      dup1\n        /* \"#utility.yul\":3605:3617   */\n      revert\n        /* \"#utility.yul\":3629:3809   */\n    tag_86:\n        /* \"#utility.yul\":3677:3754   */\n      0x4e487b7100000000000000000000000000000000000000000000000000000000\n        /* \"#utility.yul\":3674:3675   */\n      0x00\n        /* \"#utility.yul\":3667:3755   */\n      mstore\n        /* \"#utility.yul\":3774:3778   */\n      0x41\n        /* \"#utility.yul\":3771:3772   */\n      0x04\n        /* \"#utility.yul\":3764:3779   */\n      mstore\n        /* \"#utility.yul\":3798:3802   */\n      0x24\n        /* \"#utility.yul\":3795:3796   */\n      0x00\n        /* \"#utility.yul\":3788:3803   */\n      revert\n        /* \"#utility.yul\":3815:4096   */\n    tag_87:\n        /* \"#utility.yul\":3898:3925   */\n      tag_161\n        /* \"#utility.yul\":3920:3924   */\n      dup3\n        /* \"#utility.yul\":3898:3925   */\n      tag_76\n      jump\t// in\n    tag_161:\n        /* \"#utility.yul\":3890:3896   */\n      dup2\n        /* \"#utility.yul\":3886:3926   */\n      add\n        /* \"#utility.yul\":4028:4034   */\n      dup2\n        /* \"#utility.yul\":4016:4026   */\n      dup2\n        /* \"#utility.yul\":4013:4035   */\n      lt\n        /* \"#utility.yul\":3992:4010   */\n      0xffffffffffffffff\n        /* \"#utility.yul\":3980:3990   */\n      dup3\n        /* \"#utility.yul\":3977:4011   */\n      gt\n        /* \"#utility.yul\":3974:4036   */\n      or\n        /* \"#utility.yul\":3971:4059   */\n      iszero\n      tag_162\n      jumpi\n        /* \"#utility.yul\":4039:4057   */\n      tag_163\n      tag_86\n      jump\t// in\n    tag_163:\n        /* \"#utility.yul\":3971:4059   */\n    tag_162:\n        /* \"#utility.yul\":4079:4089   */\n      dup1\n        /* \"#utility.yul\":4075:4077   */\n      0x40\n        /* \"#utility.yul\":4068:4090   */\n      mstore\n        /* \"#utility.yul\":3858:4096   */\n      pop\n        /* \"#utility.yul\":3815:4096   */\n      pop\n      pop\n      jump\t// out\n        /* \"#utility.yul\":4102:4231   */\n    tag_88:\n        /* \"#utility.yul\":4136:4142   */\n      0x00\n        /* \"#utility.yul\":4163:4183   */\n      tag_165\n      tag_67\n      jump\t// in\n    tag_165:\n        /* \"#utility.yul\":4153:4183   */\n      swap1\n      pop\n        /* \"#utility.yul\":4192:4225   */\n      tag_166\n        /* \"#utility.yul\":4220:4224   */\n      dup3\n        /* \"#utility.yul\":4212:4218   */\n      dup3\n        /* \"#utility.yul\":4192:4225   */\n      tag_87\n      jump\t// in\n    tag_166:\n        /* \"#utility.yul\":4102:4231   */\n      swap2\n      swap1\n      pop\n      jump\t// out\n        /* \"#utility.yul\":4237:4545   */\n    tag_89:\n        /* \"#utility.yul\":4299:4303   */\n      0x00\n        /* \"#utility.yul\":4389:4407   */\n      0xffffffffffffffff\n        /* \"#utility.yul\":4381:4387   */\n      dup3\n        /* \"#utility.yul\":4378:4408   */\n      gt\n        /* \"#utility.yul\":4375:4431   */\n      iszero\n      tag_168\n      jumpi\n        /* \"#utility.yul\":4411:4429   */\n      tag_169\n      tag_86\n      jump\t// in\n    tag_169:\n        /* \"#utility.yul\":4375:4431   */\n    tag_168:\n        /* \"#utility.yul\":4449:4478   */\n      tag_170\n        /* \"#utility.yul\":4471:4477   */\n      dup3\n        /* \"#utility.yul\":4449:4478   */\n      tag_76\n      jump\t// in\n    tag_170:\n        /* \"#utility.yul\":4441:4478   */\n      swap1\n      pop\n        /* \"#utility.yul\":4533:4537   */\n      0x20\n        /* \"#utility.yul\":4527:4531   */\n      dup2\n        /* \"#utility.yul\":4523:4538   */\n      add\n        /* \"#utility.yul\":4515:4538   */\n      swap1\n      pop\n        /* \"#utility.yul\":4237:4545   */\n      swap2\n      swap1\n      pop\n      jump\t// out\n        /* \"#utility.yul\":4551:4699   */\n    tag_90:\n        /* \"#utility.yul\":4649:4655   */\n      dup3\n        /* \"#utility.yul\":4644:4647   */\n      dup2\n        /* \"#utility.yul\":4639:4642   */\n      dup4\n        /* \"#utility.yul\":4626:4656   */\n      calldatacopy\n        /* \"#utility.yul\":4690:4691   */\n      0x00\n        /* \"#utility.yul\":4681:4687   */\n      dup4\n        /* \"#utility.yul\":4676:4679   */\n      dup4\n        /* \"#utility.yul\":4672:4688   */\n      add\n        /* \"#utility.yul\":4665:4692   */\n      mstore\n        /* \"#utility.yul\":4551:4699   */\n      pop\n      pop\n      pop\n      jump\t// out\n        /* \"#utility.yul\":4705:5130   */\n    tag_91:\n        /* \"#utility.yul\":4783:4788   */\n      0x00\n        /* \"#utility.yul\":4808:4874   */\n      tag_173\n        /* \"#utility.yul\":4824:4873   */\n      tag_174\n        /* \"#utility.yul\":4866:4872   */\n      dup5\n        /* \"#utility.yul\":4824:4873   */\n      tag_89\n      jump\t// in\n    tag_174:\n        /* \"#utility.yul\":4808:4874   */\n      tag_88\n      jump\t// in\n    tag_173:\n        /* \"#utility.yul\":4799:4874   */\n      swap1\n      pop\n        /* \"#utility.yul\":4897:4903   */\n      dup3\n        /* \"#utility.yul\":4890:4895   */\n      dup2\n        /* \"#utility.yul\":4883:4904   */\n      mstore\n        /* \"#utility.yul\":4935:4939   */\n      0x20\n        /* \"#utility.yul\":4928:4933   */\n      dup2\n        /* \"#utility.yul\":4924:4940   */\n      add\n        /* \"#utility.yul\":4973:4976   */\n      dup5\n        /* \"#utility.yul\":4964:4970   */\n      dup5\n        /* \"#utility.yul\":4959:4962   */\n      dup5\n        /* \"#utility.yul\":4955:4971   */\n      add\n        /* \"#utility.yul\":4952:4977   */\n      gt\n        /* \"#utility.yul\":4949:5061   */\n      iszero\n      tag_175\n      jumpi\n        /* \"#utility.yul\":4980:5059   */\n      tag_176\n      tag_85\n      jump\t// in\n    tag_176:\n        /* \"#utility.yul\":4949:5061   */\n    tag_175:\n        /* \"#utility.yul\":5070:5124   */\n      tag_177\n        /* \"#utility.yul\":5117:5123   */\n      dup5\n        /* \"#utility.yul\":5112:5115   */\n      dup3\n        /* \"#utility.yul\":5107:5110   */\n      dup6\n        /* \"#utility.yul\":5070:5124   */\n      tag_90\n      jump\t// in\n    tag_177:\n        /* \"#utility.yul\":4789:5130   */\n      pop\n        /* \"#utility.yul\":4705:5130   */\n      swap4\n      swap3\n      pop\n      pop\n      pop\n      jump\t// out\n        /* \"#utility.yul\":5150:5490   */\n    tag_92:\n        /* \"#utility.yul\":5206:5211   */\n      0x00\n        /* \"#utility.yul\":5255:5258   */\n      dup3\n        /* \"#utility.yul\":5248:5252   */\n      0x1f\n        /* \"#utility.yul\":5240:5246   */\n      dup4\n        /* \"#utility.yul\":5236:5253   */\n      add\n        /* \"#utility.yul\":5232:5259   */\n      slt\n        /* \"#utility.yul\":5222:5344   */\n      tag_179\n      jumpi\n        /* \"#utility.yul\":5263:5342   */\n      tag_180\n      tag_84\n      jump\t// in\n    tag_180:\n        /* \"#utility.yul\":5222:5344   */\n    tag_179:\n        /* \"#utility.yul\":5380:5386   */\n      dup2\n        /* \"#utility.yul\":5367:5387   */\n      calldataload\n        /* \"#utility.yul\":5405:5484   */\n      tag_181\n        /* \"#utility.yul\":5480:5483   */\n      dup5\n        /* \"#utility.yul\":5472:5478   */\n      dup3\n        /* \"#utility.yul\":5465:5469   */\n      0x20\n        /* \"#utility.yul\":5457:5463   */\n      dup7\n        /* \"#utility.yul\":5453:5470   */\n      add\n        /* \"#utility.yul\":5405:5484   */\n      tag_91\n      jump\t// in\n    tag_181:\n        /* \"#utility.yul\":5396:5484   */\n      swap2\n      pop\n        /* \"#utility.yul\":5212:5490   */\n      pop\n        /* \"#utility.yul\":5150:5490   */\n      swap3\n      swap2\n      pop\n      pop\n      jump\t// out\n        /* \"#utility.yul\":5496:5618   */\n    tag_93:\n        /* \"#utility.yul\":5569:5593   */\n      tag_183\n        /* \"#utility.yul\":5587:5592   */\n      dup2\n        /* \"#utility.yul\":5569:5593   */\n      tag_79\n      jump\t// in\n    tag_183:\n        /* \"#utility.yul\":5562:5567   */\n      dup2\n        /* \"#utility.yul\":5559:5594   */\n      eq\n        /* \"#utility.yul\":5549:5612   */\n      tag_184\n      jumpi\n        /* \"#utility.yul\":5608:5609   */\n      0x00\n        /* \"#utility.yul\":5605:5606   */\n      dup1\n        /* \"#utility.yul\":5598:5610   */\n      revert\n        /* \"#utility.yul\":5549:5612   */\n    tag_184:\n        /* \"#utility.yul\":5496:5618   */\n      pop\n      jump\t// out\n        /* \"#utility.yul\":5624:5763   */\n    tag_94:\n        /* \"#utility.yul\":5670:5675   */\n      0x00\n        /* \"#utility.yul\":5708:5714   */\n      dup2\n        /* \"#utility.yul\":5695:5715   */\n      calldataload\n        /* \"#utility.yul\":5686:5715   */\n      swap1\n      pop\n        /* \"#utility.yul\":5724:5757   */\n      tag_186\n        /* \"#utility.yul\":5751:5756   */\n      dup2\n        /* \"#utility.yul\":5724:5757   */\n      tag_93\n      jump\t// in\n    tag_186:\n        /* \"#utility.yul\":5624:5763   */\n      swap3\n      swap2\n      pop\n      pop\n      jump\t// out\n        /* \"#utility.yul\":5769:6714   */\n    tag_17:\n        /* \"#utility.yul\":5865:5871   */\n      0x00\n        /* \"#utility.yul\":5873:5879   */\n      dup1\n        /* \"#utility.yul\":5881:5887   */\n      0x00\n        /* \"#utility.yul\":5889:5895   */\n      dup1\n        /* \"#utility.yul\":5938:5941   */\n      0x80\n        /* \"#utility.yul\":5926:5935   */\n      dup6\n        /* \"#utility.yul\":5917:5924   */\n      dup8\n        /* \"#utility.yul\":5913:5936   */\n      sub\n        /* \"#utility.yul\":5909:5942   */\n      slt\n        /* \"#utility.yul\":5906:6026   */\n      iszero\n      tag_188\n      jumpi\n        /* \"#utility.yul\":5945:6024   */\n      tag_189\n      tag_68\n      jump\t// in\n    tag_189:\n        /* \"#utility.yul\":5906:6026   */\n    tag_188:\n        /* \"#utility.yul\":6093:6094   */\n      0x00\n        /* \"#utility.yul\":6082:6091   */\n      dup6\n        /* \"#utility.yul\":6078:6095   */\n      add\n        /* \"#utility.yul\":6065:6096   */\n      calldataload\n        /* \"#utility.yul\":6123:6141   */\n      0xffffffffffffffff\n        /* \"#utility.yul\":6115:6121   */\n      dup2\n        /* \"#utility.yul\":6112:6142   */\n      gt\n        /* \"#utility.yul\":6109:6226   */\n      iszero\n      tag_190\n      jumpi\n        /* \"#utility.yul\":6145:6224   */\n      tag_191\n      tag_69\n      jump\t// in\n    tag_191:\n        /* \"#utility.yul\":6109:6226   */\n    tag_190:\n        /* \"#utility.yul\":6250:6313   */\n      tag_192\n        /* \"#utility.yul\":6305:6312   */\n      dup8\n        /* \"#utility.yul\":6296:6302   */\n      dup3\n        /* \"#utility.yul\":6285:6294   */\n      dup9\n        /* \"#utility.yul\":6281:6303   */\n      add\n        /* \"#utility.yul\":6250:6313   */\n      tag_92\n      jump\t// in\n    tag_192:\n        /* \"#utility.yul\":6240:6313   */\n      swap5\n      pop\n        /* \"#utility.yul\":6036:6323   */\n      pop\n        /* \"#utility.yul\":6362:6364   */\n      0x20\n        /* \"#utility.yul\":6388:6441   */\n      tag_193\n        /* \"#utility.yul\":6433:6440   */\n      dup8\n        /* \"#utility.yul\":6424:6430   */\n      dup3\n        /* \"#utility.yul\":6413:6422   */\n      dup9\n        /* \"#utility.yul\":6409:6431   */\n      add\n        /* \"#utility.yul\":6388:6441   */\n      tag_94\n      jump\t// in\n    tag_193:\n        /* \"#utility.yul\":6378:6441   */\n      swap4\n      pop\n        /* \"#utility.yul\":6333:6451   */\n      pop\n        /* \"#utility.yul\":6490:6492   */\n      0x40\n        /* \"#utility.yul\":6516:6569   */\n      tag_194\n        /* \"#utility.yul\":6561:6568   */\n      dup8\n        /* \"#utility.yul\":6552:6558   */\n      dup3\n        /* \"#utility.yul\":6541:6550   */\n      dup9\n        /* \"#utility.yul\":6537:6559   */\n      add\n        /* \"#utility.yul\":6516:6569   */\n      tag_72\n      jump\t// in\n    tag_194:\n        /* \"#utility.yul\":6506:6569   */\n      swap3\n      pop\n        /* \"#utility.yul\":6461:6579   */\n      pop\n        /* \"#utility.yul\":6618:6620   */\n      0x60\n        /* \"#utility.yul\":6644:6697   */\n      tag_195\n        /* \"#utility.yul\":6689:6696   */\n      dup8\n        /* \"#utility.yul\":6680:6686   */\n      dup3\n        /* \"#utility.yul\":6669:6678   */\n      dup9\n        /* \"#utility.yul\":6665:6687   */\n      add\n        /* \"#utility.yul\":6644:6697   */\n      tag_72\n      jump\t// in\n    tag_195:\n        /* \"#utility.yul\":6634:6697   */\n      swap2\n      pop\n        /* \"#utility.yul\":6589:6707   */\n      pop\n        /* \"#utility.yul\":5769:6714   */\n      swap3\n      swap6\n      swap2\n      swap5\n      pop\n      swap3\n      pop\n      jump\t// out\n        /* \"#utility.yul\":6720:6942   */\n    tag_22:\n        /* \"#utility.yul\":6813:6817   */\n      0x00\n        /* \"#utility.yul\":6851:6853   */\n      0x20\n        /* \"#utility.yul\":6840:6849   */\n      dup3\n        /* \"#utility.yul\":6836:6854   */\n      add\n        /* \"#utility.yul\":6828:6854   */\n      swap1\n      pop\n        /* \"#utility.yul\":6864:6935   */\n      tag_197\n        /* \"#utility.yul\":6932:6933   */\n      0x00\n        /* \"#utility.yul\":6921:6930   */\n      dup4\n        /* \"#utility.yul\":6917:6934   */\n      add\n        /* \"#utility.yul\":6908:6914   */\n      dup5\n        /* \"#utility.yul\":6864:6935   */\n      tag_81\n      jump\t// in\n    tag_197:\n        /* \"#utility.yul\":6720:6942   */\n      swap3\n      swap2\n      pop\n      pop\n      jump\t// out\n        /* \"#utility.yul\":6948:7170   */\n    tag_30:\n        /* \"#utility.yul\":7041:7045   */\n      0x00\n        /* \"#utility.yul\":7079:7081   */\n      0x20\n        /* \"#utility.yul\":7068:7077   */\n      dup3\n        /* \"#utility.yul\":7064:7082   */\n      add\n        /* \"#utility.yul\":7056:7082   */\n      swap1\n      pop\n        /* \"#utility.yul\":7092:7163   */\n      tag_199\n        /* \"#utility.yul\":7160:7161   */\n      0x00\n        /* \"#utility.yul\":7149:7158   */\n      dup4\n        /* \"#utility.yul\":7145:7162   */\n      add\n        /* \"#utility.yul\":7136:7142   */\n      dup5\n        /* \"#utility.yul\":7092:7163   */\n      tag_80\n      jump\t// in\n    tag_199:\n        /* \"#utility.yul\":6948:7170   */\n      swap3\n      swap2\n      pop\n      pop\n      jump\t// out\n        /* \"#utility.yul\":7176:7356   */\n    tag_95:\n        /* \"#utility.yul\":7224:7301   */\n      0x4e487b7100000000000000000000000000000000000000000000000000000000\n        /* \"#utility.yul\":7221:7222   */\n      0x00\n        /* \"#utility.yul\":7214:7302   */\n      mstore\n        /* \"#utility.yul\":7321:7325   */\n      0x22\n        /* \"#utility.yul\":7318:7319   */\n      0x04\n        /* \"#utility.yul\":7311:7326   */\n      mstore\n        /* \"#utility.yul\":7345:7349   */\n      0x24\n        /* \"#utility.yul\":7342:7343   */\n      0x00\n        /* \"#utility.yul\":7335:7350   */\n      revert\n        /* \"#utility.yul\":7362:7682   */\n    tag_35:\n        /* \"#utility.yul\":7406:7412   */\n      0x00\n        /* \"#utility.yul\":7443:7444   */\n      0x02\n        /* \"#utility.yul\":7437:7441   */\n      dup3\n        /* \"#utility.yul\":7433:7445   */\n      div\n        /* \"#utility.yul\":7423:7445   */\n      swap1\n      pop\n        /* \"#utility.yul\":7490:7491   */\n      0x01\n        /* \"#utility.yul\":7484:7488   */\n      dup3\n        /* \"#utility.yul\":7480:7492   */\n      and\n        /* \"#utility.yul\":7511:7529   */\n      dup1\n        /* \"#utility.yul\":7501:7582   */\n      tag_202\n      jumpi\n        /* \"#utility.yul\":7567:7571   */\n      0x7f\n        /* \"#utility.yul\":7559:7565   */\n      dup3\n        /* \"#utility.yul\":7555:7572   */\n      and\n        /* \"#utility.yul\":7545:7572   */\n      swap2\n      pop\n        /* \"#utility.yul\":7501:7582   */\n    tag_202:\n        /* \"#utility.yul\":7629:7631   */\n      0x20\n        /* \"#utility.yul\":7621:7627   */\n      dup3\n        /* \"#utility.yul\":7618:7632   */\n      lt\n        /* \"#utility.yul\":7598:7616   */\n      dup2\n        /* \"#utility.yul\":7595:7633   */\n      sub\n        /* \"#utility.yul\":7592:7676   */\n      tag_203\n      jumpi\n        /* \"#utility.yul\":7648:7666   */\n      tag_204\n      tag_95\n      jump\t// in\n    tag_204:\n        /* \"#utility.yul\":7592:7676   */\n    tag_203:\n        /* \"#utility.yul\":7413:7682   */\n      pop\n        /* \"#utility.yul\":7362:7682   */\n      swap2\n      swap1\n      pop\n      jump\t// out\n        /* \"#utility.yul\":7688:7909   */\n    tag_96:\n        /* \"#utility.yul\":7828:7862   */\n      0x4f6e6c79206f776e65722063616e20706572666f726d20746869732061637469\n        /* \"#utility.yul\":7824:7825   */\n      0x00\n        /* \"#utility.yul\":7816:7822   */\n      dup3\n        /* \"#utility.yul\":7812:7826   */\n      add\n        /* \"#utility.yul\":7805:7863   */\n      mstore\n        /* \"#utility.yul\":7897:7901   */\n      0x6f6e000000000000000000000000000000000000000000000000000000000000\n        /* \"#utility.yul\":7892:7894   */\n      0x20\n        /* \"#utility.yul\":7884:7890   */\n      dup3\n        /* \"#utility.yul\":7880:7895   */\n      add\n        /* \"#utility.yul\":7873:7902   */\n      mstore\n        /* \"#utility.yul\":7688:7909   */\n      pop\n      jump\t// out\n        /* \"#utility.yul\":7915:8281   */\n    tag_97:\n        /* \"#utility.yul\":8057:8060   */\n      0x00\n        /* \"#utility.yul\":8078:8145   */\n      tag_207\n        /* \"#utility.yul\":8142:8144   */\n      0x22\n        /* \"#utility.yul\":8137:8140   */\n      dup4\n        /* \"#utility.yul\":8078:8145   */\n      tag_74\n      jump\t// in\n    tag_207:\n        /* \"#utility.yul\":8071:8145   */\n      swap2\n      pop\n        /* \"#utility.yul\":8154:8247   */\n      tag_208\n        /* \"#utility.yul\":8243:8246   */\n      dup3\n        /* \"#utility.yul\":8154:8247   */\n      tag_96\n      jump\t// in\n    tag_208:\n        /* \"#utility.yul\":8272:8274   */\n      0x40\n        /* \"#utility.yul\":8267:8270   */\n      dup3\n        /* \"#utility.yul\":8263:8275   */\n      add\n        /* \"#utility.yul\":8256:8275   */\n      swap1\n      pop\n        /* \"#utility.yul\":7915:8281   */\n      swap2\n      swap1\n      pop\n      jump\t// out\n        /* \"#utility.yul\":8287:8706   */\n    tag_43:\n        /* \"#utility.yul\":8453:8457   */\n      0x00\n        /* \"#utility.yul\":8491:8493   */\n      0x20\n        /* \"#utility.yul\":8480:8489   */\n      dup3\n        /* \"#utility.yul\":8476:8494   */\n      add\n        /* \"#utility.yul\":8468:8494   */\n      swap1\n      pop\n        /* \"#utility.yul\":8540:8549   */\n      dup2\n        /* \"#utility.yul\":8534:8538   */\n      dup2\n        /* \"#utility.yul\":8530:8550   */\n      sub\n        /* \"#utility.yul\":8526:8527   */\n      0x00\n        /* \"#utility.yul\":8515:8524   */\n      dup4\n        /* \"#utility.yul\":8511:8528   */\n      add\n        /* \"#utility.yul\":8504:8551   */\n      mstore\n        /* \"#utility.yul\":8568:8699   */\n      tag_210\n        /* \"#utility.yul\":8694:8698   */\n      dup2\n        /* \"#utility.yul\":8568:8699   */\n      tag_97\n      jump\t// in\n    tag_210:\n        /* \"#utility.yul\":8560:8699   */\n      swap1\n      pop\n        /* \"#utility.yul\":8287:8706   */\n      swap2\n      swap1\n      pop\n      jump\t// out\n        /* \"#utility.yul\":8712:8892   */\n    tag_98:\n        /* \"#utility.yul\":8760:8837   */\n      0x4e487b7100000000000000000000000000000000000000000000000000000000\n        /* \"#utility.yul\":8757:8758   */\n      0x00\n        /* \"#utility.yul\":8750:8838   */\n      mstore\n        /* \"#utility.yul\":8857:8861   */\n      0x11\n        /* \"#utility.yul\":8854:8855   */\n      0x04\n        /* \"#utility.yul\":8847:8862   */\n      mstore\n        /* \"#utility.yul\":8881:8885   */\n      0x24\n        /* \"#utility.yul\":8878:8879   */\n      0x00\n        /* \"#utility.yul\":8871:8886   */\n      revert\n        /* \"#utility.yul\":8898:9131   */\n    tag_46:\n        /* \"#utility.yul\":8937:8940   */\n      0x00\n        /* \"#utility.yul\":8960:8984   */\n      tag_213\n        /* \"#utility.yul\":8978:8983   */\n      dup3\n        /* \"#utility.yul\":8960:8984   */\n      tag_70\n      jump\t// in\n    tag_213:\n        /* \"#utility.yul\":8951:8984   */\n      swap2\n      pop\n        /* \"#utility.yul\":9006:9072   */\n      0xffffffffffffffffffffffffffffffffffffffffffffffffffffffffffffffff\n        /* \"#utility.yul\":8999:9004   */\n      dup3\n        /* \"#utility.yul\":8996:9073   */\n      sub\n        /* \"#utility.yul\":8993:9096   */\n      tag_214\n      jumpi\n        /* \"#utility.yul\":9076:9094   */\n      tag_215\n      tag_98\n      jump\t// in\n    tag_215:\n        /* \"#utility.yul\":8993:9096   */\n    tag_214:\n        /* \"#utility.yul\":9123:9124   */\n      0x01\n        /* \"#utility.yul\":9116:9121   */\n      dup3\n        /* \"#utility.yul\":9112:9125   */\n      add\n        /* \"#utility.yul\":9105:9125   */\n      swap1\n      pop\n        /* \"#utility.yul\":8898:9131   */\n      swap2\n      swap1\n      pop\n      jump\t// out\n        /* \"#utility.yul\":9137:9278   */\n    tag_99:\n        /* \"#utility.yul\":9186:9190   */\n      0x00\n        /* \"#utility.yul\":9209:9212   */\n      dup2\n        /* \"#utility.yul\":9201:9212   */\n      swap1\n      pop\n        /* \"#utility.yul\":9232:9235   */\n      dup2\n        /* \"#utility.yul\":9229:9230   */\n      0x00\n        /* \"#utility.yul\":9222:9236   */\n      mstore\n        /* \"#utility.yul\":9266:9270   */\n      0x20\n        /* \"#utility.yul\":9263:9264   */\n      0x00\n        /* \"#utility.yul\":9253:9271   */\n      keccak256\n        /* \"#utility.yul\":9245:9271   */\n      swap1\n      pop\n        /* \"#utility.yul\":9137:9278   */\n      swap2\n      swap1\n      pop\n      jump\t// out\n        /* \"#utility.yul\":9284:9377   */\n    tag_100:\n        /* \"#utility.yul\":9321:9327   */\n      0x00\n        /* \"#utility.yul\":9368:9370   */\n      0x20\n        /* \"#utility.yul\":9363:9365   */\n      0x1f\n        /* \"#utility.yul\":9356:9361   */\n      dup4\n        /* \"#utility.yul\":9352:9366   */\n      add\n        /* \"#utility.yul\":9348:9371   */\n      div\n        /* \"#utility.yul\":9338:9371   */\n      swap1\n      pop\n        /* \"#utility.yul\":9284:9377   */\n      swap2\n      swap1\n      pop\n      jump\t// out\n        /* \"#utility.yul\":9383:9490   */\n    tag_101:\n        /* \"#utility.yul\":9427:9435   */\n      0x00\n        /* \"#utility.yul\":9477:9482   */\n      dup3\n        /* \"#utility.yul\":9471:9475   */\n      dup3\n        /* \"#utility.yul\":9467:9483   */\n      shl\n        /* \"#utility.yul\":9446:9483   */\n      swap1\n      pop\n        /* \"#utility.yul\":9383:9490   */\n      swap3\n      swap2\n      pop\n      pop\n      jump\t// out\n        /* \"#utility.yul\":9496:9889   */\n    tag_102:\n        /* \"#utility.yul\":9565:9571   */\n      0x00\n        /* \"#utility.yul\":9615:9616   */\n      0x08\n        /* \"#utility.yul\":9603:9613   */\n      dup4\n        /* \"#utility.yul\":9599:9617   */\n      mul\n        /* \"#utility.yul\":9638:9735   */\n      tag_220\n        /* \"#utility.yul\":9668:9734   */\n      0xffffffffffffffffffffffffffffffffffffffffffffffffffffffffffffffff\n        /* \"#utility.yul\":9657:9666   */\n      dup3\n        /* \"#utility.yul\":9638:9735   */\n      tag_101\n      jump\t// in\n    tag_220:\n        /* \"#utility.yul\":9756:9795   */\n      tag_221\n        /* \"#utility.yul\":9786:9794   */\n      dup7\n        /* \"#utility.yul\":9775:9784   */\n      dup4\n        /* \"#utility.yul\":9756:9795   */\n      tag_101\n      jump\t// in\n    tag_221:\n        /* \"#utility.yul\":9744:9795   */\n      swap6\n      pop\n        /* \"#utility.yul\":9828:9832   */\n      dup1\n        /* \"#utility.yul\":9824:9833   */\n      not\n        /* \"#utility.yul\":9817:9822   */\n      dup5\n        /* \"#utility.yul\":9813:9834   */\n      and\n        /* \"#utility.yul\":9804:9834   */\n      swap4\n      pop\n        /* \"#utility.yul\":9877:9881   */\n      dup1\n        /* \"#utility.yul\":9867:9875   */\n      dup7\n        /* \"#utility.yul\":9863:9882   */\n      and\n        /* \"#utility.yul\":9856:9861   */\n      dup5\n        /* \"#utility.yul\":9853:9883   */\n      or\n        /* \"#utility.yul\":9843:9883   */\n      swap3\n      pop\n        /* \"#utility.yul\":9572:9889   */\n      pop\n      pop\n        /* \"#utility.yul\":9496:9889   */\n      swap4\n      swap3\n      pop\n      pop\n      pop\n      jump\t// out\n        /* \"#utility.yul\":9895:9955   */\n    tag_103:\n        /* \"#utility.yul\":9923:9926   */\n      0x00\n        /* \"#utility.yul\":9944:9949   */\n      dup2\n        /* \"#utility.yul\":9937:9949   */\n      swap1\n      pop\n        /* \"#utility.yul\":9895:9955   */\n      swap2\n      swap1\n      pop\n      jump\t// out\n        /* \"#utility.yul\":9961:10103   */\n    tag_104:\n        /* \"#utility.yul\":10011:10020   */\n      0x00\n        /* \"#utility.yul\":10044:10097   */\n      tag_224\n        /* \"#utility.yul\":10062:10096   */\n      tag_225\n        /* \"#utility.yul\":10071:10095   */\n      tag_226\n        /* \"#utility.yul\":10089:10094   */\n      dup5\n        /* \"#utility.yul\":10071:10095   */\n      tag_70\n      jump\t// in\n    tag_226:\n        /* \"#utility.yul\":10062:10096   */\n      tag_103\n      jump\t// in\n    tag_225:\n        /* \"#utility.yul\":10044:10097   */\n      tag_70\n      jump\t// in\n    tag_224:\n        /* \"#utility.yul\":10031:10097   */\n      swap1\n      pop\n        /* \"#utility.yul\":9961:10103   */\n      swap2\n      swap1\n      pop\n      jump\t// out\n        /* \"#utility.yul\":10109:10184   */\n    tag_105:\n        /* \"#utility.yul\":10152:10155   */\n      0x00\n        /* \"#utility.yul\":10173:10178   */\n      dup2\n        /* \"#utility.yul\":10166:10178   */\n      swap1\n      pop\n        /* \"#utility.yul\":10109:10184   */\n      swap2\n      swap1\n      pop\n      jump\t// out\n        /* \"#utility.yul\":10190:10459   */\n    tag_106:\n        /* \"#utility.yul\":10300:10339   */\n      tag_229\n        /* \"#utility.yul\":10331:10338   */\n      dup4\n        /* \"#utility.yul\":10300:10339   */\n      tag_104\n      jump\t// in\n    tag_229:\n        /* \"#utility.yul\":10361:10452   */\n      tag_230\n        /* \"#utility.yul\":10410:10451   */\n      tag_231\n        /* \"#utility.yul\":10434:10450   */\n      dup3\n        /* \"#utility.yul\":10410:10451   */\n      tag_105\n      jump\t// in\n    tag_231:\n        /* \"#utility.yul\":10402:10408   */\n      dup5\n        /* \"#utility.yul\":10395:10399   */\n      dup5\n        /* \"#utility.yul\":10389:10400   */\n      sload\n        /* \"#utility.yul\":10361:10452   */\n      tag_102\n      jump\t// in\n    tag_230:\n        /* \"#utility.yul\":10355:10359   */\n      dup3\n        /* \"#utility.yul\":10348:10453   */\n      sstore\n        /* \"#utility.yul\":10266:10459   */\n      pop\n        /* \"#utility.yul\":10190:10459   */\n      pop\n      pop\n      pop\n      jump\t// out\n        /* \"#utility.yul\":10465:10538   */\n    tag_107:\n        /* \"#utility.yul\":10510:10513   */\n      0x00\n        /* \"#utility.yul\":10465:10538   */\n      swap1\n      jump\t// out\n        /* \"#utility.yul\":10544:10733   */\n    tag_108:\n        /* \"#utility.yul\":10621:10653   */\n      tag_234\n      tag_107\n      jump\t// in\n    tag_234:\n        /* \"#utility.yul\":10662:10727   */\n      tag_235\n        /* \"#utility.yul\":10720:10726   */\n      dup2\n        /* \"#utility.yul\":10712:10718   */\n      dup5\n        /* \"#utility.yul\":10706:10710   */\n      dup5\n        /* \"#utility.yul\":10662:10727   */\n      tag_106\n      jump\t// in\n    tag_235:\n        /* \"#utility.yul\":10597:10733   */\n      pop\n        /* \"#utility.yul\":10544:10733   */\n      pop\n      pop\n      jump\t// out\n        /* \"#utility.yul\":10739:10925   */\n    tag_109:\n        /* \"#utility.yul\":10799:10919   */\n    tag_237:\n        /* \"#utility.yul\":10816:10819   */\n      dup2\n        /* \"#utility.yul\":10809:10814   */\n      dup2\n        /* \"#utility.yul\":10806:10820   */\n      lt\n        /* \"#utility.yul\":10799:10919   */\n      iszero\n      tag_239\n      jumpi\n        /* \"#utility.yul\":10870:10909   */\n      tag_240\n        /* \"#utility.yul\":10907:10908   */\n      0x00\n        /* \"#utility.yul\":10900:10905   */\n      dup3\n        /* \"#utility.yul\":10870:10909   */\n      tag_108\n      jump\t// in\n    tag_240:\n        /* \"#utility.yul\":10843:10844   */\n      0x01\n        /* \"#utility.yul\":10836:10841   */\n      dup2\n        /* \"#utility.yul\":10832:10845   */\n      add\n        /* \"#utility.yul\":10823:10845   */\n      swap1\n      pop\n        /* \"#utility.yul\":10799:10919   */\n      jump(tag_237)\n    tag_239:\n        /* \"#utility.yul\":10739:10925   */\n      pop\n      pop\n      jump\t// out\n        /* \"#utility.yul\":10931:11474   */\n    tag_110:\n        /* \"#utility.yul\":11032:11034   */\n      0x1f\n        /* \"#utility.yul\":11027:11030   */\n      dup3\n        /* \"#utility.yul\":11024:11035   */\n      gt\n        /* \"#utility.yul\":11021:11467   */\n      iszero\n      tag_242\n      jumpi\n        /* \"#utility.yul\":11066:11104   */\n      tag_243\n        /* \"#utility.yul\":11098:11103   */\n      dup2\n        /* \"#utility.yul\":11066:11104   */\n      tag_99\n      jump\t// in\n    tag_243:\n        /* \"#utility.yul\":11150:11179   */\n      tag_244\n        /* \"#utility.yul\":11168:11178   */\n      dup5\n        /* \"#utility.yul\":11150:11179   */\n      tag_100\n      jump\t// in\n    tag_244:\n        /* \"#utility.yul\":11140:11148   */\n      dup2\n        /* \"#utility.yul\":11136:11180   */\n      add\n        /* \"#utility.yul\":11333:11335   */\n      0x20\n        /* \"#utility.yul\":11321:11331   */\n      dup6\n        /* \"#utility.yul\":11318:11336   */\n      lt\n        /* \"#utility.yul\":11315:11364   */\n      iszero\n      tag_245\n      jumpi\n        /* \"#utility.yul\":11354:11362   */\n      dup2\n        /* \"#utility.yul\":11339:11362   */\n      swap1\n      pop\n        /* \"#utility.yul\":11315:11364   */\n    tag_245:\n        /* \"#utility.yul\":11377:11457   */\n      tag_246\n        /* \"#utility.yul\":11433:11455   */\n      tag_247\n        /* \"#utility.yul\":11451:11454   */\n      dup6\n        /* \"#utility.yul\":11433:11455   */\n      tag_100\n      jump\t// in\n    tag_247:\n        /* \"#utility.yul\":11423:11431   */\n      dup4\n        /* \"#utility.yul\":11419:11456   */\n      add\n        /* \"#utility.yul\":11406:11417   */\n      dup3\n        /* \"#utility.yul\":11377:11457   */\n      tag_109\n      jump\t// in\n    tag_246:\n        /* \"#utility.yul\":11036:11467   */\n      pop\n      pop\n        /* \"#utility.yul\":11021:11467   */\n    tag_242:\n        /* \"#utility.yul\":10931:11474   */\n      pop\n      pop\n      pop\n      jump\t// out\n        /* \"#utility.yul\":11480:11597   */\n    tag_111:\n        /* \"#utility.yul\":11534:11542   */\n      0x00\n        /* \"#utility.yul\":11584:11589   */\n      dup3\n        /* \"#utility.yul\":11578:11582   */\n      dup3\n        /* \"#utility.yul\":11574:11590   */\n      shr\n        /* \"#utility.yul\":11553:11590   */\n      swap1\n      pop\n        /* \"#utility.yul\":11480:11597   */\n      swap3\n      swap2\n      pop\n      pop\n      jump\t// out\n        /* \"#utility.yul\":11603:11772   */\n    tag_112:\n        /* \"#utility.yul\":11647:11653   */\n      0x00\n        /* \"#utility.yul\":11680:11731   */\n      tag_250\n        /* \"#utility.yul\":11728:11729   */\n      0x00\n        /* \"#utility.yul\":11724:11730   */\n      not\n        /* \"#utility.yul\":11716:11721   */\n      dup5\n        /* \"#utility.yul\":11713:11714   */\n      0x08\n        /* \"#utility.yul\":11709:11722   */\n      mul\n        /* \"#utility.yul\":11680:11731   */\n      tag_111\n      jump\t// in\n    tag_250:\n        /* \"#utility.yul\":11676:11732   */\n      not\n        /* \"#utility.yul\":11761:11765   */\n      dup1\n        /* \"#utility.yul\":11755:11759   */\n      dup4\n        /* \"#utility.yul\":11751:11766   */\n      and\n        /* \"#utility.yul\":11741:11766   */\n      swap2\n      pop\n        /* \"#utility.yul\":11654:11772   */\n      pop\n        /* \"#utility.yul\":11603:11772   */\n      swap3\n      swap2\n      pop\n      pop\n      jump\t// out\n        /* \"#utility.yul\":11777:12072   */\n    tag_113:\n        /* \"#utility.yul\":11853:11857   */\n      0x00\n        /* \"#utility.yul\":11999:12028   */\n      tag_252\n        /* \"#utility.yul\":12024:12027   */\n      dup4\n        /* \"#utility.yul\":12018:12022   */\n      dup4\n        /* \"#utility.yul\":11999:12028   */\n      tag_112\n      jump\t// in\n    tag_252:\n        /* \"#utility.yul\":11991:12028   */\n      swap2\n      pop\n        /* \"#utility.yul\":12061:12064   */\n      dup3\n        /* \"#utility.yul\":12058:12059   */\n      0x02\n        /* \"#utility.yul\":12054:12065   */\n      mul\n        /* \"#utility.yul\":12048:12052   */\n      dup3\n        /* \"#utility.yul\":12045:12066   */\n      or\n        /* \"#utility.yul\":12037:12066   */\n      swap1\n      pop\n        /* \"#utility.yul\":11777:12072   */\n      swap3\n      swap2\n      pop\n      pop\n      jump\t// out\n        /* \"#utility.yul\":12077:13472   */\n    tag_48:\n        /* \"#utility.yul\":12194:12231   */\n      tag_254\n        /* \"#utility.yul\":12227:12230   */\n      dup3\n        /* \"#utility.yul\":12194:12231   */\n      tag_73\n      jump\t// in\n    tag_254:\n        /* \"#utility.yul\":12296:12314   */\n      0xffffffffffffffff\n        /* \"#utility.yul\":12288:12294   */\n      dup2\n        /* \"#utility.yul\":12285:12315   */\n      gt\n        /* \"#utility.yul\":12282:12338   */\n      iszero\n      tag_255\n      jumpi\n        /* \"#utility.yul\":12318:12336   */\n      tag_256\n      tag_86\n      jump\t// in\n    tag_256:\n        /* \"#utility.yul\":12282:12338   */\n    tag_255:\n        /* \"#utility.yul\":12362:12400   */\n      tag_257\n        /* \"#utility.yul\":12394:12398   */\n      dup3\n        /* \"#utility.yul\":12388:12399   */\n      sload\n        /* \"#utility.yul\":12362:12400   */\n      tag_35\n      jump\t// in\n    tag_257:\n        /* \"#utility.yul\":12447:12514   */\n      tag_258\n        /* \"#utility.yul\":12507:12513   */\n      dup3\n        /* \"#utility.yul\":12499:12505   */\n      dup3\n        /* \"#utility.yul\":12493:12497   */\n      dup6\n        /* \"#utility.yul\":12447:12514   */\n      tag_110\n      jump\t// in\n    tag_258:\n        /* \"#utility.yul\":12541:12542   */\n      0x00\n        /* \"#utility.yul\":12565:12569   */\n      0x20\n        /* \"#utility.yul\":12552:12569   */\n      swap1\n      pop\n        /* \"#utility.yul\":12597:12599   */\n      0x1f\n        /* \"#utility.yul\":12589:12595   */\n      dup4\n        /* \"#utility.yul\":12586:12600   */\n      gt\n        /* \"#utility.yul\":12614:12615   */\n      0x01\n        /* \"#utility.yul\":12609:13227   */\n      dup2\n      eq\n      tag_260\n      jumpi\n        /* \"#utility.yul\":13271:13272   */\n      0x00\n        /* \"#utility.yul\":13288:13294   */\n      dup5\n        /* \"#utility.yul\":13285:13362   */\n      iszero\n      tag_261\n      jumpi\n        /* \"#utility.yul\":13337:13346   */\n      dup3\n        /* \"#utility.yul\":13332:13335   */\n      dup8\n        /* \"#utility.yul\":13328:13347   */\n      add\n        /* \"#utility.yul\":13322:13348   */\n      mload\n        /* \"#utility.yul\":13313:13348   */\n      swap1\n      pop\n        /* \"#utility.yul\":13285:13362   */\n    tag_261:\n        /* \"#utility.yul\":13388:13455   */\n      tag_262\n        /* \"#utility.yul\":13448:13454   */\n      dup6\n        /* \"#utility.yul\":13441:13446   */\n      dup3\n        /* \"#utility.yul\":13388:13455   */\n      tag_113\n      jump\t// in\n    tag_262:\n        /* \"#utility.yul\":13382:13386   */\n      dup7\n        /* \"#utility.yul\":13375:13456   */\n      sstore\n        /* \"#utility.yul\":13244:13466   */\n      pop\n        /* \"#utility.yul\":12579:13466   */\n      jump(tag_259)\n        /* \"#utility.yul\":12609:13227   */\n    tag_260:\n        /* \"#utility.yul\":12661:12665   */\n      0x1f\n        /* \"#utility.yul\":12657:12666   */\n      not\n        /* \"#utility.yul\":12649:12655   */\n      dup5\n        /* \"#utility.yul\":12645:12667   */\n      and\n        /* \"#utility.yul\":12695:12732   */\n      tag_263\n        /* \"#utility.yul\":12727:12731   */\n      dup7\n        /* \"#utility.yul\":12695:12732   */\n      tag_99\n      jump\t// in\n    tag_263:\n        /* \"#utility.yul\":12754:12755   */\n      0x00\n        /* \"#utility.yul\":12768:12976   */\n    tag_264:\n        /* \"#utility.yul\":12782:12789   */\n      dup3\n        /* \"#utility.yul\":12779:12780   */\n      dup2\n        /* \"#utility.yul\":12776:12790   */\n      lt\n        /* \"#utility.yul\":12768:12976   */\n      iszero\n      tag_266\n      jumpi\n        /* \"#utility.yul\":12861:12870   */\n      dup5\n        /* \"#utility.yul\":12856:12859   */\n      dup10\n        /* \"#utility.yul\":12852:12871   */\n      add\n        /* \"#utility.yul\":12846:12872   */\n      mload\n        /* \"#utility.yul\":12838:12844   */\n      dup3\n        /* \"#utility.yul\":12831:12873   */\n      sstore\n        /* \"#utility.yul\":12912:12913   */\n      0x01\n        /* \"#utility.yul\":12904:12910   */\n      dup3\n        /* \"#utility.yul\":12900:12914   */\n      add\n        /* \"#utility.yul\":12890:12914   */\n      swap2\n      pop\n        /* \"#utility.yul\":12959:12961   */\n      0x20\n        /* \"#utility.yul\":12948:12957   */\n      dup6\n        /* \"#utility.yul\":12944:12962   */\n      add\n        /* \"#utility.yul\":12931:12962   */\n      swap5\n      pop\n        /* \"#utility.yul\":12805:12809   */\n      0x20\n        /* \"#utility.yul\":12802:12803   */\n      dup2\n        /* \"#utility.yul\":12798:12810   */\n      add\n        /* \"#utility.yul\":12793:12810   */\n      swap1\n      pop\n        /* \"#utility.yul\":12768:12976   */\n      jump(tag_264)\n    tag_266:\n        /* \"#utility.yul\":13004:13010   */\n      dup7\n        /* \"#utility.yul\":12995:13002   */\n      dup4\n        /* \"#utility.yul\":12992:13011   */\n      lt\n        /* \"#utility.yul\":12989:13168   */\n      iszero\n      tag_267\n      jumpi\n        /* \"#utility.yul\":13062:13071   */\n      dup5\n        /* \"#utility.yul\":13057:13060   */\n      dup10\n        /* \"#utility.yul\":13053:13072   */\n      add\n        /* \"#utility.yul\":13047:13073   */\n      mload\n        /* \"#utility.yul\":13105:13153   */\n      tag_268\n        /* \"#utility.yul\":13147:13151   */\n      0x1f\n        /* \"#utility.yul\":13139:13145   */\n      dup10\n        /* \"#utility.yul\":13135:13152   */\n      and\n        /* \"#utility.yul\":13124:13133   */\n      dup3\n        /* \"#utility.yul\":13105:13153   */\n      tag_112\n      jump\t// in\n    tag_268:\n        /* \"#utility.yul\":13097:13103   */\n      dup4\n        /* \"#utility.yul\":13090:13154   */\n      sstore\n        /* \"#utility.yul\":13012:13168   */\n      pop\n        /* \"#utility.yul\":12989:13168   */\n    tag_267:\n        /* \"#utility.yul\":13214:13215   */\n      0x01\n        /* \"#utility.yul\":13210:13211   */\n      0x02\n        /* \"#utility.yul\":13202:13208   */\n      dup9\n        /* \"#utility.yul\":13198:13212   */\n      mul\n        /* \"#utility.yul\":13194:13216   */\n      add\n        /* \"#utility.yul\":13188:13192   */\n      dup9\n        /* \"#utility.yul\":13181:13217   */\n      sstore\n        /* \"#utility.yul\":12616:13227   */\n      pop\n      pop\n      pop\n        /* \"#utility.yul\":12579:13466   */\n    tag_259:\n      pop\n        /* \"#utility.yul\":12169:13472   */\n      pop\n      pop\n      pop\n        /* \"#utility.yul\":12077:13472   */\n      pop\n      pop\n      jump\t// out\n        /* \"#utility.yul\":13478:14233   */\n    tag_50:\n        /* \"#utility.yul\":13703:13707   */\n      0x00\n        /* \"#utility.yul\":13741:13744   */\n      0xa0\n        /* \"#utility.yul\":13730:13739   */\n      dup3\n        /* \"#utility.yul\":13726:13745   */\n      add\n        /* \"#utility.yul\":13718:13745   */\n      swap1\n      pop\n        /* \"#utility.yul\":13755:13826   */\n      tag_270\n        /* \"#utility.yul\":13823:13824   */\n      0x00\n        /* \"#utility.yul\":13812:13821   */\n      dup4\n        /* \"#utility.yul\":13808:13825   */\n      add\n        /* \"#utility.yul\":13799:13805   */\n      dup9\n        /* \"#utility.yul\":13755:13826   */\n      tag_81\n      jump\t// in\n    tag_270:\n        /* \"#utility.yul\":13873:13882   */\n      dup2\n        /* \"#utility.yul\":13867:13871   */\n      dup2\n        /* \"#utility.yul\":13863:13883   */\n      sub\n        /* \"#utility.yul\":13858:13860   */\n      0x20\n        /* \"#utility.yul\":13847:13856   */\n      dup4\n        /* \"#utility.yul\":13843:13861   */\n      add\n        /* \"#utility.yul\":13836:13884   */\n      mstore\n        /* \"#utility.yul\":13901:13979   */\n      tag_271\n        /* \"#utility.yul\":13974:13978   */\n      dup2\n        /* \"#utility.yul\":13965:13971   */\n      dup8\n        /* \"#utility.yul\":13901:13979   */\n      tag_77\n      jump\t// in\n    tag_271:\n        /* \"#utility.yul\":13893:13979   */\n      swap1\n      pop\n        /* \"#utility.yul\":13989:14061   */\n      tag_272\n        /* \"#utility.yul\":14057:14059   */\n      0x40\n        /* \"#utility.yul\":14046:14055   */\n      dup4\n        /* \"#utility.yul\":14042:14060   */\n      add\n        /* \"#utility.yul\":14033:14039   */\n      dup7\n        /* \"#utility.yul\":13989:14061   */\n      tag_80\n      jump\t// in\n    tag_272:\n        /* \"#utility.yul\":14071:14143   */\n      tag_273\n        /* \"#utility.yul\":14139:14141   */\n      0x60\n        /* \"#utility.yul\":14128:14137   */\n      dup4\n        /* \"#utility.yul\":14124:14142   */\n      add\n        /* \"#utility.yul\":14115:14121   */\n      dup6\n        /* \"#utility.yul\":14071:14143   */\n      tag_81\n      jump\t// in\n    tag_273:\n        /* \"#utility.yul\":14153:14226   */\n      tag_274\n        /* \"#utility.yul\":14221:14224   */\n      0x80\n        /* \"#utility.yul\":14210:14219   */\n      dup4\n        /* \"#utility.yul\":14206:14225   */\n      add\n        /* \"#utility.yul\":14197:14203   */\n      dup5\n        /* \"#utility.yul\":14153:14226   */\n      tag_81\n      jump\t// in\n    tag_274:\n        /* \"#utility.yul\":13478:14233   */\n      swap7\n      swap6\n      pop\n      pop\n      pop\n      pop\n      pop\n      pop\n      jump\t// out\n        /* \"#utility.yul\":14239:14468   */\n    tag_114:\n        /* \"#utility.yul\":14379:14413   */\n      0x4f6e6c792061737369676e656420636f6e74726163746f722063616e20757064\n        /* \"#utility.yul\":14375:14376   */\n      0x00\n        /* \"#utility.yul\":14367:14373   */\n      dup3\n        /* \"#utility.yul\":14363:14377   */\n      add\n        /* \"#utility.yul\":14356:14414   */\n      mstore\n        /* \"#utility.yul\":14448:14460   */\n      0x6174652073746174757300000000000000000000000000000000000000000000\n        /* \"#utility.yul\":14443:14445   */\n      0x20\n        /* \"#utility.yul\":14435:14441   */\n      dup3\n        /* \"#utility.yul\":14431:14446   */\n      add\n        /* \"#utility.yul\":14424:14461   */\n      mstore\n        /* \"#utility.yul\":14239:14468   */\n      pop\n      jump\t// out\n        /* \"#utility.yul\":14474:14840   */\n    tag_115:\n        /* \"#utility.yul\":14616:14619   */\n      0x00\n        /* \"#utility.yul\":14637:14704   */\n      tag_277\n        /* \"#utility.yul\":14701:14703   */\n      0x2a\n        /* \"#utility.yul\":14696:14699   */\n      dup4\n        /* \"#utility.yul\":14637:14704   */\n      tag_74\n      jump\t// in\n    tag_277:\n        /* \"#utility.yul\":14630:14704   */\n      swap2\n      pop\n        /* \"#utility.yul\":14713:14806   */\n      tag_278\n        /* \"#utility.yul\":14802:14805   */\n      dup3\n        /* \"#utility.yul\":14713:14806   */\n      tag_114\n      jump\t// in\n    tag_278:\n        /* \"#utility.yul\":14831:14833   */\n      0x40\n        /* \"#utility.yul\":14826:14829   */\n      dup3\n        /* \"#utility.yul\":14822:14834   */\n      add\n        /* \"#utility.yul\":14815:14834   */\n      swap1\n      pop\n        /* \"#utility.yul\":14474:14840   */\n      swap2\n      swap1\n      pop\n      jump\t// out\n        /* \"#utility.yul\":14846:15265   */\n    tag_60:\n        /* \"#utility.yul\":15012:15016   */\n      0x00\n        /* \"#utility.yul\":15050:15052   */\n      0x20\n        /* \"#utility.yul\":15039:15048   */\n      dup3\n        /* \"#utility.yul\":15035:15053   */\n      add\n        /* \"#utility.yul\":15027:15053   */\n      swap1\n      pop\n        /* \"#utility.yul\":15099:15108   */\n      dup2\n        /* \"#utility.yul\":15093:15097   */\n      dup2\n        /* \"#utility.yul\":15089:15109   */\n      sub\n        /* \"#utility.yul\":15085:15086   */\n      0x00\n        /* \"#utility.yul\":15074:15083   */\n      dup4\n        /* \"#utility.yul\":15070:15087   */\n      add\n        /* \"#utility.yul\":15063:15110   */\n      mstore\n        /* \"#utility.yul\":15127:15258   */\n      tag_280\n        /* \"#utility.yul\":15253:15257   */\n      dup2\n        /* \"#utility.yul\":15127:15258   */\n      tag_115\n      jump\t// in\n    tag_280:\n        /* \"#utility.yul\":15119:15258   */\n      swap1\n      pop\n        /* \"#utility.yul\":14846:15265   */\n      swap2\n      swap1\n      pop\n      jump\t// out\n        /* \"#utility.yul\":15271:15446   */\n    tag_116:\n        /* \"#utility.yul\":15411:15438   */\n      0x50726f6a65637420616c726561647920636f6d706c6574656400000000000000\n        /* \"#utility.yul\":15407:15408   */\n      0x00\n        /* \"#utility.yul\":15399:15405   */\n      dup3\n        /* \"#utility.yul\":15395:15409   */\n      add\n        /* \"#utility.yul\":15388:15439   */\n      mstore\n        /* \"#utility.yul\":15271:15446   */\n      pop\n      jump\t// out\n        /* \"#utility.yul\":15452:15818   */\n    tag_117:\n        /* \"#utility.yul\":15594:15597   */\n      0x00\n        /* \"#utility.yul\":15615:15682   */\n      tag_283\n        /* \"#utility.yul\":15679:15681   */\n      0x19\n        /* \"#utility.yul\":15674:15677   */\n      dup4\n        /* \"#utility.yul\":15615:15682   */\n      tag_74\n      jump\t// in\n    tag_283:\n        /* \"#utility.yul\":15608:15682   */\n      swap2\n      pop\n        /* \"#utility.yul\":15691:15784   */\n      tag_284\n        /* \"#utility.yul\":15780:15783   */\n      dup3\n        /* \"#utility.yul\":15691:15784   */\n      tag_116\n      jump\t// in\n    tag_284:\n        /* \"#utility.yul\":15809:15811   */\n      0x20\n        /* \"#utility.yul\":15804:15807   */\n      dup3\n        /* \"#utility.yul\":15800:15812   */\n      add\n        /* \"#utility.yul\":15793:15812   */\n      swap1\n      pop\n        /* \"#utility.yul\":15452:15818   */\n      swap2\n      swap1\n      pop\n      jump\t// out\n        /* \"#utility.yul\":15824:16243   */\n    tag_64:\n        /* \"#utility.yul\":15990:15994   */\n      0x00\n        /* \"#utility.yul\":16028:16030   */\n      0x20\n        /* \"#utility.yul\":16017:16026   */\n      dup3\n        /* \"#utility.yul\":16013:16031   */\n      add\n        /* \"#utility.yul\":16005:16031   */\n      swap1\n      pop\n        /* \"#utility.yul\":16077:16086   */\n      dup2\n        /* \"#utility.yul\":16071:16075   */\n      dup2\n        /* \"#utility.yul\":16067:16087   */\n      sub\n        /* \"#utility.yul\":16063:16064   */\n      0x00\n        /* \"#utility.yul\":16052:16061   */\n      dup4\n        /* \"#utility.yul\":16048:16065   */\n      add\n        /* \"#utility.yul\":16041:16088   */\n      mstore\n        /* \"#utility.yul\":16105:16236   */\n      tag_286\n        /* \"#utility.yul\":16231:16235   */\n      dup2\n        /* \"#utility.yul\":16105:16236   */\n      tag_117\n      jump\t// in\n    tag_286:\n        /* \"#utility.yul\":16097:16236   */\n      swap1\n      pop\n        /* \"#utility.yul\":15824:16243   */\n      swap2\n      swap1\n      pop\n      jump\t// out\n        /* \"#utility.yul\":16249:16581   */\n    tag_66:\n        /* \"#utility.yul\":16370:16374   */\n      0x00\n        /* \"#utility.yul\":16408:16410   */\n      0x40\n        /* \"#utility.yul\":16397:16406   */\n      dup3\n        /* \"#utility.yul\":16393:16411   */\n      add\n        /* \"#utility.yul\":16385:16411   */\n      swap1\n      pop\n        /* \"#utility.yul\":16421:16492   */\n      tag_288\n        /* \"#utility.yul\":16489:16490   */\n      0x00\n        /* \"#utility.yul\":16478:16487   */\n      dup4\n        /* \"#utility.yul\":16474:16491   */\n      add\n        /* \"#utility.yul\":16465:16471   */\n      dup6\n        /* \"#utility.yul\":16421:16492   */\n      tag_81\n      jump\t// in\n    tag_288:\n        /* \"#utility.yul\":16502:16574   */\n      tag_289\n        /* \"#utility.yul\":16570:16572   */\n      0x20\n        /* \"#utility.yul\":16559:16568   */\n      dup4\n        /* \"#utility.yul\":16555:16573   */\n      add\n        /* \"#utility.yul\":16546:16552   */\n      dup5\n        /* \"#utility.yul\":16502:16574   */\n      tag_80\n      jump\t// in\n    tag_289:\n        /* \"#utility.yul\":16249:16581   */\n      swap4\n      swap3\n      pop\n      pop\n      pop\n      jump\t// out\n\n    auxdata: 0xa2646970667358221220dc289ee52eb9ad2ca106113a9085900b1006cf74682b69ea73ee2f4689d3221464736f6c634300081a0033\n}\n",
				"bytecode": {
					"linkReferences": {},
					"object": "6080604052348015600e575f80fd5b50335f806101000a81548173ffffffffffffffffffffffffffffffffffffffff021916908373ffffffffffffffffffffffffffffffffffffffff1602179055506110048061005b5f395ff3fe608060405234801561000f575f80fd5b5060043610610060575f3560e01c8063107046bd1461006457806316bfb5d21461009857806336fbad26146100b45780635f8439e3146100d25780638da5cb5b14610106578063cb5b7ca014610124575b5f80fd5b61007e6004803603810190610079919061072b565b610140565b60405161008f95949392919061082e565b60405180910390f35b6100b260048036038101906100ad91906109dc565b610223565b005b6100bc6103f0565b6040516100c99190610a5c565b60405180910390f35b6100ec60048036038101906100e7919061072b565b6103f6565b6040516100fd95949392919061082e565b60405180910390f35b61010e610559565b60405161011b9190610a75565b60405180910390f35b61013e6004803603810190610139919061072b565b61057c565b005b6001602052805f5260405f205f91509050805f01805461015f90610abb565b80601f016020809104026020016040519081016040528092919081815260200182805461018b90610abb565b80156101d65780601f106101ad576101008083540402835291602001916101d6565b820191905f5260205f20905b8154815290600101906020018083116101b957829003601f168201915b505050505090806001015f9054906101000a900473ffffffffffffffffffffffffffffffffffffffff1690806002015490806003015490806004015f9054906101000a900460ff16905085565b5f8054906101000a900473ffffffffffffffffffffffffffffffffffffffff1673ffffffffffffffffffffffffffffffffffffffff163373ffffffffffffffffffffffffffffffffffffffff16146102b0576040517f08c379a00000000000000000000000000000000000000000000000000000000081526004016102a790610b5b565b60405180910390fd5b60025f8154809291906102c290610ba6565b91905055506040518060a001604052808581526020018473ffffffffffffffffffffffffffffffffffffffff1681526020018381526020018281526020015f151581525060015f60025481526020019081526020015f205f820151815f01908161032c9190610d8a565b506020820151816001015f6101000a81548173ffffffffffffffffffffffffffffffffffffffff021916908373ffffffffffffffffffffffffffffffffffffffff16021790555060408201518160020155606082015181600301556080820151816004015f6101000a81548160ff0219169083151502179055509050507fcfbb9cc3bd62a88127a0a357ef5745ce183a4f314f3f36a4302bbe74b89e2f1d600254858585856040516103e2959493929190610e59565b60405180910390a150505050565b60025481565b60605f805f805f60015f8881526020019081526020015f206040518060a00160405290815f8201805461042890610abb565b80601f016020809104026020016040519081016040528092919081815260200182805461045490610abb565b801561049f5780601f106104765761010080835404028352916020019161049f565b820191905f5260205f20905b81548152906001019060200180831161048257829003601f168201915b50505050508152602001600182015f9054906101000a900473ffffffffffffffffffffffffffffffffffffffff1673ffffffffffffffffffffffffffffffffffffffff1673ffffffffffffffffffffffffffffffffffffffff1681526020016002820154815260200160038201548152602001600482015f9054906101000a900460ff1615151515815250509050805f01518160200151826040015183606001518460800151955095509550955095505091939590929450565b5f8054906101000a900473ffffffffffffffffffffffffffffffffffffffff1681565b8060015f8281526020019081526020015f206001015f9054906101000a900473ffffffffffffffffffffffffffffffffffffffff1673ffffffffffffffffffffffffffffffffffffffff163373ffffffffffffffffffffffffffffffffffffffff161461061e576040517f08c379a000000000000000000000000000000000000000000000000000000000815260040161061590610f21565b60405180910390fd5b60015f8381526020019081526020015f206004015f9054906101000a900460ff161561067f576040517f08c379a000000000000000000000000000000000000000000000000000000000815260040161067690610f89565b60405180910390fd5b6001805f8481526020019081526020015f206004015f6101000a81548160ff0219169083151502179055507f19d564091d6e4d30539008c3982bbd535d6b78c1ee8fde8de41dbb21a7b6f6e382336040516106db929190610fa7565b60405180910390a15050565b5f604051905090565b5f80fd5b5f80fd5b5f819050919050565b61070a816106f8565b8114610714575f80fd5b50565b5f8135905061072581610701565b92915050565b5f602082840312156107405761073f6106f0565b5b5f61074d84828501610717565b91505092915050565b5f81519050919050565b5f82825260208201905092915050565b8281835e5f83830152505050565b5f601f19601f8301169050919050565b5f61079882610756565b6107a28185610760565b93506107b2818560208601610770565b6107bb8161077e565b840191505092915050565b5f73ffffffffffffffffffffffffffffffffffffffff82169050919050565b5f6107ef826107c6565b9050919050565b6107ff816107e5565b82525050565b61080e816106f8565b82525050565b5f8115159050919050565b61082881610814565b82525050565b5f60a0820190508181035f830152610846818861078e565b905061085560208301876107f6565b6108626040830186610805565b61086f6060830185610805565b61087c608083018461081f565b9695505050505050565b5f80fd5b5f80fd5b7f4e487b71000000000000000000000000000000000000000000000000000000005f52604160045260245ffd5b6108c48261077e565b810181811067ffffffffffffffff821117156108e3576108e261088e565b5b80604052505050565b5f6108f56106e7565b905061090182826108bb565b919050565b5f67ffffffffffffffff8211156109205761091f61088e565b5b6109298261077e565b9050602081019050919050565b828183375f83830152505050565b5f61095661095184610906565b6108ec565b9050828152602081018484840111156109725761097161088a565b5b61097d848285610936565b509392505050565b5f82601f83011261099957610998610886565b5b81356109a9848260208601610944565b91505092915050565b6109bb816107e5565b81146109c5575f80fd5b50565b5f813590506109d6816109b2565b92915050565b5f805f80608085870312156109f4576109f36106f0565b5b5f85013567ffffffffffffffff811115610a1157610a106106f4565b5b610a1d87828801610985565b9450506020610a2e878288016109c8565b9350506040610a3f87828801610717565b9250506060610a5087828801610717565b91505092959194509250565b5f602082019050610a6f5f830184610805565b92915050565b5f602082019050610a885f8301846107f6565b92915050565b7f4e487b71000000000000000000000000000000000000000000000000000000005f52602260045260245ffd5b5f6002820490506001821680610ad257607f821691505b602082108103610ae557610ae4610a8e565b5b50919050565b7f4f6e6c79206f776e65722063616e20706572666f726d207468697320616374695f8201527f6f6e000000000000000000000000000000000000000000000000000000000000602082015250565b5f610b45602283610760565b9150610b5082610aeb565b604082019050919050565b5f6020820190508181035f830152610b7281610b39565b9050919050565b7f4e487b71000000000000000000000000000000000000000000000000000000005f52601160045260245ffd5b5f610bb0826106f8565b91507fffffffffffffffffffffffffffffffffffffffffffffffffffffffffffffffff8203610be257610be1610b79565b5b600182019050919050565b5f819050815f5260205f209050919050565b5f6020601f8301049050919050565b5f82821b905092915050565b5f60088302610c497fffffffffffffffffffffffffffffffffffffffffffffffffffffffffffffffff82610c0e565b610c538683610c0e565b95508019841693508086168417925050509392505050565b5f819050919050565b5f610c8e610c89610c84846106f8565b610c6b565b6106f8565b9050919050565b5f819050919050565b610ca783610c74565b610cbb610cb382610c95565b848454610c1a565b825550505050565b5f90565b610ccf610cc3565b610cda818484610c9e565b505050565b5b81811015610cfd57610cf25f82610cc7565b600181019050610ce0565b5050565b601f821115610d4257610d1381610bed565b610d1c84610bff565b81016020851015610d2b578190505b610d3f610d3785610bff565b830182610cdf565b50505b505050565b5f82821c905092915050565b5f610d625f1984600802610d47565b1980831691505092915050565b5f610d7a8383610d53565b9150826002028217905092915050565b610d9382610756565b67ffffffffffffffff811115610dac57610dab61088e565b5b610db68254610abb565b610dc1828285610d01565b5f60209050601f831160018114610df2575f8415610de0578287015190505b610dea8582610d6f565b865550610e51565b601f198416610e0086610bed565b5f5b82811015610e2757848901518255600182019150602085019450602081019050610e02565b86831015610e445784890151610e40601f891682610d53565b8355505b6001600288020188555050505b505050505050565b5f60a082019050610e6c5f830188610805565b8181036020830152610e7e818761078e565b9050610e8d60408301866107f6565b610e9a6060830185610805565b610ea76080830184610805565b9695505050505050565b7f4f6e6c792061737369676e656420636f6e74726163746f722063616e207570645f8201527f6174652073746174757300000000000000000000000000000000000000000000602082015250565b5f610f0b602a83610760565b9150610f1682610eb1565b604082019050919050565b5f6020820190508181035f830152610f3881610eff565b9050919050565b7f50726f6a65637420616c726561647920636f6d706c65746564000000000000005f82015250565b5f610f73601983610760565b9150610f7e82610f3f565b602082019050919050565b5f6020820190508181035f830152610fa081610f67565b9050919050565b5f604082019050610fba5f830185610805565b610fc760208301846107f6565b939250505056fea2646970667358221220dc289ee52eb9ad2ca106113a9085900b1006cf74682b69ea73ee2f4689d3221464736f6c634300081a0033",
					"opcodes": "PUSH1 0x80 PUSH1 0x40 MSTORE CALLVALUE DUP1 ISZERO PUSH1 0xE JUMPI PUSH0 DUP1 REVERT JUMPDEST POP CALLER PUSH0 DUP1 PUSH2 0x100 EXP DUP2 SLOAD DUP2 PUSH20 0xFFFFFFFFFFFFFFFFFFFFFFFFFFFFFFFFFFFFFFFF MUL NOT AND SWAP1 DUP4 PUSH20 0xFFFFFFFFFFFFFFFFFFFFFFFFFFFFFFFFFFFFFFFF AND MUL OR SWAP1 SSTORE POP PUSH2 0x1004 DUP1 PUSH2 0x5B PUSH0 CODECOPY PUSH0 RETURN INVALID PUSH1 0x80 PUSH1 0x40 MSTORE CALLVALUE DUP1 ISZERO PUSH2 0xF JUMPI PUSH0 DUP1 REVERT JUMPDEST POP PUSH1 0x4 CALLDATASIZE LT PUSH2 0x60 JUMPI PUSH0 CALLDATALOAD PUSH1 0xE0 SHR DUP1 PUSH4 0x107046BD EQ PUSH2 0x64 JUMPI DUP1 PUSH4 0x16BFB5D2 EQ PUSH2 0x98 JUMPI DUP1 PUSH4 0x36FBAD26 EQ PUSH2 0xB4 JUMPI DUP1 PUSH4 0x5F8439E3 EQ PUSH2 0xD2 JUMPI DUP1 PUSH4 0x8DA5CB5B EQ PUSH2 0x106 JUMPI DUP1 PUSH4 0xCB5B7CA0 EQ PUSH2 0x124 JUMPI JUMPDEST PUSH0 DUP1 REVERT JUMPDEST PUSH2 0x7E PUSH1 0x4 DUP1 CALLDATASIZE SUB DUP2 ADD SWAP1 PUSH2 0x79 SWAP2 SWAP1 PUSH2 0x72B JUMP JUMPDEST PUSH2 0x140 JUMP JUMPDEST PUSH1 0x40 MLOAD PUSH2 0x8F SWAP6 SWAP5 SWAP4 SWAP3 SWAP2 SWAP1 PUSH2 0x82E JUMP JUMPDEST PUSH1 0x40 MLOAD DUP1 SWAP2 SUB SWAP1 RETURN JUMPDEST PUSH2 0xB2 PUSH1 0x4 DUP1 CALLDATASIZE SUB DUP2 ADD SWAP1 PUSH2 0xAD SWAP2 SWAP1 PUSH2 0x9DC JUMP JUMPDEST PUSH2 0x223 JUMP JUMPDEST STOP JUMPDEST PUSH2 0xBC PUSH2 0x3F0 JUMP JUMPDEST PUSH1 0x40 MLOAD PUSH2 0xC9 SWAP2 SWAP1 PUSH2 0xA5C JUMP JUMPDEST PUSH1 0x40 MLOAD DUP1 SWAP2 SUB SWAP1 RETURN JUMPDEST PUSH2 0xEC PUSH1 0x4 DUP1 CALLDATASIZE SUB DUP2 ADD SWAP1 PUSH2 0xE7 SWAP2 SWAP1 PUSH2 0x72B JUMP JUMPDEST PUSH2 0x3F6 JUMP JUMPDEST PUSH1 0x40 MLOAD PUSH2 0xFD SWAP6 SWAP5 SWAP4 SWAP3 SWAP2 SWAP1 PUSH2 0x82E JUMP JUMPDEST PUSH1 0x40 MLOAD DUP1 SWAP2 SUB SWAP1 RETURN JUMPDEST PUSH2 0x10E PUSH2 0x559 JUMP JUMPDEST PUSH1 0x40 MLOAD PUSH2 0x11B SWAP2 SWAP1 PUSH2 0xA75 JUMP JUMPDEST PUSH1 0x40 MLOAD DUP1 SWAP2 SUB SWAP1 RETURN JUMPDEST PUSH2 0x13E PUSH1 0x4 DUP1 CALLDATASIZE SUB DUP2 ADD SWAP1 PUSH2 0x139 SWAP2 SWAP1 PUSH2 0x72B JUMP JUMPDEST PUSH2 0x57C JUMP JUMPDEST STOP JUMPDEST PUSH1 0x1 PUSH1 0x20 MSTORE DUP1 PUSH0 MSTORE PUSH1 0x40 PUSH0 KECCAK256 PUSH0 SWAP2 POP SWAP1 POP DUP1 PUSH0 ADD DUP1 SLOAD PUSH2 0x15F SWAP1 PUSH2 0xABB JUMP JUMPDEST DUP1 PUSH1 0x1F ADD PUSH1 0x20 DUP1 SWAP2 DIV MUL PUSH1 0x20 ADD PUSH1 0x40 MLOAD SWAP1 DUP2 ADD PUSH1 0x40 MSTORE DUP1 SWAP3 SWAP2 SWAP1 DUP2 DUP2 MSTORE PUSH1 0x20 ADD DUP3 DUP1 SLOAD PUSH2 0x18B SWAP1 PUSH2 0xABB JUMP JUMPDEST DUP1 ISZERO PUSH2 0x1D6 JUMPI DUP1 PUSH1 0x1F LT PUSH2 0x1AD JUMPI PUSH2 0x100 DUP1 DUP4 SLOAD DIV MUL DUP4 MSTORE SWAP2 PUSH1 0x20 ADD SWAP2 PUSH2 0x1D6 JUMP JUMPDEST DUP3 ADD SWAP2 SWAP1 PUSH0 MSTORE PUSH1 0x20 PUSH0 KECCAK256 SWAP1 JUMPDEST DUP2 SLOAD DUP2 MSTORE SWAP1 PUSH1 0x1 ADD SWAP1 PUSH1 0x20 ADD DUP1 DUP4 GT PUSH2 0x1B9 JUMPI DUP3 SWAP1 SUB PUSH1 0x1F AND DUP3 ADD SWAP2 JUMPDEST POP POP POP POP POP SWAP1 DUP1 PUSH1 0x1 ADD PUSH0 SWAP1 SLOAD SWAP1 PUSH2 0x100 EXP SWAP1 DIV PUSH20 0xFFFFFFFFFFFFFFFFFFFFFFFFFFFFFFFFFFFFFFFF AND SWAP1 DUP1 PUSH1 0x2 ADD SLOAD SWAP1 DUP1 PUSH1 0x3 ADD SLOAD SWAP1 DUP1 PUSH1 0x4 ADD PUSH0 SWAP1 SLOAD SWAP1 PUSH2 0x100 EXP SWAP1 DIV PUSH1 0xFF AND SWAP1 POP DUP6 JUMP JUMPDEST PUSH0 DUP1 SLOAD SWAP1 PUSH2 0x100 EXP SWAP1 DIV PUSH20 0xFFFFFFFFFFFFFFFFFFFFFFFFFFFFFFFFFFFFFFFF AND PUSH20 0xFFFFFFFFFFFFFFFFFFFFFFFFFFFFFFFFFFFFFFFF AND CALLER PUSH20 0xFFFFFFFFFFFFFFFFFFFFFFFFFFFFFFFFFFFFFFFF AND EQ PUSH2 0x2B0 JUMPI PUSH1 0x40 MLOAD PUSH32 0x8C379A000000000000000000000000000000000000000000000000000000000 DUP2 MSTORE PUSH1 0x4 ADD PUSH2 0x2A7 SWAP1 PUSH2 0xB5B JUMP JUMPDEST PUSH1 0x40 MLOAD DUP1 SWAP2 SUB SWAP1 REVERT JUMPDEST PUSH1 0x2 PUSH0 DUP2 SLOAD DUP1 SWAP3 SWAP2 SWAP1 PUSH2 0x2C2 SWAP1 PUSH2 0xBA6 JUMP JUMPDEST SWAP2 SWAP1 POP SSTORE POP PUSH1 0x40 MLOAD DUP1 PUSH1 0xA0 ADD PUSH1 0x40 MSTORE DUP1 DUP6 DUP2 MSTORE PUSH1 0x20 ADD DUP5 PUSH20 0xFFFFFFFFFFFFFFFFFFFFFFFFFFFFFFFFFFFFFFFF AND DUP2 MSTORE PUSH1 0x20 ADD DUP4 DUP2 MSTORE PUSH1 0x20 ADD DUP3 DUP2 MSTORE PUSH1 0x20 ADD PUSH0 ISZERO ISZERO DUP2 MSTORE POP PUSH1 0x1 PUSH0 PUSH1 0x2 SLOAD DUP2 MSTORE PUSH1 0x20 ADD SWAP1 DUP2 MSTORE PUSH1 0x20 ADD PUSH0 KECCAK256 PUSH0 DUP3 ADD MLOAD DUP2 PUSH0 ADD SWAP1 DUP2 PUSH2 0x32C SWAP2 SWAP1 PUSH2 0xD8A JUMP JUMPDEST POP PUSH1 0x20 DUP3 ADD MLOAD DUP2 PUSH1 0x1 ADD PUSH0 PUSH2 0x100 EXP DUP2 SLOAD DUP2 PUSH20 0xFFFFFFFFFFFFFFFFFFFFFFFFFFFFFFFFFFFFFFFF MUL NOT AND SWAP1 DUP4 PUSH20 0xFFFFFFFFFFFFFFFFFFFFFFFFFFFFFFFFFFFFFFFF AND MUL OR SWAP1 SSTORE POP PUSH1 0x40 DUP3 ADD MLOAD DUP2 PUSH1 0x2 ADD SSTORE PUSH1 0x60 DUP3 ADD MLOAD DUP2 PUSH1 0x3 ADD SSTORE PUSH1 0x80 DUP3 ADD MLOAD DUP2 PUSH1 0x4 ADD PUSH0 PUSH2 0x100 EXP DUP2 SLOAD DUP2 PUSH1 0xFF MUL NOT AND SWAP1 DUP4 ISZERO ISZERO MUL OR SWAP1 SSTORE POP SWAP1 POP POP PUSH32 0xCFBB9CC3BD62A88127A0A357EF5745CE183A4F314F3F36A4302BBE74B89E2F1D PUSH1 0x2 SLOAD DUP6 DUP6 DUP6 DUP6 PUSH1 0x40 MLOAD PUSH2 0x3E2 SWAP6 SWAP5 SWAP4 SWAP3 SWAP2 SWAP1 PUSH2 0xE59 JUMP JUMPDEST PUSH1 0x40 MLOAD DUP1 SWAP2 SUB SWAP1 LOG1 POP POP POP POP JUMP JUMPDEST PUSH1 0x2 SLOAD DUP2 JUMP JUMPDEST PUSH1 0x60 PUSH0 DUP1 PUSH0 DUP1 PUSH0 PUSH1 0x1 PUSH0 DUP9 DUP2 MSTORE PUSH1 0x20 ADD SWAP1 DUP2 MSTORE PUSH1 0x20 ADD PUSH0 KECCAK256 PUSH1 0x40 MLOAD DUP1 PUSH1 0xA0 ADD PUSH1 0x40 MSTORE SWAP1 DUP2 PUSH0 DUP3 ADD DUP1 SLOAD PUSH2 0x428 SWAP1 PUSH2 0xABB JUMP JUMPDEST DUP1 PUSH1 0x1F ADD PUSH1 0x20 DUP1 SWAP2 DIV MUL PUSH1 0x20 ADD PUSH1 0x40 MLOAD SWAP1 DUP2 ADD PUSH1 0x40 MSTORE DUP1 SWAP3 SWAP2 SWAP1 DUP2 DUP2 MSTORE PUSH1 0x20 ADD DUP3 DUP1 SLOAD PUSH2 0x454 SWAP1 PUSH2 0xABB JUMP JUMPDEST DUP1 ISZERO PUSH2 0x49F JUMPI DUP1 PUSH1 0x1F LT PUSH2 0x476 JUMPI PUSH2 0x100 DUP1 DUP4 SLOAD DIV MUL DUP4 MSTORE SWAP2 PUSH1 0x20 ADD SWAP2 PUSH2 0x49F JUMP JUMPDEST DUP3 ADD SWAP2 SWAP1 PUSH0 MSTORE PUSH1 0x20 PUSH0 KECCAK256 SWAP1 JUMPDEST DUP2 SLOAD DUP2 MSTORE SWAP1 PUSH1 0x1 ADD SWAP1 PUSH1 0x20 ADD DUP1 DUP4 GT PUSH2 0x482 JUMPI DUP3 SWAP1 SUB PUSH1 0x1F AND DUP3 ADD SWAP2 JUMPDEST POP POP POP POP POP DUP2 MSTORE PUSH1 0x20 ADD PUSH1 0x1 DUP3 ADD PUSH0 SWAP1 SLOAD SWAP1 PUSH2 0x100 EXP SWAP1 DIV PUSH20 0xFFFFFFFFFFFFFFFFFFFFFFFFFFFFFFFFFFFFFFFF AND PUSH20 0xFFFFFFFFFFFFFFFFFFFFFFFFFFFFFFFFFFFFFFFF AND PUSH20 0xFFFFFFFFFFFFFFFFFFFFFFFFFFFFFFFFFFFFFFFF AND DUP2 MSTORE PUSH1 0x20 ADD PUSH1 0x2 DUP3 ADD SLOAD DUP2 MSTORE PUSH1 0x20 ADD PUSH1 0x3 DUP3 ADD SLOAD DUP2 MSTORE PUSH1 0x20 ADD PUSH1 0x4 DUP3 ADD PUSH0 SWAP1 SLOAD SWAP1 PUSH2 0x100 EXP SWAP1 DIV PUSH1 0xFF AND ISZERO ISZERO ISZERO ISZERO DUP2 MSTORE POP POP SWAP1 POP DUP1 PUSH0 ADD MLOAD DUP2 PUSH1 0x20 ADD MLOAD DUP3 PUSH1 0x40 ADD MLOAD DUP4 PUSH1 0x60 ADD MLOAD DUP5 PUSH1 0x80 ADD MLOAD SWAP6 POP SWAP6 POP SWAP6 POP SWAP6 POP SWAP6 POP POP SWAP2 SWAP4 SWAP6 SWAP1 SWAP3 SWAP5 POP JUMP JUMPDEST PUSH0 DUP1 SLOAD SWAP1 PUSH2 0x100 EXP SWAP1 DIV PUSH20 0xFFFFFFFFFFFFFFFFFFFFFFFFFFFFFFFFFFFFFFFF AND DUP2 JUMP JUMPDEST DUP1 PUSH1 0x1 PUSH0 DUP3 DUP2 MSTORE PUSH1 0x20 ADD SWAP1 DUP2 MSTORE PUSH1 0x20 ADD PUSH0 KECCAK256 PUSH1 0x1 ADD PUSH0 SWAP1 SLOAD SWAP1 PUSH2 0x100 EXP SWAP1 DIV PUSH20 0xFFFFFFFFFFFFFFFFFFFFFFFFFFFFFFFFFFFFFFFF AND PUSH20 0xFFFFFFFFFFFFFFFFFFFFFFFFFFFFFFFFFFFFFFFF AND CALLER PUSH20 0xFFFFFFFFFFFFFFFFFFFFFFFFFFFFFFFFFFFFFFFF AND EQ PUSH2 0x61E JUMPI PUSH1 0x40 MLOAD PUSH32 0x8C379A000000000000000000000000000000000000000000000000000000000 DUP2 MSTORE PUSH1 0x4 ADD PUSH2 0x615 SWAP1 PUSH2 0xF21 JUMP JUMPDEST PUSH1 0x40 MLOAD DUP1 SWAP2 SUB SWAP1 REVERT JUMPDEST PUSH1 0x1 PUSH0 DUP4 DUP2 MSTORE PUSH1 0x20 ADD SWAP1 DUP2 MSTORE PUSH1 0x20 ADD PUSH0 KECCAK256 PUSH1 0x4 ADD PUSH0 SWAP1 SLOAD SWAP1 PUSH2 0x100 EXP SWAP1 DIV PUSH1 0xFF AND ISZERO PUSH2 0x67F JUMPI PUSH1 0x40 MLOAD PUSH32 0x8C379A000000000000000000000000000000000000000000000000000000000 DUP2 MSTORE PUSH1 0x4 ADD PUSH2 0x676 SWAP1 PUSH2 0xF89 JUMP JUMPDEST PUSH1 0x40 MLOAD DUP1 SWAP2 SUB SWAP1 REVERT JUMPDEST PUSH1 0x1 DUP1 PUSH0 DUP5 DUP2 MSTORE PUSH1 0x20 ADD SWAP1 DUP2 MSTORE PUSH1 0x20 ADD PUSH0 KECCAK256 PUSH1 0x4 ADD PUSH0 PUSH2 0x100 EXP DUP2 SLOAD DUP2 PUSH1 0xFF MUL NOT AND SWAP1 DUP4 ISZERO ISZERO MUL OR SWAP1 SSTORE POP PUSH32 0x19D564091D6E4D30539008C3982BBD535D6B78C1EE8FDE8DE41DBB21A7B6F6E3 DUP3 CALLER PUSH1 0x40 MLOAD PUSH2 0x6DB SWAP3 SWAP2 SWAP1 PUSH2 0xFA7 JUMP JUMPDEST PUSH1 0x40 MLOAD DUP1 SWAP2 SUB SWAP1 LOG1 POP POP JUMP JUMPDEST PUSH0 PUSH1 0x40 MLOAD SWAP1 POP SWAP1 JUMP JUMPDEST PUSH0 DUP1 REVERT JUMPDEST PUSH0 DUP1 REVERT JUMPDEST PUSH0 DUP2 SWAP1 POP SWAP2 SWAP1 POP JUMP JUMPDEST PUSH2 0x70A DUP2 PUSH2 0x6F8 JUMP JUMPDEST DUP2 EQ PUSH2 0x714 JUMPI PUSH0 DUP1 REVERT JUMPDEST POP JUMP JUMPDEST PUSH0 DUP2 CALLDATALOAD SWAP1 POP PUSH2 0x725 DUP2 PUSH2 0x701 JUMP JUMPDEST SWAP3 SWAP2 POP POP JUMP JUMPDEST PUSH0 PUSH1 0x20 DUP3 DUP5 SUB SLT ISZERO PUSH2 0x740 JUMPI PUSH2 0x73F PUSH2 0x6F0 JUMP JUMPDEST JUMPDEST PUSH0 PUSH2 0x74D DUP5 DUP3 DUP6 ADD PUSH2 0x717 JUMP JUMPDEST SWAP2 POP POP SWAP3 SWAP2 POP POP JUMP JUMPDEST PUSH0 DUP2 MLOAD SWAP1 POP SWAP2 SWAP1 POP JUMP JUMPDEST PUSH0 DUP3 DUP3 MSTORE PUSH1 0x20 DUP3 ADD SWAP1 POP SWAP3 SWAP2 POP POP JUMP JUMPDEST DUP3 DUP2 DUP4 MCOPY PUSH0 DUP4 DUP4 ADD MSTORE POP POP POP JUMP JUMPDEST PUSH0 PUSH1 0x1F NOT PUSH1 0x1F DUP4 ADD AND SWAP1 POP SWAP2 SWAP1 POP JUMP JUMPDEST PUSH0 PUSH2 0x798 DUP3 PUSH2 0x756 JUMP JUMPDEST PUSH2 0x7A2 DUP2 DUP6 PUSH2 0x760 JUMP JUMPDEST SWAP4 POP PUSH2 0x7B2 DUP2 DUP6 PUSH1 0x20 DUP7 ADD PUSH2 0x770 JUMP JUMPDEST PUSH2 0x7BB DUP2 PUSH2 0x77E JUMP JUMPDEST DUP5 ADD SWAP2 POP POP SWAP3 SWAP2 POP POP JUMP JUMPDEST PUSH0 PUSH20 0xFFFFFFFFFFFFFFFFFFFFFFFFFFFFFFFFFFFFFFFF DUP3 AND SWAP1 POP SWAP2 SWAP1 POP JUMP JUMPDEST PUSH0 PUSH2 0x7EF DUP3 PUSH2 0x7C6 JUMP JUMPDEST SWAP1 POP SWAP2 SWAP1 POP JUMP JUMPDEST PUSH2 0x7FF DUP2 PUSH2 0x7E5 JUMP JUMPDEST DUP3 MSTORE POP POP JUMP JUMPDEST PUSH2 0x80E DUP2 PUSH2 0x6F8 JUMP JUMPDEST DUP3 MSTORE POP POP JUMP JUMPDEST PUSH0 DUP2 ISZERO ISZERO SWAP1 POP SWAP2 SWAP1 POP JUMP JUMPDEST PUSH2 0x828 DUP2 PUSH2 0x814 JUMP JUMPDEST DUP3 MSTORE POP POP JUMP JUMPDEST PUSH0 PUSH1 0xA0 DUP3 ADD SWAP1 POP DUP2 DUP2 SUB PUSH0 DUP4 ADD MSTORE PUSH2 0x846 DUP2 DUP9 PUSH2 0x78E JUMP JUMPDEST SWAP1 POP PUSH2 0x855 PUSH1 0x20 DUP4 ADD DUP8 PUSH2 0x7F6 JUMP JUMPDEST PUSH2 0x862 PUSH1 0x40 DUP4 ADD DUP7 PUSH2 0x805 JUMP JUMPDEST PUSH2 0x86F PUSH1 0x60 DUP4 ADD DUP6 PUSH2 0x805 JUMP JUMPDEST PUSH2 0x87C PUSH1 0x80 DUP4 ADD DUP5 PUSH2 0x81F JUMP JUMPDEST SWAP7 SWAP6 POP POP POP POP POP POP JUMP JUMPDEST PUSH0 DUP1 REVERT JUMPDEST PUSH0 DUP1 REVERT JUMPDEST PUSH32 0x4E487B7100000000000000000000000000000000000000000000000000000000 PUSH0 MSTORE PUSH1 0x41 PUSH1 0x4 MSTORE PUSH1 0x24 PUSH0 REVERT JUMPDEST PUSH2 0x8C4 DUP3 PUSH2 0x77E JUMP JUMPDEST DUP2 ADD DUP2 DUP2 LT PUSH8 0xFFFFFFFFFFFFFFFF DUP3 GT OR ISZERO PUSH2 0x8E3 JUMPI PUSH2 0x8E2 PUSH2 0x88E JUMP JUMPDEST JUMPDEST DUP1 PUSH1 0x40 MSTORE POP POP POP JUMP JUMPDEST PUSH0 PUSH2 0x8F5 PUSH2 0x6E7 JUMP JUMPDEST SWAP1 POP PUSH2 0x901 DUP3 DUP3 PUSH2 0x8BB JUMP JUMPDEST SWAP2 SWAP1 POP JUMP JUMPDEST PUSH0 PUSH8 0xFFFFFFFFFFFFFFFF DUP3 GT ISZERO PUSH2 0x920 JUMPI PUSH2 0x91F PUSH2 0x88E JUMP JUMPDEST JUMPDEST PUSH2 0x929 DUP3 PUSH2 0x77E JUMP JUMPDEST SWAP1 POP PUSH1 0x20 DUP2 ADD SWAP1 POP SWAP2 SWAP1 POP JUMP JUMPDEST DUP3 DUP2 DUP4 CALLDATACOPY PUSH0 DUP4 DUP4 ADD MSTORE POP POP POP JUMP JUMPDEST PUSH0 PUSH2 0x956 PUSH2 0x951 DUP5 PUSH2 0x906 JUMP JUMPDEST PUSH2 0x8EC JUMP JUMPDEST SWAP1 POP DUP3 DUP2 MSTORE PUSH1 0x20 DUP2 ADD DUP5 DUP5 DUP5 ADD GT ISZERO PUSH2 0x972 JUMPI PUSH2 0x971 PUSH2 0x88A JUMP JUMPDEST JUMPDEST PUSH2 0x97D DUP5 DUP3 DUP6 PUSH2 0x936 JUMP JUMPDEST POP SWAP4 SWAP3 POP POP POP JUMP JUMPDEST PUSH0 DUP3 PUSH1 0x1F DUP4 ADD SLT PUSH2 0x999 JUMPI PUSH2 0x998 PUSH2 0x886 JUMP JUMPDEST JUMPDEST DUP2 CALLDATALOAD PUSH2 0x9A9 DUP5 DUP3 PUSH1 0x20 DUP7 ADD PUSH2 0x944 JUMP JUMPDEST SWAP2 POP POP SWAP3 SWAP2 POP POP JUMP JUMPDEST PUSH2 0x9BB DUP2 PUSH2 0x7E5 JUMP JUMPDEST DUP2 EQ PUSH2 0x9C5 JUMPI PUSH0 DUP1 REVERT JUMPDEST POP JUMP JUMPDEST PUSH0 DUP2 CALLDATALOAD SWAP1 POP PUSH2 0x9D6 DUP2 PUSH2 0x9B2 JUMP JUMPDEST SWAP3 SWAP2 POP POP JUMP JUMPDEST PUSH0 DUP1 PUSH0 DUP1 PUSH1 0x80 DUP6 DUP8 SUB SLT ISZERO PUSH2 0x9F4 JUMPI PUSH2 0x9F3 PUSH2 0x6F0 JUMP JUMPDEST JUMPDEST PUSH0 DUP6 ADD CALLDATALOAD PUSH8 0xFFFFFFFFFFFFFFFF DUP2 GT ISZERO PUSH2 0xA11 JUMPI PUSH2 0xA10 PUSH2 0x6F4 JUMP JUMPDEST JUMPDEST PUSH2 0xA1D DUP8 DUP3 DUP9 ADD PUSH2 0x985 JUMP JUMPDEST SWAP5 POP POP PUSH1 0x20 PUSH2 0xA2E DUP8 DUP3 DUP9 ADD PUSH2 0x9C8 JUMP JUMPDEST SWAP4 POP POP PUSH1 0x40 PUSH2 0xA3F DUP8 DUP3 DUP9 ADD PUSH2 0x717 JUMP JUMPDEST SWAP3 POP POP PUSH1 0x60 PUSH2 0xA50 DUP8 DUP3 DUP9 ADD PUSH2 0x717 JUMP JUMPDEST SWAP2 POP POP SWAP3 SWAP6 SWAP2 SWAP5 POP SWAP3 POP JUMP JUMPDEST PUSH0 PUSH1 0x20 DUP3 ADD SWAP1 POP PUSH2 0xA6F PUSH0 DUP4 ADD DUP5 PUSH2 0x805 JUMP JUMPDEST SWAP3 SWAP2 POP POP JUMP JUMPDEST PUSH0 PUSH1 0x20 DUP3 ADD SWAP1 POP PUSH2 0xA88 PUSH0 DUP4 ADD DUP5 PUSH2 0x7F6 JUMP JUMPDEST SWAP3 SWAP2 POP POP JUMP JUMPDEST PUSH32 0x4E487B7100000000000000000000000000000000000000000000000000000000 PUSH0 MSTORE PUSH1 0x22 PUSH1 0x4 MSTORE PUSH1 0x24 PUSH0 REVERT JUMPDEST PUSH0 PUSH1 0x2 DUP3 DIV SWAP1 POP PUSH1 0x1 DUP3 AND DUP1 PUSH2 0xAD2 JUMPI PUSH1 0x7F DUP3 AND SWAP2 POP JUMPDEST PUSH1 0x20 DUP3 LT DUP2 SUB PUSH2 0xAE5 JUMPI PUSH2 0xAE4 PUSH2 0xA8E JUMP JUMPDEST JUMPDEST POP SWAP2 SWAP1 POP JUMP JUMPDEST PUSH32 0x4F6E6C79206F776E65722063616E20706572666F726D20746869732061637469 PUSH0 DUP3 ADD MSTORE PUSH32 0x6F6E000000000000000000000000000000000000000000000000000000000000 PUSH1 0x20 DUP3 ADD MSTORE POP JUMP JUMPDEST PUSH0 PUSH2 0xB45 PUSH1 0x22 DUP4 PUSH2 0x760 JUMP JUMPDEST SWAP2 POP PUSH2 0xB50 DUP3 PUSH2 0xAEB JUMP JUMPDEST PUSH1 0x40 DUP3 ADD SWAP1 POP SWAP2 SWAP1 POP JUMP JUMPDEST PUSH0 PUSH1 0x20 DUP3 ADD SWAP1 POP DUP2 DUP2 SUB PUSH0 DUP4 ADD MSTORE PUSH2 0xB72 DUP2 PUSH2 0xB39 JUMP JUMPDEST SWAP1 POP SWAP2 SWAP1 POP JUMP JUMPDEST PUSH32 0x4E487B7100000000000000000000000000000000000000000000000000000000 PUSH0 MSTORE PUSH1 0x11 PUSH1 0x4 MSTORE PUSH1 0x24 PUSH0 REVERT JUMPDEST PUSH0 PUSH2 0xBB0 DUP3 PUSH2 0x6F8 JUMP JUMPDEST SWAP2 POP PUSH32 0xFFFFFFFFFFFFFFFFFFFFFFFFFFFFFFFFFFFFFFFFFFFFFFFFFFFFFFFFFFFFFFFF DUP3 SUB PUSH2 0xBE2 JUMPI PUSH2 0xBE1 PUSH2 0xB79 JUMP JUMPDEST JUMPDEST PUSH1 0x1 DUP3 ADD SWAP1 POP SWAP2 SWAP1 POP JUMP JUMPDEST PUSH0 DUP2 SWAP1 POP DUP2 PUSH0 MSTORE PUSH1 0x20 PUSH0 KECCAK256 SWAP1 POP SWAP2 SWAP1 POP JUMP JUMPDEST PUSH0 PUSH1 0x20 PUSH1 0x1F DUP4 ADD DIV SWAP1 POP SWAP2 SWAP1 POP JUMP JUMPDEST PUSH0 DUP3 DUP3 SHL SWAP1 POP SWAP3 SWAP2 POP POP JUMP JUMPDEST PUSH0 PUSH1 0x8 DUP4 MUL PUSH2 0xC49 PUSH32 0xFFFFFFFFFFFFFFFFFFFFFFFFFFFFFFFFFFFFFFFFFFFFFFFFFFFFFFFFFFFFFFFF DUP3 PUSH2 0xC0E JUMP JUMPDEST PUSH2 0xC53 DUP7 DUP4 PUSH2 0xC0E JUMP JUMPDEST SWAP6 POP DUP1 NOT DUP5 AND SWAP4 POP DUP1 DUP7 AND DUP5 OR SWAP3 POP POP POP SWAP4 SWAP3 POP POP POP JUMP JUMPDEST PUSH0 DUP2 SWAP1 POP SWAP2 SWAP1 POP JUMP JUMPDEST PUSH0 PUSH2 0xC8E PUSH2 0xC89 PUSH2 0xC84 DUP5 PUSH2 0x6F8 JUMP JUMPDEST PUSH2 0xC6B JUMP JUMPDEST PUSH2 0x6F8 JUMP JUMPDEST SWAP1 POP SWAP2 SWAP1 POP JUMP JUMPDEST PUSH0 DUP2 SWAP1 POP SWAP2 SWAP1 POP JUMP JUMPDEST PUSH2 0xCA7 DUP4 PUSH2 0xC74 JUMP JUMPDEST PUSH2 0xCBB PUSH2 0xCB3 DUP3 PUSH2 0xC95 JUMP JUMPDEST DUP5 DUP5 SLOAD PUSH2 0xC1A JUMP JUMPDEST DUP3 SSTORE POP POP POP POP JUMP JUMPDEST PUSH0 SWAP1 JUMP JUMPDEST PUSH2 0xCCF PUSH2 0xCC3 JUMP JUMPDEST PUSH2 0xCDA DUP2 DUP5 DUP5 PUSH2 0xC9E JUMP JUMPDEST POP POP POP JUMP JUMPDEST JUMPDEST DUP2 DUP2 LT ISZERO PUSH2 0xCFD JUMPI PUSH2 0xCF2 PUSH0 DUP3 PUSH2 0xCC7 JUMP JUMPDEST PUSH1 0x1 DUP2 ADD SWAP1 POP PUSH2 0xCE0 JUMP JUMPDEST POP POP JUMP JUMPDEST PUSH1 0x1F DUP3 GT ISZERO PUSH2 0xD42 JUMPI PUSH2 0xD13 DUP2 PUSH2 0xBED JUMP JUMPDEST PUSH2 0xD1C DUP5 PUSH2 0xBFF JUMP JUMPDEST DUP2 ADD PUSH1 0x20 DUP6 LT ISZERO PUSH2 0xD2B JUMPI DUP2 SWAP1 POP JUMPDEST PUSH2 0xD3F PUSH2 0xD37 DUP6 PUSH2 0xBFF JUMP JUMPDEST DUP4 ADD DUP3 PUSH2 0xCDF JUMP JUMPDEST POP POP JUMPDEST POP POP POP JUMP JUMPDEST PUSH0 DUP3 DUP3 SHR SWAP1 POP SWAP3 SWAP2 POP POP JUMP JUMPDEST PUSH0 PUSH2 0xD62 PUSH0 NOT DUP5 PUSH1 0x8 MUL PUSH2 0xD47 JUMP JUMPDEST NOT DUP1 DUP4 AND SWAP2 POP POP SWAP3 SWAP2 POP POP JUMP JUMPDEST PUSH0 PUSH2 0xD7A DUP4 DUP4 PUSH2 0xD53 JUMP JUMPDEST SWAP2 POP DUP3 PUSH1 0x2 MUL DUP3 OR SWAP1 POP SWAP3 SWAP2 POP POP JUMP JUMPDEST PUSH2 0xD93 DUP3 PUSH2 0x756 JUMP JUMPDEST PUSH8 0xFFFFFFFFFFFFFFFF DUP2 GT ISZERO PUSH2 0xDAC JUMPI PUSH2 0xDAB PUSH2 0x88E JUMP JUMPDEST JUMPDEST PUSH2 0xDB6 DUP3 SLOAD PUSH2 0xABB JUMP JUMPDEST PUSH2 0xDC1 DUP3 DUP3 DUP6 PUSH2 0xD01 JUMP JUMPDEST PUSH0 PUSH1 0x20 SWAP1 POP PUSH1 0x1F DUP4 GT PUSH1 0x1 DUP2 EQ PUSH2 0xDF2 JUMPI PUSH0 DUP5 ISZERO PUSH2 0xDE0 JUMPI DUP3 DUP8 ADD MLOAD SWAP1 POP JUMPDEST PUSH2 0xDEA DUP6 DUP3 PUSH2 0xD6F JUMP JUMPDEST DUP7 SSTORE POP PUSH2 0xE51 JUMP JUMPDEST PUSH1 0x1F NOT DUP5 AND PUSH2 0xE00 DUP7 PUSH2 0xBED JUMP JUMPDEST PUSH0 JUMPDEST DUP3 DUP2 LT ISZERO PUSH2 0xE27 JUMPI DUP5 DUP10 ADD MLOAD DUP3 SSTORE PUSH1 0x1 DUP3 ADD SWAP2 POP PUSH1 0x20 DUP6 ADD SWAP5 POP PUSH1 0x20 DUP2 ADD SWAP1 POP PUSH2 0xE02 JUMP JUMPDEST DUP7 DUP4 LT ISZERO PUSH2 0xE44 JUMPI DUP5 DUP10 ADD MLOAD PUSH2 0xE40 PUSH1 0x1F DUP10 AND DUP3 PUSH2 0xD53 JUMP JUMPDEST DUP4 SSTORE POP JUMPDEST PUSH1 0x1 PUSH1 0x2 DUP9 MUL ADD DUP9 SSTORE POP POP POP JUMPDEST POP POP POP POP POP POP JUMP JUMPDEST PUSH0 PUSH1 0xA0 DUP3 ADD SWAP1 POP PUSH2 0xE6C PUSH0 DUP4 ADD DUP9 PUSH2 0x805 JUMP JUMPDEST DUP2 DUP2 SUB PUSH1 0x20 DUP4 ADD MSTORE PUSH2 0xE7E DUP2 DUP8 PUSH2 0x78E JUMP JUMPDEST SWAP1 POP PUSH2 0xE8D PUSH1 0x40 DUP4 ADD DUP7 PUSH2 0x7F6 JUMP JUMPDEST PUSH2 0xE9A PUSH1 0x60 DUP4 ADD DUP6 PUSH2 0x805 JUMP JUMPDEST PUSH2 0xEA7 PUSH1 0x80 DUP4 ADD DUP5 PUSH2 0x805 JUMP JUMPDEST SWAP7 SWAP6 POP POP POP POP POP POP JUMP JUMPDEST PUSH32 0x4F6E6C792061737369676E656420636F6E74726163746F722063616E20757064 PUSH0 DUP3 ADD MSTORE PUSH32 0x6174652073746174757300000000000000000000000000000000000000000000 PUSH1 0x20 DUP3 ADD MSTORE POP JUMP JUMPDEST PUSH0 PUSH2 0xF0B PUSH1 0x2A DUP4 PUSH2 0x760 JUMP JUMPDEST SWAP2 POP PUSH2 0xF16 DUP3 PUSH2 0xEB1 JUMP JUMPDEST PUSH1 0x40 DUP3 ADD SWAP1 POP SWAP2 SWAP1 POP JUMP JUMPDEST PUSH0 PUSH1 0x20 DUP3 ADD SWAP1 POP DUP2 DUP2 SUB PUSH0 DUP4 ADD MSTORE PUSH2 0xF38 DUP2 PUSH2 0xEFF JUMP JUMPDEST SWAP1 POP SWAP2 SWAP1 POP JUMP JUMPDEST PUSH32 0x50726F6A65637420616C726561647920636F6D706C6574656400000000000000 PUSH0 DUP3 ADD MSTORE POP JUMP JUMPDEST PUSH0 PUSH2 0xF73 PUSH1 0x19 DUP4 PUSH2 0x760 JUMP JUMPDEST SWAP2 POP PUSH2 0xF7E DUP3 PUSH2 0xF3F JUMP JUMPDEST PUSH1 0x20 DUP3 ADD SWAP1 POP SWAP2 SWAP1 POP JUMP JUMPDEST PUSH0 PUSH1 0x20 DUP3 ADD SWAP1 POP DUP2 DUP2 SUB PUSH0 DUP4 ADD MSTORE PUSH2 0xFA0 DUP2 PUSH2 0xF67 JUMP JUMPDEST SWAP1 POP SWAP2 SWAP1 POP JUMP JUMPDEST PUSH0 PUSH1 0x40 DUP3 ADD SWAP1 POP PUSH2 0xFBA PUSH0 DUP4 ADD DUP6 PUSH2 0x805 JUMP JUMPDEST PUSH2 0xFC7 PUSH1 0x20 DUP4 ADD DUP5 PUSH2 0x7F6 JUMP JUMPDEST SWAP4 SWAP3 POP POP POP JUMP INVALID LOG2 PUSH5 0x6970667358 0x22 SLT KECCAK256 0xDC 0x28 SWAP15 0xE5 0x2E 0xB9 0xAD 0x2C LOG1 MOD GT GASPRICE SWAP1 DUP6 SWAP1 SIGNEXTEND LT MOD 0xCF PUSH21 0x682B69EA73EE2F4689D3221464736F6C634300081A STOP CALLER "
				},
				"gasEstimates": {
					"creation": {
						"codeDepositCost": "820000",
						"executionCost": "25120",
						"totalCost": "845120"
					},
					"external": {
						"createProject(string,address,uint256,uint256)": "infinite",
						"getProjectDetails(uint256)": "infinite",
						"markProjectCompleted(uint256)": "infinite",
						"owner()": "2571",
						"projectCount()": "2447",
						"projects(uint256)": "infinite"
					}
				},
				"methodIdentifiers": {
					"createProject(string,address,uint256,uint256)": "16bfb5d2",
					"getProjectDetails(uint256)": "5f8439e3",
					"markProjectCompleted(uint256)": "cb5b7ca0",
					"owner()": "8da5cb5b",
					"projectCount()": "36fbad26",
					"projects(uint256)": "107046bd"
				}
			},
			"storageLayout": {
				"storage": [
					{
						"astId": 14,
						"contract": "Construction.sol:SmartConstruction",
						"label": "owner",
						"offset": 0,
						"slot": "0",
						"type": "t_address"
					},
					{
						"astId": 19,
						"contract": "Construction.sol:SmartConstruction",
						"label": "projects",
						"offset": 0,
						"slot": "1",
						"type": "t_mapping(t_uint256,t_struct(Project)12_storage)"
					},
					{
						"astId": 21,
						"contract": "Construction.sol:SmartConstruction",
						"label": "projectCount",
						"offset": 0,
						"slot": "2",
						"type": "t_uint256"
					}
				],
				"types": {
					"t_address": {
						"encoding": "inplace",
						"label": "address",
						"numberOfBytes": "20"
					},
					"t_bool": {
						"encoding": "inplace",
						"label": "bool",
						"numberOfBytes": "1"
					},
					"t_mapping(t_uint256,t_struct(Project)12_storage)": {
						"encoding": "mapping",
						"key": "t_uint256",
						"label": "mapping(uint256 => struct SmartConstruction.Project)",
						"numberOfBytes": "32",
						"value": "t_struct(Project)12_storage"
					},
					"t_string_storage": {
						"encoding": "bytes",
						"label": "string",
						"numberOfBytes": "32"
					},
					"t_struct(Project)12_storage": {
						"encoding": "inplace",
						"label": "struct SmartConstruction.Project",
						"members": [
							{
								"astId": 3,
								"contract": "Construction.sol:SmartConstruction",
								"label": "name",
								"offset": 0,
								"slot": "0",
								"type": "t_string_storage"
							},
							{
								"astId": 5,
								"contract": "Construction.sol:SmartConstruction",
								"label": "contractor",
								"offset": 0,
								"slot": "1",
								"type": "t_address"
							},
							{
								"astId": 7,
								"contract": "Construction.sol:SmartConstruction",
								"label": "budget",
								"offset": 0,
								"slot": "2",
								"type": "t_uint256"
							},
							{
								"astId": 9,
								"contract": "Construction.sol:SmartConstruction",
								"label": "deadline",
								"offset": 0,
								"slot": "3",
								"type": "t_uint256"
							},
							{
								"astId": 11,
								"contract": "Construction.sol:SmartConstruction",
								"label": "completed",
								"offset": 0,
								"slot": "4",
								"type": "t_bool"
							}
						],
						"numberOfBytes": "160"
					},
					"t_uint256": {
						"encoding": "inplace",
						"label": "uint256",
						"numberOfBytes": "32"
					}
				}
			},
			"userdoc": {
				"kind": "user",
				"methods": {},
				"version": 1
			}
		}
	}
}